ASSEMBLY LISTING OF SEGMENT >special_ldd>on>11/04/83-pbf>prt_status_table_.alm
ASSEMBLED ON:	11/04/83  1051.4 mst Fri
OPTIONS USED:	list
ASSEMBLED BY:	ALM Version  6.6  November 1982
ASSEMBLER CREATED:	09/21/83  1227.3 mst Wed

                                     1  "  ******************************************************
                                     2  "  *                                                    *
                                     3  "  *                                                    *
                                     4  "  * Copyright (c) 1972 by Massachusetts Institute of   *
                                     5  "  * Technology and Honeywell Information Systems, Inc. *
                                     6  "  *                                                    *
                                     7  "  *                                                    *
                                     8  "  ******************************************************
                                     9
                                    10
                                    11  " I/O status table for the line printer
                                    12
                                    13  " Created:  1 December 1974 by Noel I. Morris
                                    14  " Modified: 23 June 1975 by Noel I. Morris
                                    15  " Modified: April 1979 by R.J.C. Kissel to add major status 0
                                    16  " Modified: 7 August 1980 by Art Beattie to halt IO after alert before/after printing
                                    17  "       started errors
                                    18  " Modified: June 1981 by Rich Coppola to correct definitions for status 11/2 (MPC
                                    19  "       attention/DAI) and status 12/3 (MPC data alert/Sum check)
                                    20  " Modified: 26 November 1981 by G. Palter to fix two bugs from the io_daemon error list:
                                    21  "      0013: phx02414, phx09537
                                    22  "	On a local printer, the I/O daemon does not distinguish between the "stacker
                                    23  "	alert" condition and the "out of paper" condition -- the fix for this bug is
                                    24  "	simply to change the message for status 3/1 as it is raised for both conditions
                                    25  "	and not just for out of paper as was thought
                                    26  "      0028: phx04610
                                    27  "	A power fault on a local printer will reset the VFC to the default state (6
                                    28  "	lines/inch).  The entry in prt_status_table_ for "power fault" does not indicate
                                    29  "	that the VFC and train image are lost -- the fix for this bug is to add a new flag
                                    30  "	which is used by the printer DIM to indicate a VFC and image reload should be done
                                    31  "	after the operator readies the printer (the next special interrupt)
                                    32  " Modified 8 July 1983 by E. N. Kittlitz for eurc_nobk flags.
                                    33  " Modified 83-20-24 by E. N. Kittlitz to eliminate eurc_nobk flag on Top page echo due to eurc prom change.
                                    34
                                    35
    000000                          36  	name	prt_status_table_
                                    37
                                    38  	include	status_table
                                   1-1  " Macro definitions for peripheral status table generation.
                                   1-2  "	created 12/1/74 by Noel I. Morris
                                   1-3  "	last modified 6/10/75 by Noel I. Morris
                                   1-4  "	last modified 4/79 by R.J.C. Kissel to make alm macros instead of mexp.
                                   1-5  "	last modified 7/83 by E. N. Kittlitz to add eurc_nobk.
                                   1-6
                                   1-7  	macro	status_table
                              1    1-8
                              2    1-9  	name	&1_status_table_
                              3   1-10
                              4   1-11  	segdef	&1_status_table_
                              5   1-12
                              6   1-13
                              7   1-14  	bool	bk,400000		retry previous operation
                              8   1-15  	bool	in,200000		set backup flag if status.initiate
                              9   1-16  	bool	rp,100000		report this error online
                             10   1-17  	bool	hlt,040000	this error stops device
                             11   1-18  	bool	eurc_nobk,020000	ignore bk if eurc connection
                             12   1-19
                             13   1-20  &1_status_table_:
                             14   1-21
                             15   1-22  &(2&=&i,0&[	zero	0,0
                             16   1-23  &;	zero	m&x,lm&x
                             17   1-24  	set	lm&x,0
                             18   1-25  &]&)
                             19   1-26
                             20   1-27  &end
                                  1-28
                                  1-29
                                  1-30  	macro	status_entry
                              1   1-31
                              2   1-32  m&1:	aci	"&2",24
                              3   1-33
                              4   1-34  &end
                                  1-35
                                  1-36
                                  1-37  	macro	substat_entry
                              1   1-38  	set	lm&1,lm&1+1
                              2   1-39  	aci	"&2",6
                              3   1-40  	vfd	o18/&3
                              4   1-41  	aci	"&4",32
                              5   1-42
                              6   1-43  &end
                                  1-44
                                  1-45
                                    39
                        000001      40  	bool	paper_low,000001
                        000002      41  	bool	train_image,000002
                        000004      42  	bool	vfc_image,000004
                        000010      43  	bool	slew_error,000010
                        000020      44  	bool	power_fault,000020
                                    45
                                    46  " 
                                    47
                                    48  	status_table	prt,(1,1,1,1,0,1,0,0,0,0,1,1,0,1,0,0)

    000000                              	name	prt_status_table_

                        000000          	segdef	prt_status_table_


                        400000          	bool	bk,400000		retry previous operation
                        200000          	bool	in,200000		set backup flag if status.initiate
                        100000          	bool	rp,100000		report this error online
                        040000          	bool	hlt,040000	this error stops device
                        020000          	bool	eurc_nobk,020000	ignore bk if eurc connection

    000000                              prt_status_table_:

    000000  0a   000020 000010          	zero	m1,lm1
                        000000          	set	lm1,0
    000001  0a   000156 000000          	zero	m2,lm2
                        000000          	set	lm2,0
    000002  0a   000164 000007          	zero	m3,lm3
                        000000          	set	lm3,0
    000003  0a   000307 000007          	zero	m4,lm4
                        000000          	set	lm4,0
    000004  aa   000000 000000          	zero	0,0
    000005  0a   000432 000007          	zero	m6,lm6
                        000000          	set	lm6,0
    000006  aa   000000 000000          	zero	0,0
    000007  aa   000000 000000          	zero	0,0
    000010  aa   000000 000000          	zero	0,0
    000011  aa   000000 000000          	zero	0,0
    000012  0a   000555 000003          	zero	m11,lm11
                        000000          	set	lm11,0
    000013  0a   000624 000004          	zero	m12,lm12
                        000000          	set	lm12,0
    000014  aa   000000 000000          	zero	0,0
    000015  0a   000706 000003          	zero	m14,lm14
                        000000          	set	lm14,0
    000016  aa   000000 000000          	zero	0,0
    000017  aa   000000 000000          	zero	0,0


                                    49
                                    50  " 
                                    51
                                    52  	status_entry	1,(Ready)

    000020  aa  122 145 141 144         m1:	aci	"Ready",24
    000021  aa  171 040 040 040
    000022  aa  040 040 040 040
    000023  aa  040 040 040 040
    000024  aa  040 040 040 040
    000025  aa  040 040 040 040

                                    53
                                    54  	substat_entry	1,000000,,(Normal)
                        000001          	set	lm1,lm1+1
    000026  aa  060 060 060 060         	aci	"000000",6
    000027  aa  060 060 000 000
    000030  aa   000000 000000          	vfd	o18/
    000031  aa  116 157 162 155         	aci	"Normal",32
    000032  aa  141 154 040 040
    000033  aa  040 040 040 040
    000034  aa  040 040 040 040
    000035  aa  040 040 040 040
    000036  aa  040 040 040 040
    000037  aa  040 040 040 040
    000040  aa  040 040 040 040

                                    55  	substat_entry	1,000001,,(Print one line)
                        000002          	set	lm1,lm1+1
    000041  aa  060 060 060 060         	aci	"000001",6
    000042  aa  060 061 000 000
    000043  aa   000000 000000          	vfd	o18/
    000044  aa  120 162 151 156         	aci	"Print one line",32
    000045  aa  164 040 157 156
    000046  aa  145 040 154 151
    000047  aa  156 145 040 040
    000050  aa  040 040 040 040
    000051  aa  040 040 040 040
    000052  aa  040 040 040 040
    000053  aa  040 040 040 040

                                    56  	substat_entry	1,000010,,(Forward space)
                        000003          	set	lm1,lm1+1
    000054  aa  060 060 060 060         	aci	"000010",6
    000055  aa  061 060 000 000
    000056  aa   000000 000000          	vfd	o18/
    000057  aa  106 157 162 167         	aci	"Forward space",32
    000060  aa  141 162 144 040
    000061  aa  163 160 141 143
    000062  aa  145 040 040 040
    000063  aa  040 040 040 040
    000064  aa  040 040 040 040
    000065  aa  040 040 040 040
    000066  aa  040 040 040 040

                                    57  	substat_entry	1,000011,,(Forward to top)
                        000004          	set	lm1,lm1+1
    000067  aa  060 060 060 060         	aci	"000011",6
    000070  aa  061 061 000 000
    000071  aa   000000 000000          	vfd	o18/
    000072  aa  106 157 162 167         	aci	"Forward to top",32
    000073  aa  141 162 144 040
    000074  aa  164 157 040 164
    000075  aa  157 160 040 040
    000076  aa  040 040 040 040
    000077  aa  040 040 040 040
    000100  aa  040 040 040 040
    000101  aa  040 040 040 040

                                    58  	substat_entry	1,000100,,(Invalid line)
                        000005          	set	lm1,lm1+1
    000102  aa  060 060 060 061         	aci	"000100",6
    000103  aa  060 060 000 000
    000104  aa   000000 000000          	vfd	o18/
    000105  aa  111 156 166 141         	aci	"Invalid line",32
    000106  aa  154 151 144 040
    000107  aa  154 151 156 145
    000110  aa  040 040 040 040
    000111  aa  040 040 040 040
    000112  aa  040 040 040 040
    000113  aa  040 040 040 040
    000114  aa  040 040 040 040

                                    59  	substat_entry	1,000101,,(Reverse rewind)
                        000006          	set	lm1,lm1+1
    000115  aa  060 060 060 061         	aci	"000101",6
    000116  aa  060 061 000 000
    000117  aa   000000 000000          	vfd	o18/
    000120  aa  122 145 166 145         	aci	"Reverse rewind",32
    000121  aa  162 163 145 040
    000122  aa  162 145 167 151
    000123  aa  156 144 040 040
    000124  aa  040 040 040 040
    000125  aa  040 040 040 040
    000126  aa  040 040 040 040
    000127  aa  040 040 040 040

                                    60  	substat_entry	1,000110,,(Backspace)
                        000007          	set	lm1,lm1+1
    000130  aa  060 060 060 061         	aci	"000110",6
    000131  aa  061 060 000 000
    000132  aa   000000 000000          	vfd	o18/
    000133  aa  102 141 143 153         	aci	"Backspace",32
    000134  aa  163 160 141 143
    000135  aa  145 040 040 040
    000136  aa  040 040 040 040
    000137  aa  040 040 040 040
    000140  aa  040 040 040 040
    000141  aa  040 040 040 040
    000142  aa  040 040 040 040

                                    61  	substat_entry	1,000111,,(Backspace top)
                        000010          	set	lm1,lm1+1
    000143  aa  060 060 060 061         	aci	"000111",6
    000144  aa  061 061 000 000
    000145  aa   000000 000000          	vfd	o18/
    000146  aa  102 141 143 153         	aci	"Backspace top",32
    000147  aa  163 160 141 143
    000150  aa  145 040 164 157
    000151  aa  160 040 040 040
    000152  aa  040 040 040 040
    000153  aa  040 040 040 040
    000154  aa  040 040 040 040
    000155  aa  040 040 040 040

                                    62
                                    63  " 
                                    64
                                    65  	status_entry	2,(Device Busy)

    000156  aa  104 145 166 151         m2:	aci	"Device Busy",24
    000157  aa  143 145 040 102
    000160  aa  165 163 171 040
    000161  aa  040 040 040 040
    000162  aa  040 040 040 040
    000163  aa  040 040 040 040

                                    66
                                    67  " 
                                    68
                                    69  	status_entry	3,(Device Attention)

    000164  aa  104 145 166 151         m3:	aci	"Device Attention",24
    000165  aa  143 145 040 101
    000166  aa  164 164 145 156
    000167  aa  164 151 157 156
    000170  aa  040 040 040 040
    000171  aa  040 040 040 040

                                    70
                                    71  	substat_entry	3,000000,bk+rp+hlt+power_fault,(Power fault)
                        000001          	set	lm3,lm3+1
    000172  aa  060 060 060 060         	aci	"000000",6
    000173  aa  060 060 000 000
    000174  aa   540020 000000          	vfd	o18/bk+rp+hlt+power_fault
    000175  aa  120 157 167 145         	aci	"Power fault",32
    000176  aa  162 040 146 141
    000177  aa  165 154 164 040
    000200  aa  040 040 040 040
    000201  aa  040 040 040 040
    000202  aa  040 040 040 040
    000203  aa  040 040 040 040
    000204  aa  040 040 040 040

                                    72  	substat_entry	3,00XXX1,bk+rp+hlt,(Stacker alert or out of paper)
                        000002          	set	lm3,lm3+1
    000205  aa  060 060 130 130         	aci	"00XXX1",6
    000206  aa  130 061 000 000
    000207  aa   540000 000000          	vfd	o18/bk+rp+hlt
    000210  aa  123 164 141 143         	aci	"Stacker alert or out of paper",32
    000211  aa  153 145 162 040
    000212  aa  141 154 145 162
    000213  aa  164 040 157 162
    000214  aa  040 157 165 164
    000215  aa  040 157 146 040
    000216  aa  160 141 160 145
    000217  aa  162 040 040 040

                                    73  	substat_entry	3,XXXX1X,in+rp+hlt,(Manual halt)
                        000003          	set	lm3,lm3+1
    000220  aa  130 130 130 130         	aci	"XXXX1X",6
    000221  aa  061 130 000 000
    000222  aa   340000 000000          	vfd	o18/in+rp+hlt
    000223  aa  115 141 156 165         	aci	"Manual halt",32
    000224  aa  141 154 040 150
    000225  aa  141 154 164 040
    000226  aa  040 040 040 040
    000227  aa  040 040 040 040
    000230  aa  040 040 040 040
    000231  aa  040 040 040 040
    000232  aa  040 040 040 040

                                    74  	substat_entry	3,XXX1XX,in+rp+hlt,(VFU alert)
                        000004          	set	lm3,lm3+1
    000233  aa  130 130 130 061         	aci	"XXX1XX",6
    000234  aa  130 130 000 000
    000235  aa   340000 000000          	vfd	o18/in+rp+hlt
    000236  aa  126 106 125 040         	aci	"VFU alert",32
    000237  aa  141 154 145 162
    000240  aa  164 040 040 040
    000241  aa  040 040 040 040
    000242  aa  040 040 040 040
    000243  aa  040 040 040 040
    000244  aa  040 040 040 040
    000245  aa  040 040 040 040

                                    75  	substat_entry	3,XX1XXX,in+rp+hlt,(Check alert)
                        000005          	set	lm3,lm3+1
    000246  aa  130 130 061 130         	aci	"XX1XXX",6
    000247  aa  130 130 000 000
    000250  aa   340000 000000          	vfd	o18/in+rp+hlt
    000251  aa  103 150 145 143         	aci	"Check alert",32
    000252  aa  153 040 141 154
    000253  aa  145 162 164 040
    000254  aa  040 040 040 040
    000255  aa  040 040 040 040
    000256  aa  040 040 040 040
    000257  aa  040 040 040 040
    000260  aa  040 040 040 040

                                    76  	substat_entry	3,X1XXXX,in+rp+hlt+power_fault,(Power fault)
                        000006          	set	lm3,lm3+1
    000261  aa  130 061 130 130         	aci	"X1XXXX",6
    000262  aa  130 130 000 000
    000263  aa   340020 000000          	vfd	o18/in+rp+hlt+power_fault
    000264  aa  120 157 167 145         	aci	"Power fault",32
    000265  aa  162 040 146 141
    000266  aa  165 154 164 040
    000267  aa  040 040 040 040
    000270  aa  040 040 040 040
    000271  aa  040 040 040 040
    000272  aa  040 040 040 040
    000273  aa  040 040 040 040

                                    77  	substat_entry	3,1XXXXX,in+rp+hlt,(Feed failure)
                        000007          	set	lm3,lm3+1
    000274  aa  061 130 130 130         	aci	"1XXXXX",6
    000275  aa  130 130 000 000
    000276  aa   340000 000000          	vfd	o18/in+rp+hlt
    000277  aa  106 145 145 144         	aci	"Feed failure",32
    000300  aa  040 146 141 151
    000301  aa  154 165 162 145
    000302  aa  040 040 040 040
    000303  aa  040 040 040 040
    000304  aa  040 040 040 040
    000305  aa  040 040 040 040
    000306  aa  040 040 040 040

                                    78
                                    79  " 
                                    80
                                    81  	status_entry	4,(Device Data Alert)

    000307  aa  104 145 166 151         m4:	aci	"Device Data Alert",24
    000310  aa  143 145 040 104
    000311  aa  141 164 141 040
    000312  aa  101 154 145 162
    000313  aa  164 040 040 040
    000314  aa  040 040 040 040

                                    82
                                    83  	substat_entry	4,000000,bk+rp+train_image,(Invalid character code)
                        000001          	set	lm4,lm4+1
    000315  aa  060 060 060 060         	aci	"000000",6
    000316  aa  060 060 000 000
    000317  aa   500002 000000          	vfd	o18/bk+rp+train_image
    000320  aa  111 156 166 141         	aci	"Invalid character code",32
    000321  aa  154 151 144 040
    000322  aa  143 150 141 162
    000323  aa  141 143 164 145
    000324  aa  162 040 143 157
    000325  aa  144 145 040 040
    000326  aa  040 040 040 040
    000327  aa  040 040 040 040

                                    84  	substat_entry	4,XXX0X1,bk+rp,(Transfer timing alert)
                        000002          	set	lm4,lm4+1
    000330  aa  130 130 130 060         	aci	"XXX0X1",6
    000331  aa  130 061 000 000
    000332  aa   500000 000000          	vfd	o18/bk+rp
    000333  aa  124 162 141 156         	aci	"Transfer timing alert",32
    000334  aa  163 146 145 162
    000335  aa  040 164 151 155
    000336  aa  151 156 147 040
    000337  aa  141 154 145 162
    000340  aa  164 040 040 040
    000341  aa  040 040 040 040
    000342  aa  040 040 040 040

                                    85  	substat_entry	4,XX1XXX,paper_low,(Paper low)
                        000003          	set	lm4,lm4+1
    000343  aa  130 130 061 130         	aci	"XX1XXX",6
    000344  aa  130 130 000 000
    000345  aa   000001 000000          	vfd	o18/paper_low
    000346  aa  120 141 160 145         	aci	"Paper low",32
    000347  aa  162 040 154 157
    000350  aa  167 040 040 040
    000351  aa  040 040 040 040
    000352  aa  040 040 040 040
    000353  aa  040 040 040 040
    000354  aa  040 040 040 040
    000355  aa  040 040 040 040

                                    86  	substat_entry	4,X1XXXX,bk+rp+hlt+slew_error,(Paper motion alert)
                        000004          	set	lm4,lm4+1
    000356  aa  130 061 130 130         	aci	"X1XXXX",6
    000357  aa  130 130 000 000
    000360  aa   540010 000000          	vfd	o18/bk+rp+hlt+slew_error
    000361  aa  120 141 160 145         	aci	"Paper motion alert",32
    000362  aa  162 040 155 157
    000363  aa  164 151 157 156
    000364  aa  040 141 154 145
    000365  aa  162 164 040 040
    000366  aa  040 040 040 040
    000367  aa  040 040 040 040
    000370  aa  040 040 040 040

                                    87  	substat_entry	4,1XXXXX,bk,(Top page echo)
                        000005          	set	lm4,lm4+1
    000371  aa  061 130 130 130         	aci	"1XXXXX",6
    000372  aa  130 130 000 000
    000373  aa   400000 000000          	vfd	o18/bk
    000374  aa  124 157 160 040         	aci	"Top page echo",32
    000375  aa  160 141 147 145
    000376  aa  040 145 143 150
    000377  aa  157 040 040 040
    000400  aa  040 040 040 040
    000401  aa  040 040 040 040
    000402  aa  040 040 040 040
    000403  aa  040 040 040 040

                                    88  	substat_entry	4,0XX01X,bk+rp+hlt,(Alert before printing started)
                        000006          	set	lm4,lm4+1
    000404  aa  060 130 130 060         	aci	"0XX01X",6
    000405  aa  061 130 000 000
    000406  aa   540000 000000          	vfd	o18/bk+rp+hlt
    000407  aa  101 154 145 162         	aci	"Alert before printing started",32
    000410  aa  164 040 142 145
    000411  aa  146 157 162 145
    000412  aa  040 160 162 151
    000413  aa  156 164 151 156
    000414  aa  147 040 163 164
    000415  aa  141 162 164 145
    000416  aa  144 040 040 040

                                    89  	substat_entry	4,XXX10X,bk+rp+hlt,(Alert after printing started)
                        000007          	set	lm4,lm4+1
    000417  aa  130 130 130 061         	aci	"XXX10X",6
    000420  aa  060 130 000 000
    000421  aa   540000 000000          	vfd	o18/bk+rp+hlt
    000422  aa  101 154 145 162         	aci	"Alert after printing started",32
    000423  aa  164 040 141 146
    000424  aa  164 145 162 040
    000425  aa  160 162 151 156
    000426  aa  164 151 156 147
    000427  aa  040 163 164 141
    000430  aa  162 164 145 144
    000431  aa  040 040 040 040

                                    90
                                    91  " 
                                    92
                                    93  	status_entry	6,(Command Reject)

    000432  aa  103 157 155 155         m6:	aci	"Command Reject",24
    000433  aa  141 156 144 040
    000434  aa  122 145 152 145
    000435  aa  143 164 040 040
    000436  aa  040 040 040 040
    000437  aa  040 040 040 040

                                    94
                                    95  	substat_entry	6,000000,bk+rp+vfc_image,(No VFC image loaded)
                        000001          	set	lm6,lm6+1
    000440  aa  060 060 060 060         	aci	"000000",6
    000441  aa  060 060 000 000
    000442  aa   500004 000000          	vfd	o18/bk+rp+vfc_image
    000443  aa  116 157 040 126         	aci	"No VFC image loaded",32
    000444  aa  106 103 040 151
    000445  aa  155 141 147 145
    000446  aa  040 154 157 141
    000447  aa  144 145 144 040
    000450  aa  040 040 040 040
    000451  aa  040 040 040 040
    000452  aa  040 040 040 040

                                    96  	substat_entry	6,XX0XX1,bk+rp+hlt,(Invalid command)
                        000002          	set	lm6,lm6+1
    000453  aa  130 130 060 130         	aci	"XX0XX1",6
    000454  aa  130 061 000 000
    000455  aa   540000 000000          	vfd	o18/bk+rp+hlt
    000456  aa  111 156 166 141         	aci	"Invalid command",32
    000457  aa  154 151 144 040
    000460  aa  143 157 155 155
    000461  aa  141 156 144 040
    000462  aa  040 040 040 040
    000463  aa  040 040 040 040
    000464  aa  040 040 040 040
    000465  aa  040 040 040 040

                                    97  	substat_entry	6,XX0X1X,bk+rp+hlt,(Invalid device code)
                        000003          	set	lm6,lm6+1
    000466  aa  130 130 060 130         	aci	"XX0X1X",6
    000467  aa  061 130 000 000
    000470  aa   540000 000000          	vfd	o18/bk+rp+hlt
    000471  aa  111 156 166 141         	aci	"Invalid device code",32
    000472  aa  154 151 144 040
    000473  aa  144 145 166 151
    000474  aa  143 145 040 143
    000475  aa  157 144 145 040
    000476  aa  040 040 040 040
    000477  aa  040 040 040 040
    000500  aa  040 040 040 040

                                    98  	substat_entry	6,XX01XX,bk+rp,(IDCW parity error)
                        000004          	set	lm6,lm6+1
    000501  aa  130 130 060 061         	aci	"XX01XX",6
    000502  aa  130 130 000 000
    000503  aa   500000 000000          	vfd	o18/bk+rp
    000504  aa  111 104 103 127         	aci	"IDCW parity error",32
    000505  aa  040 160 141 162
    000506  aa  151 164 171 040
    000507  aa  145 162 162 157
    000510  aa  162 040 040 040
    000511  aa  040 040 040 040
    000512  aa  040 040 040 040
    000513  aa  040 040 040 040

                                    99  	substat_entry	6,XX1XXX,bk+rp+train_image,(No train image loaded)
                        000005          	set	lm6,lm6+1
    000514  aa  130 130 061 130         	aci	"XX1XXX",6
    000515  aa  130 130 000 000
    000516  aa   500002 000000          	vfd	o18/bk+rp+train_image
    000517  aa  116 157 040 164         	aci	"No train image loaded",32
    000520  aa  162 141 151 156
    000521  aa  040 151 155 141
    000522  aa  147 145 040 154
    000523  aa  157 141 144 145
    000524  aa  144 040 040 040
    000525  aa  040 040 040 040
    000526  aa  040 040 040 040

                                   100  	substat_entry	6,X10XXX,bk+rp+hlt,(Slew error after last operation)
                        000006          	set	lm6,lm6+1
    000527  aa  130 061 060 130         	aci	"X10XXX",6
    000530  aa  130 130 000 000
    000531  aa   540000 000000          	vfd	o18/bk+rp+hlt
    000532  aa  123 154 145 167         	aci	"Slew error after last operation",32
    000533  aa  040 145 162 162
    000534  aa  157 162 040 141
    000535  aa  146 164 145 162
    000536  aa  040 154 141 163
    000537  aa  164 040 157 160
    000540  aa  145 162 141 164
    000541  aa  151 157 156 040

                                   101  	substat_entry	6,1X0XXX,bk,(Top page echo on last slew)
                        000007          	set	lm6,lm6+1
    000542  aa  061 130 060 130         	aci	"1X0XXX",6
    000543  aa  130 130 000 000
    000544  aa   400000 000000          	vfd	o18/bk
    000545  aa  124 157 160 040         	aci	"Top page echo on last slew",32
    000546  aa  160 141 147 145
    000547  aa  040 145 143 150
    000550  aa  157 040 157 156
    000551  aa  040 154 141 163
    000552  aa  164 040 163 154
    000553  aa  145 167 040 040
    000554  aa  040 040 040 040

                                   102
                                   103  " 
                                   104
                                   105  	status_entry	11,(MPC Attention)

    000555  aa  115 120 103 040         m11:	aci	"MPC Attention",24
    000556  aa  101 164 164 145
    000557  aa  156 164 151 157
    000560  aa  156 040 040 040
    000561  aa  040 040 040 040
    000562  aa  040 040 040 040

                                   106
                                   107  	substat_entry	11,000001,in+rp+hlt,(IAI error)
                        000001          	set	lm11,lm11+1
    000563  aa  060 060 060 060         	aci	"000001",6
    000564  aa  060 061 000 000
    000565  aa   340000 000000          	vfd	o18/in+rp+hlt
    000566  aa  111 101 111 040         	aci	"IAI error",32
    000567  aa  145 162 162 157
    000570  aa  162 040 040 040
    000571  aa  040 040 040 040
    000572  aa  040 040 040 040
    000573  aa  040 040 040 040
    000574  aa  040 040 040 040
    000575  aa  040 040 040 040

                                   108  	substat_entry	11,000010,in+rp+hlt,(DAI error)
                        000002          	set	lm11,lm11+1
    000576  aa  060 060 060 060         	aci	"000010",6
    000577  aa  061 060 000 000
    000600  aa   340000 000000          	vfd	o18/in+rp+hlt
    000601  aa  104 101 111 040         	aci	"DAI error",32
    000602  aa  145 162 162 157
    000603  aa  162 040 040 040
    000604  aa  040 040 040 040
    000605  aa  040 040 040 040
    000606  aa  040 040 040 040
    000607  aa  040 040 040 040
    000610  aa  040 040 040 040

                                   109  	substat_entry	11,000100,in+rp+hlt,(DA Transfer error)
                        000003          	set	lm11,lm11+1
    000611  aa  060 060 060 061         	aci	"000100",6
    000612  aa  060 060 000 000
    000613  aa   340000 000000          	vfd	o18/in+rp+hlt
    000614  aa  104 101 040 124         	aci	"DA Transfer error",32
    000615  aa  162 141 156 163
    000616  aa  146 145 162 040
    000617  aa  145 162 162 157
    000620  aa  162 040 040 040
    000621  aa  040 040 040 040
    000622  aa  040 040 040 040
    000623  aa  040 040 040 040

                                   110
                                   111  " 
                                   112
                                   113  	status_entry	12,(MPC Data Alert)

    000624  aa  115 120 103 040         m12:	aci	"MPC Data Alert",24
    000625  aa  104 141 164 141
    000626  aa  040 101 154 145
    000627  aa  162 164 040 040
    000630  aa  040 040 040 040
    000631  aa  040 040 040 040

                                   114
                                   115  	substat_entry	12,000001,bk+rp,(Transmission parity error)
                        000001          	set	lm12,lm12+1
    000632  aa  060 060 060 060         	aci	"000001",6
    000633  aa  060 061 000 000
    000634  aa   500000 000000          	vfd	o18/bk+rp
    000635  aa  124 162 141 156         	aci	"Transmission parity error",32
    000636  aa  163 155 151 163
    000637  aa  163 151 157 156
    000640  aa  040 160 141 162
    000641  aa  151 164 171 040
    000642  aa  145 162 162 157
    000643  aa  162 040 040 040
    000644  aa  040 040 040 040

                                   116  	substat_entry	12,000011,bk+rp+hlt,(Sum check error)
                        000002          	set	lm12,lm12+1
    000645  aa  060 060 060 060         	aci	"000011",6
    000646  aa  061 061 000 000
    000647  aa   540000 000000          	vfd	o18/bk+rp+hlt
    000650  aa  123 165 155 040         	aci	"Sum check error",32
    000651  aa  143 150 145 143
    000652  aa  153 040 145 162
    000653  aa  162 157 162 040
    000654  aa  040 040 040 040
    000655  aa  040 040 040 040
    000656  aa  040 040 040 040
    000657  aa  040 040 040 040

                                   117  	substat_entry	12,000101,bk+rp+hlt,(DAI error)
                        000003          	set	lm12,lm12+1
    000660  aa  060 060 060 061         	aci	"000101",6
    000661  aa  060 061 000 000
    000662  aa   540000 000000          	vfd	o18/bk+rp+hlt
    000663  aa  104 101 111 040         	aci	"DAI error",32
    000664  aa  145 162 162 157
    000665  aa  162 040 040 040
    000666  aa  040 040 040 040
    000667  aa  040 040 040 040
    000670  aa  040 040 040 040
    000671  aa  040 040 040 040
    000672  aa  040 040 040 040

                                   118  	substat_entry	12,000110,rp+hlt,(PSI data overflow)
                        000004          	set	lm12,lm12+1
    000673  aa  060 060 060 061         	aci	"000110",6
    000674  aa  061 060 000 000
    000675  aa   140000 000000          	vfd	o18/rp+hlt
    000676  aa  120 123 111 040         	aci	"PSI data overflow",32
    000677  aa  144 141 164 141
    000700  aa  040 157 166 145
    000701  aa  162 146 154 157
    000702  aa  167 040 040 040
    000703  aa  040 040 040 040
    000704  aa  040 040 040 040
    000705  aa  040 040 040 040

                                   119
                                   120  " 
                                   121
                                   122  	status_entry	14,(MPC Command Reject)

    000706  aa  115 120 103 040         m14:	aci	"MPC Command Reject",24
    000707  aa  103 157 155 155
    000710  aa  141 156 144 040
    000711  aa  122 145 152 145
    000712  aa  143 164 040 040
    000713  aa  040 040 040 040

                                   123
                                   124  	substat_entry	14,000001,bk+rp+hlt,(Illegal procedure)
                        000001          	set	lm14,lm14+1
    000714  aa  060 060 060 060         	aci	"000001",6
    000715  aa  060 061 000 000
    000716  aa   540000 000000          	vfd	o18/bk+rp+hlt
    000717  aa  111 154 154 145         	aci	"Illegal procedure",32
    000720  aa  147 141 154 040
    000721  aa  160 162 157 143
    000722  aa  145 144 165 162
    000723  aa  145 040 040 040
    000724  aa  040 040 040 040
    000725  aa  040 040 040 040
    000726  aa  040 040 040 040

                                   125  	substat_entry	14,000010,bk+rp+hlt,(Illegal logical channel)
                        000002          	set	lm14,lm14+1
    000727  aa  060 060 060 060         	aci	"000010",6
    000730  aa  061 060 000 000
    000731  aa   540000 000000          	vfd	o18/bk+rp+hlt
    000732  aa  111 154 154 145         	aci	"Illegal logical channel",32
    000733  aa  147 141 154 040
    000734  aa  154 157 147 151
    000735  aa  143 141 154 040
    000736  aa  143 150 141 156
    000737  aa  156 145 154 040
    000740  aa  040 040 040 040
    000741  aa  040 040 040 040

                                   126  	substat_entry	14,001000,bk+rp+hlt,(Device reserved)
                        000003          	set	lm14,lm14+1
    000742  aa  060 060 061 060         	aci	"001000",6
    000743  aa  060 060 000 000
    000744  aa   540000 000000          	vfd	o18/bk+rp+hlt
    000745  aa  104 145 166 151         	aci	"Device reserved",32
    000746  aa  143 145 040 162
    000747  aa  145 163 145 162
    000750  aa  166 145 144 040
    000751  aa  040 040 040 040
    000752  aa  040 040 040 040
    000753  aa  040 040 040 040
    000754  aa  040 040 040 040

                                   127
                                   128  	end

NO LITERALS

NAME DEFINITIONS FOR ENTRY POINTS AND SEGDEFS

    000756  5a   000003 000000
    000757  5a   000032 600000
    000760  aa   000000 000000
    000761  55   000013 000002
    000762  5a   000002 400003
    000763  55   000006 000013
    000764  aa  021 160 162 164
    000765  aa  137 163 164 141
    000766  aa  164 165 163 137
    000767  aa  164 141 142 154
    000770  aa  145 137 000 000
    000771  55   000023 000003
    000772  0a   000000 400000
    000773  55   000016 000003
    000774  aa  021 160 162 164         prt_status_table_
    000775  aa  137 163 164 141
    000776  aa  164 165 163 137
    000777  aa  164 141 142 154
    001000  aa  145 137 000 000
    001001  55   000002 000013
    001002  6a   000000 400002
    001003  55   000026 000003
    001004  aa  014 163 171 155         symbol_table
    001005  aa  142 157 154 137
    001006  aa  164 141 142 154
    001007  aa  145 000 000 000

DEFINITIONS HASH TABLE

    001010  aa   000000 000015
    001011  aa   000000 000000
    001012  aa   000000 000000
    001013  aa   000000 000000
    001014  aa   000000 000000
    001015  aa   000000 000000
    001016  aa   000000 000000
    001017  5a   000023 000000
    001020  aa   000000 000000
    001021  5a   000013 000000
    001022  aa   000000 000000
    001023  aa   000000 000000
    001024  aa   000000 000000
    001025  aa   000000 000000

NO EXTERNAL NAMES

NO TRAP POINTER WORDS

TYPE PAIR BLOCKS

    001026  aa   000001 000000
    001027  aa   000000 000000

INTERNAL EXPRESSION WORDS

LINKAGE INFORMATION

    000000  aa   000000 000000
    000001  0a   000756 000000
    000002  aa   000000 000000
    000003  aa   000000 000000
    000004  aa   000000 000000
    000005  aa   000000 000000
    000006  22   000010 000010
    000007  a2   000000 000000
SYMBOL INFORMATION

SYMBOL TABLE HEADER

    000000  aa   000000 000001
    000001  aa   163171 155142
    000002  aa   164162 145145
    000003  aa   000000 000004
    000004  aa   000000 112143
    000005  aa   305203 523135
    000006  aa   000000 112232
    000007  aa   476410 203757
    000010  aa   141154 155040
    000011  aa   040040 040040
    000012  aa   000024 000040
    000013  aa   000034 000040
    000014  aa   000044 000100
    000015  aa   000002 000002
    000016  aa   000064 000000
    000017  aa   000000 000175
    000020  aa   000000 000124
    000021  aa   000000 000163
    000022  aa   000166 000124
    000023  aa   000064 000000
    000024  aa   101114 115040
    000025  aa   126145 162163
    000026  aa   151157 156040
    000027  aa   040066 056066
    000030  aa   040040 116157
    000031  aa   166145 155142
    000032  aa   145162 040061
    000033  aa   071070 062040
    000034  aa   107112 157150
    000035  aa   156163 157156
    000036  aa   056123 171163
    000037  aa   115141 151156
    000040  aa   164056 141040
    000041  aa   040040 040040
    000042  aa   040040 040040
    000043  aa   040040 040040
    000044  aa   154151 163164
    000045  aa   040040 040040
    000046  aa   040040 040040
    000047  aa   040040 040040
    000050  aa   040040 040040
    000051  aa   040040 040040
    000052  aa   040040 040040
    000053  aa   040040 040040
    000054  aa   040040 040040
    000055  aa   040040 040040
    000056  aa   040040 040040
    000057  aa   040040 040040
    000060  aa   040040 040040
    000061  aa   040040 040040
    000062  aa   040040 040040
    000063  aa   040040 040040
    000064  aa   000000 000001
    000065  aa   000000 000002
    000066  aa   000076 000062
    000067  aa   122307 177046
    000070  aa   000000 112232
    000071  aa   474226 400000
    000072  aa   000113 000042
    000073  aa   121250 237367
    000074  aa   000000 112131
    000075  aa   265211 400000
    000076  aa   076163 160145          >special_ldd>on>11/04/83-pbf>prt_status_table_.alm
    000077  aa   143151 141154
    000100  aa   137154 144144
    000101  aa   076157 156076
    000102  aa   061061 057060
    000103  aa   064057 070063
    000104  aa   055160 142146
    000105  aa   076160 162164
    000106  aa   137163 164141
    000107  aa   164165 163137
    000110  aa   164141 142154
    000111  aa   145137 056141
    000112  aa   154155 040040
    000113  aa   076154 144144          >ldd>include>status_table.incl.alm
    000114  aa   076151 156143
    000115  aa   154165 144145
    000116  aa   076163 164141
    000117  aa   164165 163137
    000120  aa   164141 142154
    000121  aa   145056 151156
    000122  aa   143154 056141
    000123  aa   154155 040040
               MULTICS ASSEMBLY CROSS REFERENCE LISTING

   Value        Symbol                   Source file   Line number

      400000    bk                       prt_status_table_:   48,   71,   72,   83,   84,   86,   87,   88,   89,   95,   96,
                                                              97,   98,   99,  100,  101,  115,  116,  117,  124,  125,  126.
       20000    eurc_nobk                prt_status_table_:   48.
       40000    hlt                      prt_status_table_:   48,   71,   72,   73,   74,   75,   76,   77,   86,   88,   89,
                                                              96,   97,  100,  107,  108,  109,  116,  117,  118,  124,  125,  126.
      200000    in                       prt_status_table_:   48,   73,   74,   75,   76,   77,  107,  108,  109.
          10    lm1                      prt_status_table_:   48,   54,   55,   56,   57,   58,   59,   60,   61.
           3    lm11                     prt_status_table_:   48,  107,  108,  109.
           4    lm12                     prt_status_table_:   48,  115,  116,  117,  118.
           3    lm14                     prt_status_table_:   48,  124,  125,  126.
           0    lm2                      prt_status_table_:   48.
           7    lm3                      prt_status_table_:   48,   71,   72,   73,   74,   75,   76,   77.
           7    lm4                      prt_status_table_:   48,   83,   84,   85,   86,   87,   88,   89.
           7    lm6                      prt_status_table_:   48,   95,   96,   97,   98,   99,  100,  101.
          20    m1                       prt_status_table_:   48,   52.
         555    m11                      prt_status_table_:   48,  105.
         624    m12                      prt_status_table_:   48,  113.
         706    m14                      prt_status_table_:   48,  122.
         156    m2                       prt_status_table_:   48,   65.
         164    m3                       prt_status_table_:   48,   69.
         307    m4                       prt_status_table_:   48,   81.
         432    m6                       prt_status_table_:   48,   93.
           1    paper_low                prt_status_table_:   40,   85.
          20    power_fault              prt_status_table_:   44,   71,   76.
           0    prt_status_table_        prt_status_table_:   48.
      100000    rp                       prt_status_table_:   48,   71,   72,   73,   74,   75,   76,   77,   83,   84,   86,
                                                              88,   89,   95,   96,   97,   98,   99,  100,  107,  108,  109,
                                                             115,  116,  117,  118,  124,  125,  126.
          10    slew_error               prt_status_table_:   43,   86.
           2    train_image              prt_status_table_:   41,   83,   99.
           4    vfc_image                prt_status_table_:   42,   95.


NO FATAL ERRORS


                                          -----------------------------------------------------------


Historical Background

This edition of the Multics software materials and documentation is provided and donated
to Massachusetts Institute of Technology by Group BULL including BULL HN Information Systems Inc.
as a contribution to computer science knowledge.
This donation is made also to give evidence of the common contributions of Massachusetts Institute of Technology,
Bell Laboratories, General Electric, Honeywell Information Systems Inc., Honeywell BULL Inc., Groupe BULL
and BULL HN Information Systems Inc. to the development of this operating system.
Multics development was initiated by Massachusetts Institute of Technology Project MAC (1963-1970),
renamed the MIT Laboratory for Computer Science and Artificial Intelligence in the mid 1970s, under the leadership
of Professor Fernando Jose Corbato. Users consider that Multics provided the best software architecture
for managing computer hardware properly and for executing programs. Many subsequent operating systems
incorporated Multics principles.
Multics was distributed in 1975 to 2000 by Group Bull in Europe , and in the U.S. by Bull HN Information Systems Inc.,
as successor in interest by change in name only to Honeywell Bull Inc. and Honeywell Information Systems Inc. .

                                          -----------------------------------------------------------

Permission to use, copy, modify, and distribute these programs and their documentation for any purpose and without
fee is hereby granted,provided that the below copyright notice and historical background appear in all copies
and that both the copyright notice and historical background and this permission notice appear in supporting
documentation, and that the names of MIT, HIS, BULL or BULL HN not be used in advertising or publicity pertaining
to distribution of the programs without specific prior written permission.
    Copyright 1972 by Massachusetts Institute of Technology and Honeywell Information Systems Inc.
    Copyright 2006 by BULL HN Information Systems Inc.
    Copyright 2006 by Bull SAS
    All Rights Reserved
