ASSEMBLY LISTING OF SEGMENT >special_ldd>on>11/04/83-pbf>prtdim.alm
ASSEMBLED ON:	11/04/83  1051.5 mst Fri
OPTIONS USED:	list
ASSEMBLED BY:	ALM Version  6.6  November 1982
ASSEMBLER CREATED:	09/21/83  1227.3 mst Wed

                                     1  " ***********************************************************
                                     2  " *                                                         *
                                     3  " * Copyright, (C) Honeywell Information Systems Inc., 1982 *
                                     4  " *                                                         *
                                     5  " * Copyright (c) 1972 by Massachusetts Institute of        *
                                     6  " * Technology and Honeywell Information Systems, Inc.      *
                                     7  " *                                                         *
                                     8  " ***********************************************************
                                     9
                                    10  "	Outer Module Transfer Vector for the prtdim outer module.
                                    11  "
                                    12  " Modified 83-10-20 E. N. Kittlitz for parition of urmpc/eurc support.
                                    13
                        000000      14  	entry	prtdim_module
                        000000      15  	entry	prtdimmodule
    000000                          16  prtdimmodule:
    000000                          17  prtdim_module:
    000000  0a   000001 7100 16     18  	tra		*+1,6		go to proper transfer instruction
                                    19
    000001  4a  4 00010 7101 20     20  	tra	prtdim_attach$prtdim_attach
    000002  4a  4 00012 7101 20     21  	tra	prtdim_attach$prtdim_detach
    000003  4a  4 00014 7101 20     22  	tra	ios_$no_entry	"read
    000004  0a   000026 7100 00     23  	tra	dispatch_write
    000005  4a  4 00014 7101 20     24  	tra	ios_$no_entry	"abort
    000006  4a  4 00016 7101 20     25  	tra	prtdim_order$prtdim_order
    000007  4a  4 00014 7101 20     26  	tra	ios_$no_entry	"resetread
    000010  0a   000034 7100 00     27  	tra	dispatch_resetwrite "resetwrite
    000011  4a  4 00014 7101 20     28  	tra	ios_$no_entry	"setsize
    000012  4a  4 00014 7101 20     29  	tra	ios_$no_entry	"getsize (it's 9 tho)
    000013  4a  4 00014 7101 20     30  	tra	ios_$no_entry
    000014  4a  4 00014 7101 20     31  	tra	ios_$no_entry
    000015  4a  4 00014 7101 20     32  	tra	ios_$no_entry
    000016  4a  4 00014 7101 20     33  	tra	ios_$no_entry
    000017  4a  4 00020 7101 20     34  	tra	prtdim_changemode$prtdim_changemode
    000020  4a  4 00014 7101 20     35  	tra	ios_$no_entry
    000021  4a  4 00014 7101 20     36  	tra	ios_$no_entry
    000022  4a  4 00014 7101 20     37  	tra	ios_$no_entry
    000023  4a  4 00014 7101 20     38  	tra	ios_$no_entry
    000024  4a  4 00014 7101 20     39  	tra	ios_$no_entry
    000025  4a  4 00014 7101 20     40  	tra	ios_$no_entry
                                    41
    000026                          42  dispatch_write:
    000026  aa  0 00002 3521 20     43  	epp2	ap|2,*		"1st argument pointer
    000027  aa  2 00000 3521 20     44  	epp2	pr2|0,*		"sdb pointer
    000030  aa  2 00530 2351 00     45  	lda	pr2|sdb.flags
    000031  aa   200000 3750 03     46  	ana	flags.eurc,du
    000032  4a  4 00022 6001 20     47  	tze	prtdim_write$prtdim_write
    000033  4a  4 00024 7101 20     48  	tra	prtdim_eurc_write$prtdim_eurc_write
                                    49
    000034                          50  dispatch_resetwrite:
    000034  aa  0 00002 3521 20     51  	epp2	ap|2,*		"1st argument pointer
    000035  aa  2 00000 3521 20     52  	epp2	pr2|0,*		"sdb pointer
    000036  aa  2 00530 2351 00     53  	lda	pr2|sdb.flags
    000037  aa   200000 3750 03     54  	ana	flags.eurc,du
    000040  4a  4 00026 6001 20     55  	tze	prtdim_write$prtdim_resetwrite
    000041  4a  4 00030 7101 20     56  	tra	prtdim_eurc_write$prtdim_resetwrite
                                    57
                                    58  	include prt_sdb
                                   1-1  " BEGIN INCLUDE FILE ... prt_sdb.incl.alm
                                   1-2  "
                                   1-3
                        000530     1-4  	equ	sdb.flags,344
                        200000     1-5  	bool	flags.eurc,200000		" DU
                                   1-6
                                   1-7  " END INCLUDE FILE ... prt_sdb.incl.alm
                                    59
                                    60  	end
ENTRY SEQUENCES

    000042  5a   000017 0000 00
    000043  aa  7 00046 2721 20
    000044  0a   000000 7100 00
    000045  5a   000010 0000 00
    000046  aa  7 00046 2721 20
    000047  0a   000000 7100 00

NO LITERALS

NAME DEFINITIONS FOR ENTRY POINTS AND SEGDEFS

    000050  5a   000003 000000
    000051  5a   000035 600000
    000052  aa   000000 000000
    000053  55   000010 000002
    000054  5a   000002 400003
    000055  55   000006 000010
    000056  aa  006 160 162 164
    000057  aa  144 151 155 000
    000060  55   000017 000003
    000061  0a   000046 500000
    000062  55   000013 000003
    000063  aa  014 160 162 164         prtdimmodule
    000064  aa  144 151 155 155
    000065  aa  157 144 165 154
    000066  aa  145 000 000 000
    000067  55   000026 000010
    000070  0a   000043 500000
    000071  55   000022 000003
    000072  aa  015 160 162 164         prtdim_module
    000073  aa  144 151 155 137
    000074  aa  155 157 144 165
    000075  aa  154 145 000 000
    000076  55   000002 000017
    000077  6a   000000 400002
    000100  55   000031 000003
    000101  aa  014 163 171 155         symbol_table
    000102  aa  142 157 154 137
    000103  aa  164 141 142 154
    000104  aa  145 000 000 000

DEFINITIONS HASH TABLE

    000105  aa   000000 000015
    000106  aa   000000 000000
    000107  aa   000000 000000
    000110  5a   000017 000000
    000111  aa   000000 000000
    000112  aa   000000 000000
    000113  aa   000000 000000
    000114  5a   000026 000000
    000115  5a   000010 000000
    000116  aa   000000 000000
    000117  aa   000000 000000
    000120  aa   000000 000000
    000121  aa   000000 000000
    000122  aa   000000 000000

EXTERNAL NAMES

    000123  aa  021 160 162 164         prtdim_resetwrite
    000124  aa  144 151 155 137
    000125  aa  162 145 163 145
    000126  aa  164 167 162 151
    000127  aa  164 145 000 000
    000130  aa  021 160 162 164         prtdim_eurc_write
    000131  aa  144 151 155 137
    000132  aa  145 165 162 143
    000133  aa  137 167 162 151
    000134  aa  164 145 000 000
    000135  aa  014 160 162 164         prtdim_write
    000136  aa  144 151 155 137
    000137  aa  167 162 151 164
    000140  aa  145 000 000 000
    000141  aa  021 160 162 164         prtdim_changemode
    000142  aa  144 151 155 137
    000143  aa  143 150 141 156
    000144  aa  147 145 155 157
    000145  aa  144 145 000 000
    000146  aa  014 160 162 164         prtdim_order
    000147  aa  144 151 155 137
    000150  aa  157 162 144 145
    000151  aa  162 000 000 000
    000152  aa  010 156 157 137         no_entry
    000153  aa  145 156 164 162
    000154  aa  171 000 000 000
    000155  aa  004 151 157 163         ios_
    000156  aa  137 000 000 000
    000157  aa  015 160 162 164         prtdim_detach
    000160  aa  144 151 155 137
    000161  aa  144 145 164 141
    000162  aa  143 150 000 000
    000163  aa  015 160 162 164         prtdim_attach
    000164  aa  144 151 155 137
    000165  aa  141 164 164 141
    000166  aa  143 150 000 000

NO TRAP POINTER WORDS

TYPE PAIR BLOCKS

    000167  aa   000004 000000
    000170  55   000060 000053
    000171  aa   000004 000000
    000172  55   000065 000053
    000173  aa   000004 000000
    000174  55   000060 000060
    000175  aa   000004 000000
    000176  55   000065 000065
    000177  aa   000004 000000
    000200  55   000071 000071
    000201  aa   000004 000000
    000202  55   000076 000076
    000203  aa   000004 000000
    000204  55   000105 000102
    000205  aa   000004 000000
    000206  55   000113 000107
    000207  aa   000004 000000
    000210  55   000113 000113
    000211  aa   000001 000000
    000212  aa   000000 000000

INTERNAL EXPRESSION WORDS

    000213  5a   000117 000000
    000214  5a   000121 000000
    000215  5a   000123 000000
    000216  5a   000125 000000
    000217  5a   000127 000000
    000220  5a   000131 000000
    000221  5a   000133 000000
    000222  5a   000135 000000
    000223  5a   000137 000000
LINKAGE INFORMATION

    000000  aa   000000 000000
    000001  0a   000050 000000
    000002  aa   000000 000000
    000003  aa   000000 000000
    000004  aa   000000 000000
    000005  aa   000000 000000
    000006  22   000010 000032
    000007  a2   000000 000000
    000010  9a   777770 0000 46         prtdim_attach|prtdim_attach
    000011  5a   000153 0000 00
    000012  9a   777766 0000 46         prtdim_attach|prtdim_detach
    000013  5a   000152 0000 00
    000014  9a   777764 0000 46         ios_|no_entry
    000015  5a   000151 0000 00
    000016  9a   777762 0000 46         prtdim_order|prtdim_order
    000017  5a   000150 0000 00
    000020  9a   777760 0000 46         prtdim_changemode|prtdim_changemode
    000021  5a   000147 0000 00
    000022  9a   777756 0000 46         prtdim_write|prtdim_write
    000023  5a   000146 0000 00
    000024  9a   777754 0000 46         prtdim_eurc_write|prtdim_eurc_write
    000025  5a   000145 0000 00
    000026  9a   777752 0000 46         prtdim_write|prtdim_resetwrite
    000027  5a   000144 0000 00
    000030  9a   777750 0000 46         prtdim_eurc_write|prtdim_resetwrite
    000031  5a   000143 0000 00
SYMBOL INFORMATION

SYMBOL TABLE HEADER

    000000  aa   000000 000001
    000001  aa   163171 155142
    000002  aa   164162 145145
    000003  aa   000000 000004
    000004  aa   000000 112143
    000005  aa   305203 523135
    000006  aa   000000 112232
    000007  aa   476441 074663
    000010  aa   141154 155040
    000011  aa   040040 040040
    000012  aa   000024 000040
    000013  aa   000034 000040
    000014  aa   000044 000100
    000015  aa   000002 000002
    000016  aa   000064 000000
    000017  aa   000000 000151
    000020  aa   000000 000124
    000021  aa   000000 000134
    000022  aa   000142 000124
    000023  aa   000064 000000
    000024  aa   101114 115040
    000025  aa   126145 162163
    000026  aa   151157 156040
    000027  aa   040066 056066
    000030  aa   040040 116157
    000031  aa   166145 155142
    000032  aa   145162 040061
    000033  aa   071070 062040
    000034  aa   107112 157150
    000035  aa   156163 157156
    000036  aa   056123 171163
    000037  aa   115141 151156
    000040  aa   164056 141040
    000041  aa   040040 040040
    000042  aa   040040 040040
    000043  aa   040040 040040
    000044  aa   154151 163164
    000045  aa   040040 040040
    000046  aa   040040 040040
    000047  aa   040040 040040
    000050  aa   040040 040040
    000051  aa   040040 040040
    000052  aa   040040 040040
    000053  aa   040040 040040
    000054  aa   040040 040040
    000055  aa   040040 040040
    000056  aa   040040 040040
    000057  aa   040040 040040
    000060  aa   040040 040040
    000061  aa   040040 040040
    000062  aa   040040 040040
    000063  aa   040040 040040
    000064  aa   000000 000001
    000065  aa   000000 000002
    000066  aa   000076 000047
    000067  aa   122307 177047
    000070  aa   000000 112232
    000071  aa   474240 200000
    000072  aa   000110 000055
    000073  aa   122307 177207
    000074  aa   000000 112232
    000075  aa   475347 000000
    000076  aa   076163 160145          >special_ldd>on>11/04/83-pbf>prtdim.alm
    000077  aa   143151 141154
    000100  aa   137154 144144
    000101  aa   076157 156076
    000102  aa   061061 057060
    000103  aa   064057 070063
    000104  aa   055160 142146
    000105  aa   076160 162164
    000106  aa   144151 155056
    000107  aa   141154 155040
    000110  aa   076163 160145          >special_ldd>on>11/04/83-pbf>prt_sdb.incl.alm
    000111  aa   143151 141154
    000112  aa   137154 144144
    000113  aa   076157 156076
    000114  aa   061061 057060
    000115  aa   064057 070063
    000116  aa   055160 142146
    000117  aa   076160 162164
    000120  aa   137163 144142
    000121  aa   056151 156143
    000122  aa   154056 141154
    000123  aa   155040 040040
               MULTICS ASSEMBLY CROSS REFERENCE LISTING

   Value        Symbol                   Source file   Line number

          34    dispatch_resetwrite      prtdim:        27,   50.
          26    dispatch_write           prtdim:        23,   42.
      200000    flags.eurc               prtdim:        46,   54,
                                         prt_sdb:        5.
                ios_                     prtdim:        22,   24,   26,   28,   29,   30,   31,   32,   33,   35,   36,   37,
                                                        38,   39,   40.
                no_entry                 prtdim:        22,   24,   26,   28,   29,   30,   31,   32,   33,   35,   36,   37,
                                                        38,   39,   40.
           0    prtdimmodule             prtdim:        15,   16.
                prtdim_attach            prtdim:        20,   21.
                prtdim_changemode        prtdim:        34.
                prtdim_detach            prtdim:        21.
                prtdim_eurc_write        prtdim:        48,   56.
           0    prtdim_module            prtdim:        14,   17.
                prtdim_order             prtdim:        25.
                prtdim_resetwrite        prtdim:        55,   56.
                prtdim_write             prtdim:        47,   55.
         530    sdb.flags                prtdim:        45,   53,
                                         prt_sdb:        4.


NO FATAL ERRORS


                                          -----------------------------------------------------------


Historical Background

This edition of the Multics software materials and documentation is provided and donated
to Massachusetts Institute of Technology by Group BULL including BULL HN Information Systems Inc.
as a contribution to computer science knowledge.
This donation is made also to give evidence of the common contributions of Massachusetts Institute of Technology,
Bell Laboratories, General Electric, Honeywell Information Systems Inc., Honeywell BULL Inc., Groupe BULL
and BULL HN Information Systems Inc. to the development of this operating system.
Multics development was initiated by Massachusetts Institute of Technology Project MAC (1963-1970),
renamed the MIT Laboratory for Computer Science and Artificial Intelligence in the mid 1970s, under the leadership
of Professor Fernando Jose Corbato. Users consider that Multics provided the best software architecture
for managing computer hardware properly and for executing programs. Many subsequent operating systems
incorporated Multics principles.
Multics was distributed in 1975 to 2000 by Group Bull in Europe , and in the U.S. by Bull HN Information Systems Inc.,
as successor in interest by change in name only to Honeywell Bull Inc. and Honeywell Information Systems Inc. .

                                          -----------------------------------------------------------

Permission to use, copy, modify, and distribute these programs and their documentation for any purpose and without
fee is hereby granted,provided that the below copyright notice and historical background appear in all copies
and that both the copyright notice and historical background and this permission notice appear in supporting
documentation, and that the names of MIT, HIS, BULL or BULL HN not be used in advertising or publicity pertaining
to distribution of the programs without specific prior written permission.
    Copyright 1972 by Massachusetts Institute of Technology and Honeywell Information Systems Inc.
    Copyright 2006 by BULL HN Information Systems Inc.
    Copyright 2006 by Bull SAS
    All Rights Reserved
