ASSEMBLY LISTING OF SEGMENT >spec>on>6978-10/22/84>rpd_test.alm
ASSEMBLED ON:	10/22/84  1114.6 mst Mon
OPTIONS USED:	list
ASSEMBLED BY:	ALM Version  6.6  November 1982
ASSEMBLER CREATED:	09/21/83  1227.3 mst Wed

                                     1  "  ******************************************************
                                     2  "  *                                                    *
                                     3  "  *                                                    *
                                     4  "  * Copyright (c) 1972 by Massachusetts Institute of   *
                                     5  "  * Technology and Honeywell Information Systems, Inc. *
                                     6  "  *                                                    *
                                     7  "  *                                                    *
                                     8  "  ******************************************************
                                     9
                                    10  "  ******************************************************
                                    11  "  *                                                    *
                                    12  "  *                                                    *
                                    13  "  *    Copyright, (C) Honeywell Information Systems    *
                                    14  "  *    Inc., 1980.                                     *
                                    15  "  *                                                    *
                                    16  "  *                                                    *
                                    17  "  ******************************************************
                                    18
                                    19  "
                                    20  "	T&D to find RPD with page-fault problem on MIT CPU B on 1/2/74.
                                    21  "	The cpu has failed if you get a ZOP fault. If no fault, it worked.
                                    22  "
    000000                          23  	name	rpd_test
                        000000      24  	entry	rpd_test
                                    25
    000000                          26  rpd_test:
    000000  aa   000060 6270 00     27  	push
    000001  aa  7 00040 2721 20
    000002  0a   000014 3520 00     28  	eppbp	name
    000003  0a   001775 3714 00     29  	epplb	table
                                    30  	even
    000004  aa   000000 6220 00     31  	eax2	0
    000005  aa   021240 5602 01     32  	rpda	8,1,tnz
    000006  aa  2 00000 2351 12     33  	lda	bp|0,2
    000007  aa  5 00000 1151 12     34  	cmpa	lb|0,2
    000010  0a   000012 6070 00     35  	ttf	failure
    000011  aa  7 00042 7101 20     36  	return
    000012                          37  failure:
    000012  aa   000000 000000      38  	oct	0
    000013  aa   000000 0110 03     39  	even
    000014  aa  141 142 143 144     40  name:	aci	"abcdefghijklmn                  "
    000015  aa  145 146 147 150
    000016  aa  151 152 153 154
    000017  aa  155 156 040 040
    000020  aa  040 040 040 040
    000021  aa  040 040 040 040
    000022  aa  040 040 040 040
    000023  aa  040 040 040 040
                                    41
                        001775      42  	org	1024-3
    001775  aa  141 142 143 144     43  table:	aci	"abcdefghijklmn                  "
    001776  aa  145 146 147 150
    001777  aa  151 152 153 154
    002000  aa  155 156 040 040
    002001  aa  040 040 040 040
    002002  aa  040 040 040 040
    002003  aa  040 040 040 040
    002004  aa  040 040 040 040
                                    44
                                    45  "force fill to page bound for next test 'cmpc7'
                                    46
    002005                          47  	bss	,1016
                                    48  	end
ENTRY SEQUENCES

    003775  5a   000011 0000 00
    003776  aa  7 00046 2721 20
    003777  0a   000000 7100 00

NO LITERALS

NAME DEFINITIONS FOR ENTRY POINTS AND SEGDEFS

    004000  5a   000003 000000
    004001  5a   000026 600000
    004002  aa   000000 000000
    004003  55   000011 000002
    004004  5a   000002 400003
    004005  55   000006 000011
    004006  aa  010 162 160 144
    004007  aa  137 164 145 163
    004010  aa  164 000 000 000
    004011  55   000017 000003
    004012  0a   003776 500000
    004013  55   000014 000003
    004014  aa  010 162 160 144         rpd_test
    004015  aa  137 164 145 163
    004016  aa  164 000 000 000
    004017  55   000002 000011
    004020  6a   000000 400002
    004021  55   000022 000003
    004022  aa  014 163 171 155         symbol_table
    004023  aa  142 157 154 137
    004024  aa  164 141 142 154
    004025  aa  145 000 000 000

DEFINITIONS HASH TABLE

    004026  aa   000000 000015
    004027  aa   000000 000000
    004030  aa   000000 000000
    004031  aa   000000 000000
    004032  aa   000000 000000
    004033  aa   000000 000000
    004034  aa   000000 000000
    004035  5a   000017 000000
    004036  aa   000000 000000
    004037  aa   000000 000000
    004040  aa   000000 000000
    004041  aa   000000 000000
    004042  aa   000000 000000
    004043  5a   000011 000000

NO EXTERNAL NAMES

NO TRAP POINTER WORDS

TYPE PAIR BLOCKS

    004044  aa   000001 000000
    004045  aa   000000 000000

INTERNAL EXPRESSION WORDS

LINKAGE INFORMATION

    000000  aa   000000 000000
    000001  0a   004000 000000
    000002  aa   000000 000000
    000003  aa   000000 000000
    000004  aa   000000 000000
    000005  aa   000000 000000
    000006  22   000010 000010
    000007  a2   000000 000000
SYMBOL INFORMATION

SYMBOL TABLE HEADER

    000000  aa   000000 000001
    000001  aa   163171 155142
    000002  aa   164162 145145
    000003  aa   000000 000004
    000004  aa   000000 112143
    000005  aa   305203 523135
    000006  aa   000000 113126
    000007  aa   355513 756142
    000010  aa   141154 155040
    000011  aa   040040 040040
    000012  aa   000024 000040
    000013  aa   000034 000040
    000014  aa   000044 000100
    000015  aa   000002 000002
    000016  aa   000064 000000
    000017  aa   000000 000301
    000020  aa   000000 000103
    000021  aa   000000 000270
    000022  aa   000273 000103
    000023  aa   000064 000000
    000024  aa   101114 115040
    000025  aa   126145 162163
    000026  aa   151157 156040
    000027  aa   040066 056066
    000030  aa   040040 116157
    000031  aa   166145 155142
    000032  aa   145162 040061
    000033  aa   071070 062040
    000034  aa   107112 157150
    000035  aa   156163 157156
    000036  aa   056123 171163
    000037  aa   115141 151156
    000040  aa   164056 155040
    000041  aa   040040 040040
    000042  aa   040040 040040
    000043  aa   040040 040040
    000044  aa   154151 163164
    000045  aa   040040 040040
    000046  aa   040040 040040
    000047  aa   040040 040040
    000050  aa   040040 040040
    000051  aa   040040 040040
    000052  aa   040040 040040
    000053  aa   040040 040040
    000054  aa   040040 040040
    000055  aa   040040 040040
    000056  aa   040040 040040
    000057  aa   040040 040040
    000060  aa   040040 040040
    000061  aa   040040 040040
    000062  aa   040040 040040
    000063  aa   040040 040040
    000064  aa   000000 000001
    000065  aa   000000 000001
    000066  aa   000072 000043
    000067  aa   131232 072515
    000070  aa   000000 113126
    000071  aa   347530 000000
    000072  aa   076163 160145          >spec>on>6978-10/22/84>rpd_test.alm
    000073  aa   143076 157156
    000074  aa   076066 071067
    000075  aa   070055 061060
    000076  aa   057062 062057
    000077  aa   070064 076162
    000100  aa   160144 137164
    000101  aa   145163 164056
    000102  aa   141154 155040
               MULTICS ASSEMBLY CROSS REFERENCE LISTING

   Value        Symbol                   Source file   Line number

          12    failure                  rpd_test:      35,   37.
          14    name                     rpd_test:      28,   40.
           0    rpd_test                 rpd_test:      24,   26.
        1775    table                    rpd_test:      29,   43.


NO FATAL ERRORS


                                          -----------------------------------------------------------


Historical Background

This edition of the Multics software materials and documentation is provided and donated
to Massachusetts Institute of Technology by Group BULL including BULL HN Information Systems Inc.
as a contribution to computer science knowledge.
This donation is made also to give evidence of the common contributions of Massachusetts Institute of Technology,
Bell Laboratories, General Electric, Honeywell Information Systems Inc., Honeywell BULL Inc., Groupe BULL
and BULL HN Information Systems Inc. to the development of this operating system.
Multics development was initiated by Massachusetts Institute of Technology Project MAC (1963-1970),
renamed the MIT Laboratory for Computer Science and Artificial Intelligence in the mid 1970s, under the leadership
of Professor Fernando Jose Corbato. Users consider that Multics provided the best software architecture
for managing computer hardware properly and for executing programs. Many subsequent operating systems
incorporated Multics principles.
Multics was distributed in 1975 to 2000 by Group Bull in Europe , and in the U.S. by Bull HN Information Systems Inc.,
as successor in interest by change in name only to Honeywell Bull Inc. and Honeywell Information Systems Inc. .

                                          -----------------------------------------------------------

Permission to use, copy, modify, and distribute these programs and their documentation for any purpose and without
fee is hereby granted,provided that the below copyright notice and historical background appear in all copies
and that both the copyright notice and historical background and this permission notice appear in supporting
documentation, and that the names of MIT, HIS, BULL or BULL HN not be used in advertising or publicity pertaining
to distribution of the programs without specific prior written permission.
    Copyright 1972 by Massachusetts Institute of Technology and Honeywell Information Systems Inc.
    Copyright 2006 by BULL HN Information Systems Inc.
    Copyright 2006 by Bull SAS
    All Rights Reserved
