ASSEMBLY LISTING OF SEGMENT >spec>on>6978-10/22/84>rpt_test_odd.alm
ASSEMBLED ON:	10/22/84  1115.3 mst Mon
OPTIONS USED:	list
ASSEMBLED BY:	ALM Version  6.6  November 1982
ASSEMBLER CREATED:	09/21/83  1227.3 mst Wed

                                     1  " ***********************************************************
                                     2  " *                                                         *
                                     3  " * Copyright, (C) Honeywell Information Systems Inc., 1982 *
                                     4  " *                                                         *
                                     5  " ***********************************************************
                                     6
                                     7  	temp 	otherp
    000000                           8  	name 	rpt_test_odd
                        000000       9  	entry	rpt_test_odd
                                    10
    000000  aa   000060 6270 00     11  rpt_test_odd:	push
    000001  aa  7 00040 2721 20
    000002  aa   000000 2360 07     12  	ldq	0,dl
    000003  aa  0 00002 3521 20     13  	eppbp	ap|2,*
    000004  aa  2 00000 3521 20     14  	eppbp	bp|0,*	"ptr to temp seg
    000005  0a   002014 7100 00     15  	tra	loop
                                    16
                        002014      17  	org	1036
    002014                          18  loop:
    002014  aa  6 00000 2541 00     19  	call	test_cpu$deactivate_tempseg
    002015  0a   003724 3500 00
    002016  4a  4 00010 3521 20
    002017  aa  6 00040 7531 00
    002020  aa  7 00036 6701 20
    002021  aa  6 00000 1731 00
    002022  aa  6 00040 0731 00
    002023  0a   003720 2350 00     20  	lda	place
    002024  aa  6 00050 7551 00     21  	sta	otherp
    002025  aa  6 00050 7551 00     22  	sta	otherp
    002026  aa  6 00050 7551 00     23  	sta	otherp
    002027  aa   000001 0750 03     24  	ada	1,du
    002030  aa  6 00050 7551 00     25  	sta	otherp
    002031  aa   000001 0750 03     26  	ada	1,du
    002032  aa  6 00050 7551 00     27  	sta	otherp
    002033  0a   002053 2210 00     28  	ldx1	special
    002034  aa  6 00000 2541 00     29  	call	test_cpu$deactivate_tempseg
    002035  0a   003724 3500 00
    002036  4a  4 00010 3521 20
    002037  aa  6 00040 7531 00
    002040  aa  7 00036 6701 20
    002041  aa  6 00000 1731 00
    002042  aa  6 00040 0731 00
                                    30  	odd
    002043  aa   634200 520201      31  	oct	634200520201
    002044  aa  2 00000 4501 11     32  	stz	bp|0,x1
    002045  aa   777776 2230 03     33  	ldx3	-2,du
    002046  aa   000316 2210 03     34  	ldx1	206,du
    002047  aa   000000 2220 03     35  	ldx2	0,du
    002050  aa   000010 2200 03     36  	ldx0	8,du
    002051  aa   000003 0630 03     37  	adx3	3,du
    002052  aa   000001 0760 07     38  	adq	1,dl
    002053  aa   053601 235011      39  special:  oct	053601235011
    002054  0a   002055 7100 00     40  	tra	quit
    002055  aa  7 00042 7101 20     41  quit:	return
                                    42
                                    43
                        003720      44  	org	2000
    003720  aa   033335 000000      45  place:	oct	033335000000
                                    46
                                    47  	end
ENTRY SEQUENCES

    003721  5a   000012 0000 00
    003722  aa  7 00046 2721 20
    003723  0a   000000 7100 00
LITERALS

    003724  aa   000000 000000
    003725  aa   000000 000000
NAME DEFINITIONS FOR ENTRY POINTS AND SEGDEFS

    003726  5a   000003 000000
    003727  5a   000030 600000
    003730  aa   000000 000000
    003731  55   000012 000002
    003732  5a   000002 400003
    003733  55   000006 000012
    003734  aa  014 162 160 164
    003735  aa  137 164 145 163
    003736  aa  164 137 157 144
    003737  aa  144 000 000 000
    003740  55   000021 000003
    003741  0a   003722 500000
    003742  55   000015 000003
    003743  aa  014 162 160 164         rpt_test_odd
    003744  aa  137 164 145 163
    003745  aa  164 137 157 144
    003746  aa  144 000 000 000
    003747  55   000002 000012
    003750  6a   000000 400002
    003751  55   000024 000003
    003752  aa  014 163 171 155         symbol_table
    003753  aa  142 157 154 137
    003754  aa  164 141 142 154
    003755  aa  145 000 000 000

DEFINITIONS HASH TABLE

    003756  aa   000000 000015
    003757  aa   000000 000000
    003760  aa   000000 000000
    003761  aa   000000 000000
    003762  aa   000000 000000
    003763  aa   000000 000000
    003764  aa   000000 000000
    003765  5a   000021 000000
    003766  aa   000000 000000
    003767  5a   000012 000000
    003770  aa   000000 000000
    003771  aa   000000 000000
    003772  aa   000000 000000
    003773  aa   000000 000000

EXTERNAL NAMES

    003774  aa  022 144 145 141         deactivate_tempseg
    003775  aa  143 164 151 166
    003776  aa  141 164 145 137
    003777  aa  164 145 155 160
    004000  aa  163 145 147 000
    004001  aa  010 164 145 163         test_cpu
    004002  aa  164 137 143 160
    004003  aa  165 000 000 000

NO TRAP POINTER WORDS

TYPE PAIR BLOCKS

    004004  aa   000004 000000
    004005  55   000053 000046
    004006  aa   000001 000000
    004007  aa   000000 000000

INTERNAL EXPRESSION WORDS

    004010  5a   000056 000000
    004011  aa   000000 000000
LINKAGE INFORMATION

    000000  aa   000000 000000
    000001  0a   003726 000000
    000002  aa   000000 000000
    000003  aa   000000 000000
    000004  aa   000000 000000
    000005  aa   000000 000000
    000006  22   000010 000012
    000007  a2   000000 000000
    000010  9a   777770 0000 46         test_cpu|deactivate_tempseg
    000011  5a   000062 0000 00
SYMBOL INFORMATION

SYMBOL TABLE HEADER

    000000  aa   000000 000001
    000001  aa   163171 155142
    000002  aa   164162 145145
    000003  aa   000000 000004
    000004  aa   000000 112143
    000005  aa   305203 523135
    000006  aa   000000 113126
    000007  aa   355761 312225
    000010  aa   141154 155040
    000011  aa   040040 040040
    000012  aa   000024 000040
    000013  aa   000034 000040
    000014  aa   000044 000100
    000015  aa   000002 000002
    000016  aa   000064 000000
    000017  aa   000000 000301
    000020  aa   000000 000104
    000021  aa   000000 000267
    000022  aa   000273 000104
    000023  aa   000064 000000
    000024  aa   101114 115040
    000025  aa   126145 162163
    000026  aa   151157 156040
    000027  aa   040066 056066
    000030  aa   040040 116157
    000031  aa   166145 155142
    000032  aa   145162 040061
    000033  aa   071070 062040
    000034  aa   107112 157150
    000035  aa   156163 157156
    000036  aa   056123 171163
    000037  aa   115141 151156
    000040  aa   164056 155040
    000041  aa   040040 040040
    000042  aa   040040 040040
    000043  aa   040040 040040
    000044  aa   154151 163164
    000045  aa   040040 040040
    000046  aa   040040 040040
    000047  aa   040040 040040
    000050  aa   040040 040040
    000051  aa   040040 040040
    000052  aa   040040 040040
    000053  aa   040040 040040
    000054  aa   040040 040040
    000055  aa   040040 040040
    000056  aa   040040 040040
    000057  aa   040040 040040
    000060  aa   040040 040040
    000061  aa   040040 040040
    000062  aa   040040 040040
    000063  aa   040040 040040
    000064  aa   000000 000001
    000065  aa   000000 000001
    000066  aa   000072 000047
    000067  aa   131232 072544
    000070  aa   000000 113126
    000071  aa   347554 600000
    000072  aa   076163 160145          >spec>on>6978-10/22/84>rpt_test_odd.alm
    000073  aa   143076 157156
    000074  aa   076066 071067
    000075  aa   070055 061060
    000076  aa   057062 062057
    000077  aa   070064 076162
    000100  aa   160164 137164
    000101  aa   145163 164137
    000102  aa   157144 144056
    000103  aa   141154 155040
               MULTICS ASSEMBLY CROSS REFERENCE LISTING

   Value        Symbol                   Source file   Line number

                deactivate_tempseg       rpt_test_odd:        19,   29.
        2014    loop                     rpt_test_odd:        15,   18.
          50    otherp                   rpt_test_odd:         7,   21,   22,   23,   25,   27.
        3720    place                    rpt_test_odd:        20,   45.
        2055    quit                     rpt_test_odd:        40,   41.
           0    rpt_test_odd             rpt_test_odd:         9,   11.
        2053    special                  rpt_test_odd:        28,   39.
                test_cpu                 rpt_test_odd:        19,   29.


NO FATAL ERRORS


                                          -----------------------------------------------------------


Historical Background

This edition of the Multics software materials and documentation is provided and donated
to Massachusetts Institute of Technology by Group BULL including BULL HN Information Systems Inc.
as a contribution to computer science knowledge.
This donation is made also to give evidence of the common contributions of Massachusetts Institute of Technology,
Bell Laboratories, General Electric, Honeywell Information Systems Inc., Honeywell BULL Inc., Groupe BULL
and BULL HN Information Systems Inc. to the development of this operating system.
Multics development was initiated by Massachusetts Institute of Technology Project MAC (1963-1970),
renamed the MIT Laboratory for Computer Science and Artificial Intelligence in the mid 1970s, under the leadership
of Professor Fernando Jose Corbato. Users consider that Multics provided the best software architecture
for managing computer hardware properly and for executing programs. Many subsequent operating systems
incorporated Multics principles.
Multics was distributed in 1975 to 2000 by Group Bull in Europe , and in the U.S. by Bull HN Information Systems Inc.,
as successor in interest by change in name only to Honeywell Bull Inc. and Honeywell Information Systems Inc. .

                                          -----------------------------------------------------------

Permission to use, copy, modify, and distribute these programs and their documentation for any purpose and without
fee is hereby granted,provided that the below copyright notice and historical background appear in all copies
and that both the copyright notice and historical background and this permission notice appear in supporting
documentation, and that the names of MIT, HIS, BULL or BULL HN not be used in advertising or publicity pertaining
to distribution of the programs without specific prior written permission.
    Copyright 1972 by Massachusetts Institute of Technology and Honeywell Information Systems Inc.
    Copyright 2006 by BULL HN Information Systems Inc.
    Copyright 2006 by Bull SAS
    All Rights Reserved
