ASSEMBLY LISTING OF SEGMENT >spec>on>6978-10/22/84>scd_con_flt.alm
ASSEMBLED ON:	10/22/84  1114.6 mst Mon
OPTIONS USED:	list
ASSEMBLED BY:	ALM Version  6.6  November 1982
ASSEMBLER CREATED:	09/21/83  1227.3 mst Wed

                                     1  "  ******************************************************
                                     2  "  *                                                    *
                                     3  "  *                                                    *
                                     4  "  * Copyright (c) 1972 by Massachusetts Institute of   *
                                     5  "  * Technology and Honeywell Information Systems, Inc. *
                                     6  "  *                                                    *
                                     7  "  *                                                    *
                                     8  "  ******************************************************
                                     9
    000000                          10  	name	scd_con_flt
                        000000      11  	entry	scd_con_flt
                                    12  	temp	INDEX
                                    13  	temp	loop_cnt
    000000                          14  scd_con_flt:
                                    15
    000000  aa   000060 6270 00     16  	push
    000001  aa  7 00040 2721 20
    000002  aa  6 00051 4501 00     17  	stz	loop_cnt
    000003                          18  loop:
    000003  aa  6 00051 0541 00     19  	aos	loop_cnt
    000004  aa   000003 1204 00     20  	scd	(),(du)
    000005  0a   000065 000002      21  	desc9a	string1,2
    000006  aa   100100 000002      22  	desc9a	32832,2
    000007  aa  6 00050 0001 00     23  	arg	INDEX
    000010  aa  6 00050 2361 00     24  	ldq	INDEX
    000011  0a   000013 6070 00     25  	ttf	check1
    000012  aa   000001 3360 07     26  	lcq	1,dl
    000013                          27  check1:
                                    28
    000013  aa   000001 0760 07     29  	adq	1,dl
    000014  aa   000001 1160 07     30  	cmpq	1,dl
    000015  0a   000017 6000 00     31  	tze	test2
    000016  aa   000000 000000      32  	oct	0	"ZOP
                                    33
    000017                          34  test2:
    000017  aa   000003 1204 00     35  	scd	(),(du)
    000020  0a   000066 000003      36  	desc9a	string2,3
    000021  aa   100100 000002      37  	desc9a	32832,2
    000022  aa  6 00050 0001 00     38  	arg	INDEX
    000023  aa  6 00050 2361 00     39  	ldq	INDEX
    000024  0a   000026 6070 00     40  	ttf	check2
    000025  aa   000001 3360 07     41  	lcq	1,dl
    000026                          42  check2:
    000026  aa   000001 0760 07     43  	adq	1,dl
    000027  aa   000002 1160 07     44  	cmpq	2,dl
    000030  0a   000032 6000 00     45  	tze	test3
    000031  aa   000000 000000      46  	oct	0	"ZOP
                                    47
    000032                          48  test3:
    000032  aa   000003 1204 00     49  	scd	(),(du)
    000033  0a   000067 000004      50  	desc9a	string3,4
    000034  aa   100100 000002      51  	desc9a	32832,2
    000035  aa  6 00050 0001 00     52  	arg	INDEX
    000036  aa  6 00050 2361 00     53  	ldq	INDEX
    000037  0a   000041 6070 00     54  	ttf	check3
    000040  aa   000001 3360 07     55  	lcq	1,dl
    000041                          56  check3:
    000041  aa   000001 0760 07     57  	adq	1,dl
    000042  aa   000003 1160 07     58  	cmpq	3,dl
    000043  0a   000045 6000 00     59  	tze	test4
    000044  aa   000000 000000      60  	oct	0	"ZOP
                                    61
    000045                          62  test4:
    000045  aa   000003 1204 00     63  	scd	(),(du)
    000046  0a   000070 000005      64  	desc9a	string4,5
    000047  aa   100100 000002      65  	desc9a	32832,2
    000050  aa  6 00050 0001 00     66  	arg	INDEX
    000051  aa  6 00050 2361 00     67  	ldq	INDEX
    000052  0a   000054 6070 00     68  	ttf	check4
    000053  aa   000001 3360 07     69  	lcq	1,dl
    000054                          70  check4:
    000054  aa   000001 0760 07     71  	adq	1,dl
    000055  aa   000004 1160 07     72  	cmpq	4,dl
    000056  0a   000060 6000 00     73  	tze	test_loop
    000057  aa   000000 000000      74  	oct	0	"ZOP
                                    75
    000060                          76  test_loop:
                                    77
    000060  aa   200000 2350 07     78  	lda	=o200000,dl
    000061  aa  6 00051 1151 00     79  	cmpa	loop_cnt
    000062  0a   000064 6000 00     80  	tze	RET
    000063  0a   000003 7100 00     81  	tra	loop
    000064  aa  7 00042 7101 20     82  RET:	return
                                    83
    000065  aa  100 100 000 000     84  string1:	aci	"@@"
    000066  aa  056 100 100 000     85  string2:	aci	".@@"
    000067  aa  056 056 100 100     86  string3:	aci	"..@@"
    000070  aa  056 056 056 100     87  string4:	aci	"...@@"
    000071  aa  100 000 000 000
                                    88  	end
ENTRY SEQUENCES

    000072  5a   000011 0000 00
    000073  aa  7 00046 2721 20
    000074  0a   000000 7100 00

NO LITERALS

NAME DEFINITIONS FOR ENTRY POINTS AND SEGDEFS

    000076  5a   000003 000000
    000077  5a   000026 600000
    000100  aa   000000 000000
    000101  55   000011 000002
    000102  5a   000002 400003
    000103  55   000006 000011
    000104  aa  013 163 143 144
    000105  aa  137 143 157 156
    000106  aa  137 146 154 164
    000107  55   000017 000003
    000110  0a   000073 500000
    000111  55   000014 000003
    000112  aa  013 163 143 144         scd_con_flt
    000113  aa  137 143 157 156
    000114  aa  137 146 154 164
    000115  55   000002 000011
    000116  6a   000000 400002
    000117  55   000022 000003
    000120  aa  014 163 171 155         symbol_table
    000121  aa  142 157 154 137
    000122  aa  164 141 142 154
    000123  aa  145 000 000 000

DEFINITIONS HASH TABLE

    000124  aa   000000 000015
    000125  aa   000000 000000
    000126  aa   000000 000000
    000127  aa   000000 000000
    000130  aa   000000 000000
    000131  aa   000000 000000
    000132  aa   000000 000000
    000133  5a   000017 000000
    000134  aa   000000 000000
    000135  aa   000000 000000
    000136  5a   000011 000000
    000137  aa   000000 000000
    000140  aa   000000 000000
    000141  aa   000000 000000

NO EXTERNAL NAMES

NO TRAP POINTER WORDS

TYPE PAIR BLOCKS

    000142  aa   000001 000000
    000143  aa   000000 000000

INTERNAL EXPRESSION WORDS

LINKAGE INFORMATION

    000000  aa   000000 000000
    000001  0a   000076 000000
    000002  aa   000000 000000
    000003  aa   000000 000000
    000004  aa   000000 000000
    000005  aa   000000 000000
    000006  22   000010 000010
    000007  a2   000000 000000
SYMBOL INFORMATION

SYMBOL TABLE HEADER

    000000  aa   000000 000001
    000001  aa   163171 155142
    000002  aa   164162 145145
    000003  aa   000000 000004
    000004  aa   000000 112143
    000005  aa   305203 523135
    000006  aa   000000 113126
    000007  aa   355526 226154
    000010  aa   141154 155040
    000011  aa   040040 040040
    000012  aa   000024 000040
    000013  aa   000034 000040
    000014  aa   000044 000100
    000015  aa   000002 000002
    000016  aa   000064 000000
    000017  aa   000000 000125
    000020  aa   000000 000104
    000021  aa   000000 000114
    000022  aa   000117 000104
    000023  aa   000064 000000
    000024  aa   101114 115040
    000025  aa   126145 162163
    000026  aa   151157 156040
    000027  aa   040066 056066
    000030  aa   040040 116157
    000031  aa   166145 155142
    000032  aa   145162 040061
    000033  aa   071070 062040
    000034  aa   107112 157150
    000035  aa   156163 157156
    000036  aa   056123 171163
    000037  aa   115141 151156
    000040  aa   164056 155040
    000041  aa   040040 040040
    000042  aa   040040 040040
    000043  aa   040040 040040
    000044  aa   154151 163164
    000045  aa   040040 040040
    000046  aa   040040 040040
    000047  aa   040040 040040
    000050  aa   040040 040040
    000051  aa   040040 040040
    000052  aa   040040 040040
    000053  aa   040040 040040
    000054  aa   040040 040040
    000055  aa   040040 040040
    000056  aa   040040 040040
    000057  aa   040040 040040
    000060  aa   040040 040040
    000061  aa   040040 040040
    000062  aa   040040 040040
    000063  aa   040040 040040
    000064  aa   000000 000001
    000065  aa   000000 000001
    000066  aa   000072 000046
    000067  aa   131232 072516
    000070  aa   000000 113126
    000071  aa   347530 600000
    000072  aa   076163 160145          >spec>on>6978-10/22/84>scd_con_flt.alm
    000073  aa   143076 157156
    000074  aa   076066 071067
    000075  aa   070055 061060
    000076  aa   057062 062057
    000077  aa   070064 076163
    000100  aa   143144 137143
    000101  aa   157156 137146
    000102  aa   154164 056141
    000103  aa   154155 040040
               MULTICS ASSEMBLY CROSS REFERENCE LISTING

   Value        Symbol                   Source file   Line number

          13    check1                   scd_con_flt:   25,   27.
          26    check2                   scd_con_flt:   40,   42.
          41    check3                   scd_con_flt:   54,   56.
          54    check4                   scd_con_flt:   68,   70.
          50    INDEX                    scd_con_flt:   12,   23,   24,   38,   39,   52,   53,   66,   67.
           3    loop                     scd_con_flt:   18,   81.
          51    loop_cnt                 scd_con_flt:   13,   17,   19,   79.
          64    RET                      scd_con_flt:   80,   82.
           0    scd_con_flt              scd_con_flt:   11,   14.
          65    string1                  scd_con_flt:   21,   84.
          66    string2                  scd_con_flt:   36,   85.
          67    string3                  scd_con_flt:   50,   86.
          70    string4                  scd_con_flt:   64,   87.
          17    test2                    scd_con_flt:   31,   34.
          32    test3                    scd_con_flt:   45,   48.
          45    test4                    scd_con_flt:   59,   62.
          60    test_loop                scd_con_flt:   73,   76.


NO FATAL ERRORS


                                          -----------------------------------------------------------


Historical Background

This edition of the Multics software materials and documentation is provided and donated
to Massachusetts Institute of Technology by Group BULL including BULL HN Information Systems Inc.
as a contribution to computer science knowledge.
This donation is made also to give evidence of the common contributions of Massachusetts Institute of Technology,
Bell Laboratories, General Electric, Honeywell Information Systems Inc., Honeywell BULL Inc., Groupe BULL
and BULL HN Information Systems Inc. to the development of this operating system.
Multics development was initiated by Massachusetts Institute of Technology Project MAC (1963-1970),
renamed the MIT Laboratory for Computer Science and Artificial Intelligence in the mid 1970s, under the leadership
of Professor Fernando Jose Corbato. Users consider that Multics provided the best software architecture
for managing computer hardware properly and for executing programs. Many subsequent operating systems
incorporated Multics principles.
Multics was distributed in 1975 to 2000 by Group Bull in Europe , and in the U.S. by Bull HN Information Systems Inc.,
as successor in interest by change in name only to Honeywell Bull Inc. and Honeywell Information Systems Inc. .

                                          -----------------------------------------------------------

Permission to use, copy, modify, and distribute these programs and their documentation for any purpose and without
fee is hereby granted,provided that the below copyright notice and historical background appear in all copies
and that both the copyright notice and historical background and this permission notice appear in supporting
documentation, and that the names of MIT, HIS, BULL or BULL HN not be used in advertising or publicity pertaining
to distribution of the programs without specific prior written permission.
    Copyright 1972 by Massachusetts Institute of Technology and Honeywell Information Systems Inc.
    Copyright 2006 by BULL HN Information Systems Inc.
    Copyright 2006 by Bull SAS
    All Rights Reserved
