ASSEMBLY LISTING OF SEGMENT >spec>on>6978-10/22/84>scd_oob_tst.alm
ASSEMBLED ON:	10/22/84  1115.6 mst Mon
OPTIONS USED:	list
ASSEMBLED BY:	ALM Version  6.6  November 1982
ASSEMBLER CREATED:	09/21/83  1227.3 mst Wed

                                     1  " ***********************************************************
                                     2  " *                                                         *
                                     3  " * Copyright, (C) Honeywell Information Systems Inc., 1982 *
                                     4  " *                                                         *
                                     5  " ***********************************************************
    000000                           6  	name	scd_oob_tst
                        000000       7  	entry	scd_oob_tst
    000000  aa   000060 6270 00      8  scd_oob_tst:	push
    000001  aa  7 00040 2721 20
                                     9
    000002  aa  0 00004 3515 20     10  	eppab	ap|4,*	"get ptrs to temp segs for d1, 2, & 3
    000003  aa  1 00000 3515 20     11  	eppab	ab|0,*	"d3 (arg) MUST reside in a different segment
    000004  aa  1 00000 3521 20     12  	eppbp	ab|0,*	"d1 &2 may share the same seg.
    000005  aa  0 00002 3535 20     13  	eppbb	ap|2,*
    000006  aa  3 00000 3535 20     14  	eppbb	bb|0,*
    000007  aa   171654 0510 03     15  	adwpab	62380,du
    000010  aa   171560 0520 03     16  	adwpbp	62320,du
    000011  0a   000050 2350 00     17  	lda	allones
    000012  aa  2 00000 7551 00     18  	sta	bp|0
    000013  aa   000300 2240 03     19  	ldx4	=o300,du
    000014  aa   026207 2350 07     20  	lda	=o26207,dl
    000015  aa   002303 2360 07     21  	ldq	=o2303,dl
    000016  aa   000145 1004 00     22  	mlr	(),(pr,rl,al),fill(000)	"clear to zeroes
    000017  aa   000000 000000      23  	desc9a	0,0
    000020  aa   100000 000006      24  	desc9a	ab|0,ql
                                    25
    000021                          26  loop:
    000021  aa  6 00000 2541 00     27  	call 	test_cpu$deactivate_tempseg     "now deactivate both
    000022  0a   000054 3500 00
    000023  4a  4 00010 3521 20
    000024  aa  6 00040 7531 00
    000025  aa  7 00036 6701 20
    000026  aa  6 00000 1731 00
    000027  aa  6 00040 0731 00
                                    28
    000030  aa   000000 6340 07     29  	ldi	0,dl		"ensure tally ind is OFF
    000031  aa  0 00100 1205 45     30  	scd	(pr,rl,al),(pr,,)
    000032  aa   100000 000006      31  	desc9a	ab|0,ql
    000033  aa   200000 000000      32  	desc9a	bp|0
    000034  aa  3 00076 0001 00     33  	arg	bb|62
    000035  aa  3 00076 7231 00     34  	lxl3	bb|62
    000036  aa   002302 1030 03     35  	cmpx3	=o2302,du			"tally SB 1 less than orig len
    000037  0a   000046 6010 00     36  	tnz	zop1
    000040  0a   000042 6064 00     37  	ttn	tally_ok
    000041  0a   000047 6070 00     38  	ttf	zop2
    000042                          39  tally_ok:
    000042  aa   777777 6240 14     40  	eax4	-1,4
    000043  0a   000045 6000 00     41  	tze	done
    000044  0a   000021 7100 00     42  	tra	loop
    000045                          43  done:
    000045  aa  7 00042 7101 20     44  	return
    000046  aa   111111 000000      45  zop1:	oct	111111000000
    000047  aa   222222 000000      46  zop2:	oct	222222000000
    000050  aa   777777 777777      47  allones:	oct	777777777777
                                    48  	end
ENTRY SEQUENCES

    000051  5a   000011 0000 00
    000052  aa  7 00046 2721 20
    000053  0a   000000 7100 00
LITERALS

    000054  aa   000000 000000
    000055  aa   000000 000000
NAME DEFINITIONS FOR ENTRY POINTS AND SEGDEFS

    000056  5a   000003 000000
    000057  5a   000026 600000
    000060  aa   000000 000000
    000061  55   000011 000002
    000062  5a   000002 400003
    000063  55   000006 000011
    000064  aa  013 163 143 144
    000065  aa  137 157 157 142
    000066  aa  137 164 163 164
    000067  55   000017 000003
    000070  0a   000052 500000
    000071  55   000014 000003
    000072  aa  013 163 143 144         scd_oob_tst
    000073  aa  137 157 157 142
    000074  aa  137 164 163 164
    000075  55   000002 000011
    000076  6a   000000 400002
    000077  55   000022 000003
    000100  aa  014 163 171 155         symbol_table
    000101  aa  142 157 154 137
    000102  aa  164 141 142 154
    000103  aa  145 000 000 000

DEFINITIONS HASH TABLE

    000104  aa   000000 000015
    000105  aa   000000 000000
    000106  aa   000000 000000
    000107  aa   000000 000000
    000110  aa   000000 000000
    000111  aa   000000 000000
    000112  aa   000000 000000
    000113  5a   000017 000000
    000114  aa   000000 000000
    000115  aa   000000 000000
    000116  5a   000011 000000
    000117  aa   000000 000000
    000120  aa   000000 000000
    000121  aa   000000 000000

EXTERNAL NAMES

    000122  aa  022 144 145 141         deactivate_tempseg
    000123  aa  143 164 151 166
    000124  aa  141 164 145 137
    000125  aa  164 145 155 160
    000126  aa  163 145 147 000
    000127  aa  010 164 145 163         test_cpu
    000130  aa  164 137 143 160
    000131  aa  165 000 000 000

NO TRAP POINTER WORDS

TYPE PAIR BLOCKS

    000132  aa   000004 000000
    000133  55   000051 000044
    000134  aa   000001 000000
    000135  aa   000000 000000

INTERNAL EXPRESSION WORDS

    000136  5a   000054 000000
    000137  aa   000000 000000
LINKAGE INFORMATION

    000000  aa   000000 000000
    000001  0a   000056 000000
    000002  aa   000000 000000
    000003  aa   000000 000000
    000004  aa   000000 000000
    000005  aa   000000 000000
    000006  22   000010 000012
    000007  a2   000000 000000
    000010  9a   777770 0000 46         test_cpu|deactivate_tempseg
    000011  5a   000060 0000 00
SYMBOL INFORMATION

SYMBOL TABLE HEADER

    000000  aa   000000 000001
    000001  aa   163171 155142
    000002  aa   164162 145145
    000003  aa   000000 000004
    000004  aa   000000 112143
    000005  aa   305203 523135
    000006  aa   000000 113126
    000007  aa   356050 124332
    000010  aa   141154 155040
    000011  aa   040040 040040
    000012  aa   000024 000040
    000013  aa   000034 000040
    000014  aa   000044 000100
    000015  aa   000002 000002
    000016  aa   000064 000000
    000017  aa   000000 000124
    000020  aa   000000 000104
    000021  aa   000000 000112
    000022  aa   000116 000104
    000023  aa   000064 000000
    000024  aa   101114 115040
    000025  aa   126145 162163
    000026  aa   151157 156040
    000027  aa   040066 056066
    000030  aa   040040 116157
    000031  aa   166145 155142
    000032  aa   145162 040061
    000033  aa   071070 062040
    000034  aa   107112 157150
    000035  aa   156163 157156
    000036  aa   056123 171163
    000037  aa   115141 151156
    000040  aa   164056 155040
    000041  aa   040040 040040
    000042  aa   040040 040040
    000043  aa   040040 040040
    000044  aa   154151 163164
    000045  aa   040040 040040
    000046  aa   040040 040040
    000047  aa   040040 040040
    000050  aa   040040 040040
    000051  aa   040040 040040
    000052  aa   040040 040040
    000053  aa   040040 040040
    000054  aa   040040 040040
    000055  aa   040040 040040
    000056  aa   040040 040040
    000057  aa   040040 040040
    000060  aa   040040 040040
    000061  aa   040040 040040
    000062  aa   040040 040040
    000063  aa   040040 040040
    000064  aa   000000 000001
    000065  aa   000000 000001
    000066  aa   000072 000046
    000067  aa   131232 072551
    000070  aa   000000 113126
    000071  aa   347603 200000
    000072  aa   076163 160145          >spec>on>6978-10/22/84>scd_oob_tst.alm
    000073  aa   143076 157156
    000074  aa   076066 071067
    000075  aa   070055 061060
    000076  aa   057062 062057
    000077  aa   070064 076163
    000100  aa   143144 137157
    000101  aa   157142 137164
    000102  aa   163164 056141
    000103  aa   154155 040040
               MULTICS ASSEMBLY CROSS REFERENCE LISTING

   Value        Symbol                   Source file   Line number

          50    allones                  scd_oob_tst:   17,   47.
                deactivate_tempseg       scd_oob_tst:   27.
          45    done                     scd_oob_tst:   41,   43.
          21    loop                     scd_oob_tst:   26,   42.
           0    scd_oob_tst              scd_oob_tst:    7,    8.
          42    tally_ok                 scd_oob_tst:   37,   39.
                test_cpu                 scd_oob_tst:   27.
          46    zop1                     scd_oob_tst:   36,   45.
          47    zop2                     scd_oob_tst:   38,   46.


NO FATAL ERRORS


                                          -----------------------------------------------------------


Historical Background

This edition of the Multics software materials and documentation is provided and donated
to Massachusetts Institute of Technology by Group BULL including BULL HN Information Systems Inc.
as a contribution to computer science knowledge.
This donation is made also to give evidence of the common contributions of Massachusetts Institute of Technology,
Bell Laboratories, General Electric, Honeywell Information Systems Inc., Honeywell BULL Inc., Groupe BULL
and BULL HN Information Systems Inc. to the development of this operating system.
Multics development was initiated by Massachusetts Institute of Technology Project MAC (1963-1970),
renamed the MIT Laboratory for Computer Science and Artificial Intelligence in the mid 1970s, under the leadership
of Professor Fernando Jose Corbato. Users consider that Multics provided the best software architecture
for managing computer hardware properly and for executing programs. Many subsequent operating systems
incorporated Multics principles.
Multics was distributed in 1975 to 2000 by Group Bull in Europe , and in the U.S. by Bull HN Information Systems Inc.,
as successor in interest by change in name only to Honeywell Bull Inc. and Honeywell Information Systems Inc. .

                                          -----------------------------------------------------------

Permission to use, copy, modify, and distribute these programs and their documentation for any purpose and without
fee is hereby granted,provided that the below copyright notice and historical background appear in all copies
and that both the copyright notice and historical background and this permission notice appear in supporting
documentation, and that the names of MIT, HIS, BULL or BULL HN not be used in advertising or publicity pertaining
to distribution of the programs without specific prior written permission.
    Copyright 1972 by Massachusetts Institute of Technology and Honeywell Information Systems Inc.
    Copyright 2006 by BULL HN Information Systems Inc.
    Copyright 2006 by Bull SAS
    All Rights Reserved
