ASSEMBLY LISTING OF SEGMENT >spec>on>6978-10/22/84>scm_tro.alm
ASSEMBLED ON:	10/22/84  1115.4 mst Mon
OPTIONS USED:	list
ASSEMBLED BY:	ALM Version  6.6  November 1982
ASSEMBLER CREATED:	09/21/83  1227.3 mst Wed

                                     1  " ***********************************************************
                                     2  " *                                                         *
                                     3  " * Copyright, (C) Honeywell Information Systems Inc., 1982 *
                                     4  " *                                                         *
                                     5  " ***********************************************************
    000000                           6  	name	scm_tro
                        000000       7  	entry	scm_tro
                                     8  	tempd	temp1,temp2,temp3,temp4
    000000  aa   000060 6270 00      9  scm_tro:	push
    000001  aa  7 00040 2721 20
    000002  aa  0 00002 3515 20     10  	eppab	ap|2,*
    000003  aa  1 00000 3515 20     11  	eppab	ab|0,*
    000004  aa   000001 0510 03     12  	adwpab	1,du
    000005  aa  6 00050 4501 00     13  	stz	temp1
    000006  aa   000000 6210 00     14  	eax1	0
    000007  aa  6 00050 0541 00     15  	aos	temp1
    000010  aa  6 00000 2541 00     16  loop:	call	test_cpu$deactivate_tempseg
    000011  0a   000720 3500 00
    000012  4a  4 00010 3521 20
    000013  aa  6 00040 7531 00
    000014  aa  7 00036 6701 20
    000015  aa  6 00000 1731 00
    000016  aa  6 00040 0731 00
    000017  aa  6 00050 2361 00     17  	ldq	temp1
    000020  0a   000674 7100 00     18  	tra	inst
                                    19
                                    20
                        000503      21  	org	323
    000503  aa   000001 002003      22  	oct	000001002003
    000504  aa   004005 006007      23  	oct	004005006007
    000505  aa   010011 012013      24  	oct	010011012013
    000506  aa   014015 016017      25  	oct	014015016017
    000507  aa   020021 022023      26  	oct	020021022023
    000510  aa   024025 026027      27  	oct	024025026027
    000511  aa   030031 032033      28  	oct	030031032033
    000512  aa   034035 036037      29  	oct	034035036037
    000513  aa   040041 042043      30  	oct	040041042043
    000514  aa   044045 046047      31  	oct	044045046047
    000515  aa   050051 052053      32  	oct	050051052053
    000516  aa   054055 056057      33  	oct	054055056057
    000517  aa   060061 062063      34  	oct	060061062063
    000520  aa   064065 066067      35  	oct	064065066067
    000521  aa   070071 072073      36  	oct	070071072073
    000522  aa   074075 076077      37  	oct	074075076077
    000523  aa   100101 102103      38  	oct	100101102103
    000524  aa   104105 106107      39  	oct	104105106107
    000525  aa   110111 112113      40  	oct	110111112113
    000526  aa   114115 116117      41  	oct	114115116117
    000527  aa   120121 122123      42  	oct	120121122123
    000530  aa   124125 126127      43  	oct	124125126127
    000531  aa   130131 132133      44  	oct	130131132133
    000532  aa   134135 136137      45  	oct	134135136137
    000533  aa   140141 142143      46  	oct	140141142143
    000534  aa   144145 146147      47  	oct	144145146147
    000535  aa   150151 152153      48  	oct	150151152153
    000536  aa   154155 156157      49  	oct	154155156157
    000537  aa   160161 162163      50  	oct	160161162163
    000540  aa   164165 166167      51  	oct	164165166167
    000541  aa   170171 172173      52  	oct	170171172173
    000542  aa   174175 176177      53  	oct	174175176177
                                    54
                                    55
                                    56
                        000674      57  	org	444
    000674                          58  inst:
    000674  aa   000106 1244 04     59  	scm	(ic),(pr,ql),mask(000)
    000675  aa   777607 000200      60  	desc9a	-121,128
    000676  aa   177777 600001      61  	desc9a	ab|-1(3),1
    000677  aa  6 00056 0001 00     62  	arg	temp4
    000700  aa   000002 6070 04     63  	ttf	2,ic
    000701  aa   000000 000000      64  	oct 	0
    000702  aa  6 00050 2371 00     65  	ldaq	temp1
    000703  aa   000001 0750 07     66  	ada	1,dl
    000704  aa   000066 1150 07     67  	cmpa	54,dl
    000705  aa   000002 6010 04     68  	tnz	2,ic
    000706  aa   000001 2350 07     69  	lda	1,dl
    000707  aa   000001 0210 03     70  	adlx1	1,du
    000710  aa   001000 1010 03     71  	cmpx1	=o1000,du
    000711  aa   000003 6000 04     72  	tze	3,ic
    000712  aa  6 00050 7571 00     73  	staq	temp1
    000713  0a   000010 7100 00     74  	tra	loop
    000714  aa  7 00042 7101 20     75  	return
                                    76  	end
ENTRY SEQUENCES

    000715  5a   000010 0000 00
    000716  aa  7 00046 2721 20
    000717  0a   000000 7100 00
LITERALS

    000720  aa   000000 000000
    000721  aa   000000 000000
NAME DEFINITIONS FOR ENTRY POINTS AND SEGDEFS

    000722  5a   000003 000000
    000723  5a   000024 600000
    000724  aa   000000 000000
    000725  55   000010 000002
    000726  5a   000002 400003
    000727  55   000006 000010
    000730  aa  007 163 143 155
    000731  aa  137 164 162 157
    000732  55   000015 000003
    000733  0a   000716 500000
    000734  55   000013 000003
    000735  aa  007 163 143 155         scm_tro
    000736  aa  137 164 162 157
    000737  55   000002 000010
    000740  6a   000000 400002
    000741  55   000020 000003
    000742  aa  014 163 171 155         symbol_table
    000743  aa  142 157 154 137
    000744  aa  164 141 142 154
    000745  aa  145 000 000 000

DEFINITIONS HASH TABLE

    000746  aa   000000 000015
    000747  aa   000000 000000
    000750  aa   000000 000000
    000751  aa   000000 000000
    000752  aa   000000 000000
    000753  aa   000000 000000
    000754  aa   000000 000000
    000755  5a   000015 000000
    000756  aa   000000 000000
    000757  aa   000000 000000
    000760  aa   000000 000000
    000761  aa   000000 000000
    000762  aa   000000 000000
    000763  5a   000010 000000

EXTERNAL NAMES

    000764  aa  022 144 145 141         deactivate_tempseg
    000765  aa  143 164 151 166
    000766  aa  141 164 145 137
    000767  aa  164 145 155 160
    000770  aa  163 145 147 000
    000771  aa  010 164 145 163         test_cpu
    000772  aa  164 137 143 160
    000773  aa  165 000 000 000

NO TRAP POINTER WORDS

TYPE PAIR BLOCKS

    000774  aa   000004 000000
    000775  55   000047 000042
    000776  aa   000001 000000
    000777  aa   000000 000000

INTERNAL EXPRESSION WORDS

    001000  5a   000052 000000
    001001  aa   000000 000000
LINKAGE INFORMATION

    000000  aa   000000 000000
    000001  0a   000722 000000
    000002  aa   000000 000000
    000003  aa   000000 000000
    000004  aa   000000 000000
    000005  aa   000000 000000
    000006  22   000010 000012
    000007  a2   000000 000000
    000010  9a   777770 0000 46         test_cpu|deactivate_tempseg
    000011  5a   000056 0000 00
SYMBOL INFORMATION

SYMBOL TABLE HEADER

    000000  aa   000000 000001
    000001  aa   163171 155142
    000002  aa   164162 145145
    000003  aa   000000 000004
    000004  aa   000000 112143
    000005  aa   305203 523135
    000006  aa   000000 113126
    000007  aa   356013 602347
    000010  aa   141154 155040
    000011  aa   040040 040040
    000012  aa   000024 000040
    000013  aa   000034 000040
    000014  aa   000044 000100
    000015  aa   000002 000002
    000016  aa   000064 000000
    000017  aa   000000 000152
    000020  aa   000000 000103
    000021  aa   000000 000140
    000022  aa   000144 000103
    000023  aa   000064 000000
    000024  aa   101114 115040
    000025  aa   126145 162163
    000026  aa   151157 156040
    000027  aa   040066 056066
    000030  aa   040040 116157
    000031  aa   166145 155142
    000032  aa   145162 040061
    000033  aa   071070 062040
    000034  aa   107112 157150
    000035  aa   156163 157156
    000036  aa   056123 171163
    000037  aa   115141 151156
    000040  aa   164056 155040
    000041  aa   040040 040040
    000042  aa   040040 040040
    000043  aa   040040 040040
    000044  aa   154151 163164
    000045  aa   040040 040040
    000046  aa   040040 040040
    000047  aa   040040 040040
    000050  aa   040040 040040
    000051  aa   040040 040040
    000052  aa   040040 040040
    000053  aa   040040 040040
    000054  aa   040040 040040
    000055  aa   040040 040040
    000056  aa   040040 040040
    000057  aa   040040 040040
    000060  aa   040040 040040
    000061  aa   040040 040040
    000062  aa   040040 040040
    000063  aa   040040 040040
    000064  aa   000000 000001
    000065  aa   000000 000001
    000066  aa   000072 000042
    000067  aa   131232 072546
    000070  aa   000000 113126
    000071  aa   347555 200000
    000072  aa   076163 160145          >spec>on>6978-10/22/84>scm_tro.alm
    000073  aa   143076 157156
    000074  aa   076066 071067
    000075  aa   070055 061060
    000076  aa   057062 062057
    000077  aa   070064 076163
    000100  aa   143155 137164
    000101  aa   162157 056141
    000102  aa   154155 040040
               MULTICS ASSEMBLY CROSS REFERENCE LISTING

   Value        Symbol                   Source file   Line number

                deactivate_tempseg       scm_tro:       16.
         674    inst                     scm_tro:       18,   58.
          10    loop                     scm_tro:       16,   74.
           0    scm_tro                  scm_tro:        7,    9.
          50    temp1                    scm_tro:        8,   13,   15,   17,   65,   73.
          52    temp2                    scm_tro:        8.
          54    temp3                    scm_tro:        8.
          56    temp4                    scm_tro:        8,   62.
                test_cpu                 scm_tro:       16.


NO FATAL ERRORS


                                          -----------------------------------------------------------


Historical Background

This edition of the Multics software materials and documentation is provided and donated
to Massachusetts Institute of Technology by Group BULL including BULL HN Information Systems Inc.
as a contribution to computer science knowledge.
This donation is made also to give evidence of the common contributions of Massachusetts Institute of Technology,
Bell Laboratories, General Electric, Honeywell Information Systems Inc., Honeywell BULL Inc., Groupe BULL
and BULL HN Information Systems Inc. to the development of this operating system.
Multics development was initiated by Massachusetts Institute of Technology Project MAC (1963-1970),
renamed the MIT Laboratory for Computer Science and Artificial Intelligence in the mid 1970s, under the leadership
of Professor Fernando Jose Corbato. Users consider that Multics provided the best software architecture
for managing computer hardware properly and for executing programs. Many subsequent operating systems
incorporated Multics principles.
Multics was distributed in 1975 to 2000 by Group Bull in Europe , and in the U.S. by Bull HN Information Systems Inc.,
as successor in interest by change in name only to Honeywell Bull Inc. and Honeywell Information Systems Inc. .

                                          -----------------------------------------------------------

Permission to use, copy, modify, and distribute these programs and their documentation for any purpose and without
fee is hereby granted,provided that the below copyright notice and historical background appear in all copies
and that both the copyright notice and historical background and this permission notice appear in supporting
documentation, and that the names of MIT, HIS, BULL or BULL HN not be used in advertising or publicity pertaining
to distribution of the programs without specific prior written permission.
    Copyright 1972 by Massachusetts Institute of Technology and Honeywell Information Systems Inc.
    Copyright 2006 by BULL HN Information Systems Inc.
    Copyright 2006 by Bull SAS
    All Rights Reserved
