ASSEMBLY LISTING OF SEGMENT >spec>on>6978-10/22/84>scm_pgflt.alm
ASSEMBLED ON:	10/22/84  1114.7 mst Mon
OPTIONS USED:	list
ASSEMBLED BY:	ALM Version  6.6  November 1982
ASSEMBLER CREATED:	09/21/83  1227.3 mst Wed

                                     1  "  ******************************************************
                                     2  "  *                                                    *
                                     3  "  *                                                    *
                                     4  "  * Copyright (c) 1972 by Massachusetts Institute of   *
                                     5  "  * Technology and Honeywell Information Systems, Inc. *
                                     6  "  *                                                    *
                                     7  "  *                                                    *
                                     8  "  ******************************************************
                                     9
                                    10  "  ******************************************************
                                    11  "  *                                                    *
                                    12  "  *                                                    *
                                    13  "  *    Copyright, (C) Honeywell Information Systems    *
                                    14  "  *    Inc., 1980.                                     *
                                    15  "  *                                                    *
                                    16  "  *                                                    *
                                    17  "  ******************************************************
                                    18
    000000                          19  	name	scm_pgflt
                        000000      20  	entry	scm_pgflt
    000000                          21  scm_pgflt:
    000000  aa   000060 6270 00     22  	push
    000001  aa  7 00040 2721 20
    000002  aa  0 00002 3521 20     23  	eppbp	ap|2,*	"get ptr to temp seg
    000003  aa  2 00000 3521 20     24  	eppbp	bp|0,*
    000004  0a   000032 2350 00     25  	lda	=o427612
    000005  aa   012000 2360 03     26  	ldq	=o012000,du
    000006  aa  6 00050 7561 00     27  	stq	sp|temp
    000007  aa   001750 2360 07     28  	ldq	1000,dl
    000010  aa  0 00100 1245 45     29  	scm	(pr,rl,al),(pr),mask(000)
    000011  aa   277777 600006      30  	desc9a	bp|-1(3),ql
    000012  aa   600050 000001      31  	desc9a	sp|temp,1
    000013  aa  6 00051 0001 00     32  	arg	sp|result
    000014  aa  6 00051 2361 00     33  	ldq	sp|result
    000015  aa   000002 6070 04     34  	ttf	2,ic
    000016  aa   000001 3360 07     35  	lcq	1,dl
    000017  aa   000001 0760 07     36  	adq	1,dl
    000020  aa   000205 1160 07     37  	cmpq	133,dl
    000021  aa  2 00144 7561 00     38  	stq 	bp|100
                                    39
    000022  0a   000024 6010 00     40  	tnz	fail
    000023  aa  7 00042 7101 20     41  	return
                                    42
    000024  aa   000000 000000      43  fail:	oct	0	"ZOP
    000025  aa  7 00042 7101 20     44  	return
                                    45
                                    46  	temp	temp,result
                                    47  	end
ENTRY SEQUENCES

    000026  5a   000011 0000 00
    000027  aa  7 00046 2721 20
    000030  0a   000000 7100 00
LITERALS

    000032  aa   000000 427612
NAME DEFINITIONS FOR ENTRY POINTS AND SEGDEFS

    000033  5a   000003 000000
    000034  5a   000026 600000
    000035  aa   000000 000000
    000036  55   000011 000002
    000037  5a   000002 400003
    000040  55   000006 000011
    000041  aa  011 163 143 155
    000042  aa  137 160 147 146
    000043  aa  154 164 000 000
    000044  55   000017 000003
    000045  0a   000027 500000
    000046  55   000014 000003
    000047  aa  011 163 143 155         scm_pgflt
    000050  aa  137 160 147 146
    000051  aa  154 164 000 000
    000052  55   000002 000011
    000053  6a   000000 400002
    000054  55   000022 000003
    000055  aa  014 163 171 155         symbol_table
    000056  aa  142 157 154 137
    000057  aa  164 141 142 154
    000060  aa  145 000 000 000

DEFINITIONS HASH TABLE

    000061  aa   000000 000015
    000062  aa   000000 000000
    000063  aa   000000 000000
    000064  5a   000011 000000
    000065  aa   000000 000000
    000066  aa   000000 000000
    000067  aa   000000 000000
    000070  5a   000017 000000
    000071  aa   000000 000000
    000072  aa   000000 000000
    000073  aa   000000 000000
    000074  aa   000000 000000
    000075  aa   000000 000000
    000076  aa   000000 000000

NO EXTERNAL NAMES

NO TRAP POINTER WORDS

TYPE PAIR BLOCKS

    000077  aa   000001 000000
    000100  aa   000000 000000

INTERNAL EXPRESSION WORDS

    000101  aa   000000 000000
LINKAGE INFORMATION

    000000  aa   000000 000000
    000001  0a   000033 000000
    000002  aa   000000 000000
    000003  aa   000000 000000
    000004  aa   000000 000000
    000005  aa   000000 000000
    000006  22   000010 000010
    000007  a2   000000 000000
SYMBOL INFORMATION

SYMBOL TABLE HEADER

    000000  aa   000000 000001
    000001  aa   163171 155142
    000002  aa   164162 145145
    000003  aa   000000 000004
    000004  aa   000000 112143
    000005  aa   305203 523135
    000006  aa   000000 113126
    000007  aa   355537 757751
    000010  aa   141154 155040
    000011  aa   040040 040040
    000012  aa   000024 000040
    000013  aa   000034 000040
    000014  aa   000044 000100
    000015  aa   000002 000002
    000016  aa   000064 000000
    000017  aa   000000 000120
    000020  aa   000000 000103
    000021  aa   000000 000107
    000022  aa   000112 000103
    000023  aa   000064 000000
    000024  aa   101114 115040
    000025  aa   126145 162163
    000026  aa   151157 156040
    000027  aa   040066 056066
    000030  aa   040040 116157
    000031  aa   166145 155142
    000032  aa   145162 040061
    000033  aa   071070 062040
    000034  aa   107112 157150
    000035  aa   156163 157156
    000036  aa   056123 171163
    000037  aa   115141 151156
    000040  aa   164056 155040
    000041  aa   040040 040040
    000042  aa   040040 040040
    000043  aa   040040 040040
    000044  aa   154151 163164
    000045  aa   040040 040040
    000046  aa   040040 040040
    000047  aa   040040 040040
    000050  aa   040040 040040
    000051  aa   040040 040040
    000052  aa   040040 040040
    000053  aa   040040 040040
    000054  aa   040040 040040
    000055  aa   040040 040040
    000056  aa   040040 040040
    000057  aa   040040 040040
    000060  aa   040040 040040
    000061  aa   040040 040040
    000062  aa   040040 040040
    000063  aa   040040 040040
    000064  aa   000000 000001
    000065  aa   000000 000001
    000066  aa   000072 000044
    000067  aa   131232 072517
    000070  aa   000000 113126
    000071  aa   347532 000000
    000072  aa   076163 160145          >spec>on>6978-10/22/84>scm_pgflt.alm
    000073  aa   143076 157156
    000074  aa   076066 071067
    000075  aa   070055 061060
    000076  aa   057062 062057
    000077  aa   070064 076163
    000100  aa   143155 137160
    000101  aa   147146 154164
    000102  aa   056141 154155
               MULTICS ASSEMBLY CROSS REFERENCE LISTING

   Value        Symbol                   Source file   Line number

          24    fail                     scm_pgflt:     40,   43.
          51    result                   scm_pgflt:     32,   33,   46.
           0    scm_pgflt                scm_pgflt:     20,   21.
          50    temp                     scm_pgflt:     27,   31,   46.


NO FATAL ERRORS


                                          -----------------------------------------------------------


Historical Background

This edition of the Multics software materials and documentation is provided and donated
to Massachusetts Institute of Technology by Group BULL including BULL HN Information Systems Inc.
as a contribution to computer science knowledge.
This donation is made also to give evidence of the common contributions of Massachusetts Institute of Technology,
Bell Laboratories, General Electric, Honeywell Information Systems Inc., Honeywell BULL Inc., Groupe BULL
and BULL HN Information Systems Inc. to the development of this operating system.
Multics development was initiated by Massachusetts Institute of Technology Project MAC (1963-1970),
renamed the MIT Laboratory for Computer Science and Artificial Intelligence in the mid 1970s, under the leadership
of Professor Fernando Jose Corbato. Users consider that Multics provided the best software architecture
for managing computer hardware properly and for executing programs. Many subsequent operating systems
incorporated Multics principles.
Multics was distributed in 1975 to 2000 by Group Bull in Europe , and in the U.S. by Bull HN Information Systems Inc.,
as successor in interest by change in name only to Honeywell Bull Inc. and Honeywell Information Systems Inc. .

                                          -----------------------------------------------------------

Permission to use, copy, modify, and distribute these programs and their documentation for any purpose and without
fee is hereby granted,provided that the below copyright notice and historical background appear in all copies
and that both the copyright notice and historical background and this permission notice appear in supporting
documentation, and that the names of MIT, HIS, BULL or BULL HN not be used in advertising or publicity pertaining
to distribution of the programs without specific prior written permission.
    Copyright 1972 by Massachusetts Institute of Technology and Honeywell Information Systems Inc.
    Copyright 2006 by BULL HN Information Systems Inc.
    Copyright 2006 by Bull SAS
    All Rights Reserved
