ASSEMBLY LISTING OF SEGMENT >dumps>old>recomp>spooldim_.alm
ASSEMBLED ON:	11/15/82  1754.6 mst Mon
OPTIONS USED:	list
ASSEMBLED BY:	ALM Version  6.4  April 1981
ASSEMBLER CREATED:	11/03/82  1423.6 mst Wed

                                     1  " ***********************************************************
                                     2  " *                                                         *
                                     3  " * Copyright, (C) Honeywell Information Systems Inc., 1982 *
                                     4  " *                                                         *
                                     5  " * Copyright (c) 1972 by Massachusetts Institute of        *
                                     6  " * Technology and Honeywell Information Systems, Inc.      *
                                     7  " *                                                         *
                                     8  " ***********************************************************
                                     9
                                    10  "	Outer Module Transfer Vector for the spooling_dim outer module.
                                    11
                        000000      12  	entry	spooldim_module
                        000000      13  	entry	spooldimmodule
    000000                          14  spooldimmodule:
    000000                          15  spooldim_module:
    000000  0a   000001 7100 16     16  	tra	*+1,6		go to proper transfer instruction
                                    17
    000001  4a  4 00010 7101 20     18  	tra	<spooling_dim_xtatch_>|[attach]
    000002  4a  4 00012 7101 20     19  	tra	<spooling_dim_xtatch_>|[detach]
    000003  4a  4 00014 7101 20     20  	tra	<ios_>|[no_entry]	"read
    000004  4a  4 00016 7101 20     21  	tra	<spooling_dim_write_>|[spooling_dim_write_]
    000005  4a  4 00014 7101 20     22  	tra	<ios_>|[no_entry]	"abort
    000006  4a  4 00020 7101 20     23  	tra	<spooling_dim_order_>|[spooling_dim_order_]
    000007  4a  4 00014 7101 20     24  	tra	<ios_>|[no_entry]	"resetread
    000010  4a  4 00014 7101 20     25  	tra	<ios_>|[no_entry]	"resetwrite
    000011  4a  4 00014 7101 20     26  	tra	<ios_>|[no_entry]	"setsize
    000012  4a  4 00014 7101 20     27  	tra	<ios_>|[no_entry]	"getsize (it's 9 tho)
    000013  4a  4 00014 7101 20     28  	tra	<ios_>|[no_entry]
    000014  4a  4 00014 7101 20     29  	tra	<ios_>|[no_entry]
    000015  4a  4 00014 7101 20     30  	tra	<ios_>|[no_entry]
    000016  4a  4 00014 7101 20     31  	tra	<ios_>|[no_entry]
    000017  4a  4 00022 7101 20     32  	tra	<prtdim_>|[prtdim_changemode]
    000020  4a  4 00014 7101 20     33  	tra	<ios_>|[no_entry]
    000021  4a  4 00014 7101 20     34  	tra	<ios_>|[no_entry]
    000022  4a  4 00014 7101 20     35  	tra	<ios_>|[no_entry]
    000023  4a  4 00014 7101 20     36  	tra	<ios_>|[no_entry]
    000024  4a  4 00014 7101 20     37  	tra	<ios_>|[no_entry]
    000025  4a  4 00014 7101 20     38  	tra	<ios_>|[no_entry]
                                    39
                                    40  	end
ENTRY SEQUENCES

    000026  5a   000020 0000 00
    000027  aa  7 00046 2721 20
    000030  0a   000000 7100 00
    000031  5a   000011 0000 00
    000032  aa  7 00046 2721 20
    000033  0a   000000 7100 00

NO LITERALS

NAME DEFINITIONS FOR ENTRY POINTS AND SEGDEFS

    000034  5a   000003 000000
    000035  5a   000036 600000
    000036  aa   000000 000000
    000037  55   000011 000002
    000040  5a   000002 400003
    000041  55   000006 000011
    000042  aa  011 163 160 157
    000043  aa  157 154 144 151
    000044  aa  155 137 000 000
    000045  55   000020 000003
    000046  0a   000032 500000
    000047  55   000014 000003
    000050  aa  016 163 160 157         spooldimmodule
    000051  aa  157 154 144 151
    000052  aa  155 155 157 144
    000053  aa  165 154 145 000
    000054  55   000027 000011
    000055  0a   000027 500000
    000056  55   000023 000003
    000057  aa  017 163 160 157         spooldim_module
    000060  aa  157 154 144 151
    000061  aa  155 137 155 157
    000062  aa  144 165 154 145
    000063  55   000002 000020
    000064  6a   000000 400002
    000065  55   000032 000003
    000066  aa  014 163 171 155         symbol_table
    000067  aa  142 157 154 137
    000070  aa  164 141 142 154
    000071  aa  145 000 000 000

DEFINITIONS HASH TABLE

    000072  aa   000000 000015
    000073  5a   000020 000000
    000074  aa   000000 000000
    000075  aa   000000 000000
    000076  aa   000000 000000
    000077  aa   000000 000000
    000100  5a   000011 000000
    000101  5a   000027 000000
    000102  aa   000000 000000
    000103  aa   000000 000000
    000104  aa   000000 000000
    000105  aa   000000 000000
    000106  aa   000000 000000
    000107  aa   000000 000000

EXTERNAL NAMES

    000110  aa  021 160 162 164         prtdim_changemode
    000111  aa  144 151 155 137
    000112  aa  143 150 141 156
    000113  aa  147 145 155 157
    000114  aa  144 145 000 000
    000115  aa  007 160 162 164         prtdim_
    000116  aa  144 151 155 137
    000117  aa  023 163 160 157         spooling_dim_order_
    000120  aa  157 154 151 156
    000121  aa  147 137 144 151
    000122  aa  155 137 157 162
    000123  aa  144 145 162 137
    000124  aa  023 163 160 157         spooling_dim_write_
    000125  aa  157 154 151 156
    000126  aa  147 137 144 151
    000127  aa  155 137 167 162
    000130  aa  151 164 145 137
    000131  aa  010 156 157 137         no_entry
    000132  aa  145 156 164 162
    000133  aa  171 000 000 000
    000134  aa  004 151 157 163         ios_
    000135  aa  137 000 000 000
    000136  aa  006 144 145 164         detach
    000137  aa  141 143 150 000
    000140  aa  006 141 164 164         attach
    000141  aa  141 143 150 000
    000142  aa  024 163 160 157         spooling_dim_xtatch_
    000143  aa  157 154 151 156
    000144  aa  147 137 144 151
    000145  aa  155 137 170 164
    000146  aa  141 164 143 150
    000147  aa  137 000 000 000

NO TRAP POINTER WORDS

TYPE PAIR BLOCKS

    000150  aa   000004 000000
    000151  55   000061 000054
    000152  aa   000004 000000
    000153  55   000063 000063
    000154  aa   000004 000000
    000155  55   000070 000070
    000156  aa   000004 000000
    000157  55   000100 000075
    000160  aa   000004 000000
    000161  55   000106 000102
    000162  aa   000004 000000
    000163  55   000106 000104
    000164  aa   000001 000000
    000165  aa   000000 000000

INTERNAL EXPRESSION WORDS

    000166  5a   000114 000000
    000167  5a   000116 000000
    000170  5a   000120 000000
    000171  5a   000122 000000
    000172  5a   000124 000000
    000173  5a   000126 000000
LINKAGE INFORMATION

    000000  aa   000000 000000
    000001  0a   000034 000000
    000002  aa   000000 000000
    000003  aa   000000 000000
    000004  aa   000000 000000
    000005  aa   000000 000000
    000006  22   000010 000024
    000007  a2   000000 000000
    000010  9a   777770 0000 46         spooling_dim_xtatch_|attach
    000011  5a   000137 0000 00
    000012  9a   777766 0000 46         spooling_dim_xtatch_|detach
    000013  5a   000136 0000 00
    000014  9a   777764 0000 46         ios_|no_entry
    000015  5a   000135 0000 00
    000016  9a   777762 0000 46         spooling_dim_write_|spooling_dim_write_
    000017  5a   000134 0000 00
    000020  9a   777760 0000 46         spooling_dim_order_|spooling_dim_order_
    000021  5a   000133 0000 00
    000022  9a   777756 0000 46         prtdim_|prtdim_changemode
    000023  5a   000132 0000 00
SYMBOL INFORMATION

SYMBOL TABLE HEADER

    000000  aa   000000 000001
    000001  aa   163171 155142
    000002  aa   164162 145145
    000003  aa   000000 000004
    000004  aa   000000 111316
    000005  aa   510113 575622
    000006  aa   000000 111335
    000007  aa   723160 661643
    000010  aa   141154 155040
    000011  aa   040040 040040
    000012  aa   000024 000040
    000013  aa   000034 000040
    000014  aa   000044 000100
    000015  aa   000002 000002
    000016  aa   000064 000000
    000017  aa   000000 000124
    000020  aa   000000 000102
    000021  aa   000000 000111
    000022  aa   000116 000102
    000023  aa   000064 000000
    000024  aa   101114 115040
    000025  aa   126145 162163
    000026  aa   151157 156040
    000027  aa   040066 056064
    000030  aa   040040 101160
    000031  aa   162151 154040
    000032  aa   061071 070061
    000033  aa   040040 040040
    000034  aa   110157 154155
    000035  aa   163164 145144
    000036  aa   164056 123171
    000037  aa   163115 141151
    000040  aa   156164 056155
    000041  aa   040040 040040
    000042  aa   040040 040040
    000043  aa   040040 040040
    000044  aa   154151 163164
    000045  aa   040040 040040
    000046  aa   040040 040040
    000047  aa   040040 040040
    000050  aa   040040 040040
    000051  aa   040040 040040
    000052  aa   040040 040040
    000053  aa   040040 040040
    000054  aa   040040 040040
    000055  aa   040040 040040
    000056  aa   040040 040040
    000057  aa   040040 040040
    000060  aa   040040 040040
    000061  aa   040040 040040
    000062  aa   040040 040040
    000063  aa   040040 040040
    000064  aa   000000 000001
    000065  aa   000000 000001
    000066  aa   000072 000037
    000067  aa   113331 137460
    000070  aa   000000 111335
    000071  aa   624702 000000
    000072  aa   076144 165155          >dumps>old>recomp>spooldim_.alm
    000073  aa   160163 076157
    000074  aa   154144 076162
    000075  aa   145143 157155
    000076  aa   160076 163160
    000077  aa   157157 154144
    000100  aa   151155 137056
    000101  aa   141154 155040
               MULTICS ASSEMBLY CROSS REFERENCE LISTING

   Value        Symbol                   Source file   Line number

                attach                   spooldim_:     18.
                detach                   spooldim_:     19.
                ios_                     spooldim_:     20,   22,   24,   25,   26,   27,   28,   29,   30,   31,   33,   34,
                                                        35,   36,   37,   38.
                no_entry                 spooldim_:     20,   22,   24,   25,   26,   27,   28,   29,   30,   31,   33,   34,
                                                        35,   36,   37,   38.
                prtdim_                  spooldim_:     32.
                prtdim_changemode        spooldim_:     32.
           0    spooldimmodule           spooldim_:     13,   14.
           0    spooldim_module          spooldim_:     12,   15.
                spooling_dim_order_      spooldim_:     23.
                spooling_dim_write_      spooldim_:     21.
                spooling_dim_xtatch_     spooldim_:     18,   19.


NO FATAL ERRORS


                                          -----------------------------------------------------------


Historical Background

This edition of the Multics software materials and documentation is provided and donated
to Massachusetts Institute of Technology by Group BULL including BULL HN Information Systems Inc.
as a contribution to computer science knowledge.
This donation is made also to give evidence of the common contributions of Massachusetts Institute of Technology,
Bell Laboratories, General Electric, Honeywell Information Systems Inc., Honeywell BULL Inc., Groupe BULL
and BULL HN Information Systems Inc. to the development of this operating system.
Multics development was initiated by Massachusetts Institute of Technology Project MAC (1963-1970),
renamed the MIT Laboratory for Computer Science and Artificial Intelligence in the mid 1970s, under the leadership
of Professor Fernando Jose Corbato. Users consider that Multics provided the best software architecture
for managing computer hardware properly and for executing programs. Many subsequent operating systems
incorporated Multics principles.
Multics was distributed in 1975 to 2000 by Group Bull in Europe , and in the U.S. by Bull HN Information Systems Inc.,
as successor in interest by change in name only to Honeywell Bull Inc. and Honeywell Information Systems Inc. .

                                          -----------------------------------------------------------

Permission to use, copy, modify, and distribute these programs and their documentation for any purpose and without
fee is hereby granted,provided that the below copyright notice and historical background appear in all copies
and that both the copyright notice and historical background and this permission notice appear in supporting
documentation, and that the names of MIT, HIS, BULL or BULL HN not be used in advertising or publicity pertaining
to distribution of the programs without specific prior written permission.
    Copyright 1972 by Massachusetts Institute of Technology and Honeywell Information Systems Inc.
    Copyright 2006 by BULL HN Information Systems Inc.
    Copyright 2006 by Bull SAS
    All Rights Reserved
