ASSEMBLY LISTING OF SEGMENT >dumps>old>recomp>spool_static_.alm
ASSEMBLED ON:	11/15/82  1754.5 mst Mon
OPTIONS USED:	list
ASSEMBLED BY:	ALM Version  6.4  April 1981
ASSEMBLER CREATED:	11/03/82  1423.6 mst Wed

                                     1  " ***********************************************************
                                     2  " *                                                         *
                                     3  " * Copyright, (C) Honeywell Information Systems Inc., 1982 *
                                     4  " *                                                         *
                                     5  " * Copyright (c) 1972 by Massachusetts Institute of        *
                                     6  " * Technology and Honeywell Information Systems, Inc.      *
                                     7  " *                                                         *
                                     8  " ***********************************************************
                                     9
                                    10  	" Setup static storage for  Spooler
                                    11  	"
                                    12  	" Written 4/8/75  for the Spooling Facility
                                    13  	"
                                    14
    000000                          15  	name 	spool_static_
                                    16
                                    17  	use 	foo	" specify location counter
                                    18  	join	/link/foo	" stash vars in linkage
                                    19
                        000010      20  	segdef  	file_attch
                        000011      21  	segdef 	norestart
                        000012      22  	segdef 	tally_printed
                        000013      23            segdef    debug
                        000014      24  	segdef	info_ptr
                                    25
    000010  aa   000000 000000      26  	file_attch:	vfd 36/0  "file open somewhere indicator
    000011  aa   000000 000000      27  	norestart:	vfd 36/0  "dont restart spooling indicator
    000012  aa   000000 000000      28  	tally_printed:	vfd 36/0  "already printed spooling tallies once
    000013  aa   000000 000000      29            debug:              vfd 36/0  "in debug mode, please.
    000014  aa   000000 000000      30  	info_ptr:		vfd 72/0	"ptr to spooling_info
    000015  aa   000000 000000
                                    31
                                    32  	end

NO LITERALS

NAME DEFINITIONS FOR ENTRY POINTS AND SEGDEFS

    000000  5a   000003 000000
    000001  5a   000057 600000
    000002  aa   000000 000000
    000003  55   000012 000002
    000004  5a   000002 400003
    000005  55   000006 000012
    000006  aa  015 163 160 157
    000007  aa  157 154 137 163
    000010  aa  164 141 164 151
    000011  aa  143 137 000 000
    000012  55   000020 000003
    000013  2a   000014 400001
    000014  55   000015 000003
    000015  aa  010 151 156 146         info_ptr
    000016  aa  157 137 160 164
    000017  aa  162 000 000 000
    000020  55   000025 000012
    000021  2a   000013 400001
    000022  55   000023 000003
    000023  aa  005 144 145 142         debug
    000024  aa  165 147 000 000
    000025  55   000034 000020
    000026  2a   000012 400001
    000027  55   000030 000003
    000030  aa  015 164 141 154         tally_printed
    000031  aa  154 171 137 160
    000032  aa  162 151 156 164
    000033  aa  145 144 000 000
    000034  55   000042 000025
    000035  2a   000011 400001
    000036  55   000037 000003
    000037  aa  011 156 157 162         norestart
    000040  aa  145 163 164 141
    000041  aa  162 164 000 000
    000042  55   000050 000034
    000043  2a   000010 400001
    000044  55   000045 000003
    000045  aa  012 146 151 154         file_attch
    000046  aa  145 137 141 164
    000047  aa  164 143 150 000
    000050  55   000002 000042
    000051  6a   000000 400002
    000052  55   000053 000003
    000053  aa  014 163 171 155         symbol_table
    000054  aa  142 157 154 137
    000055  aa  164 141 142 154
    000056  aa  145 000 000 000

DEFINITIONS HASH TABLE

    000057  aa   000000 000015
    000060  5a   000012 000000
    000061  5a   000042 000000
    000062  aa   000000 000000
    000063  aa   000000 000000
    000064  aa   000000 000000
    000065  aa   000000 000000
    000066  5a   000050 000000
    000067  5a   000034 000000
    000070  aa   000000 000000
    000071  5a   000025 000000
    000072  5a   000020 000000
    000073  aa   000000 000000
    000074  aa   000000 000000

NO EXTERNAL NAMES

NO TRAP POINTER WORDS

TYPE PAIR BLOCKS

    000075  aa   000001 000000
    000076  aa   000000 000000

INTERNAL EXPRESSION WORDS

    000077  aa   000000 000000
LINKAGE INFORMATION

    000000  aa   000000 000000
    000001  0a   000000 000000
    000002  aa   000000 000000
    000003  aa   000000 000000
    000004  aa   000000 000000
    000005  aa   000000 000000
    000006  22   000016 000016
    000007  a2   000000 000006
SYMBOL INFORMATION

SYMBOL TABLE HEADER

    000000  aa   000000 000001
    000001  aa   163171 155142
    000002  aa   164162 145145
    000003  aa   000000 000004
    000004  aa   000000 111316
    000005  aa   510113 575622
    000006  aa   000000 111335
    000007  aa   723153 333671
    000010  aa   141154 155040
    000011  aa   040040 040040
    000012  aa   000024 000040
    000013  aa   000034 000040
    000014  aa   000044 000100
    000015  aa   000002 000002
    000016  aa   000064 000000
    000017  aa   000000 000117
    000020  aa   000000 000103
    000021  aa   000000 000105
    000022  aa   000111 000103
    000023  aa   000064 000000
    000024  aa   101114 115040
    000025  aa   126145 162163
    000026  aa   151157 156040
    000027  aa   040066 056064
    000030  aa   040040 101160
    000031  aa   162151 154040
    000032  aa   061071 070061
    000033  aa   040040 040040
    000034  aa   110157 154155
    000035  aa   163164 145144
    000036  aa   164056 123171
    000037  aa   163115 141151
    000040  aa   156164 056155
    000041  aa   040040 040040
    000042  aa   040040 040040
    000043  aa   040040 040040
    000044  aa   154151 163164
    000045  aa   040040 040040
    000046  aa   040040 040040
    000047  aa   040040 040040
    000050  aa   040040 040040
    000051  aa   040040 040040
    000052  aa   040040 040040
    000053  aa   040040 040040
    000054  aa   040040 040040
    000055  aa   040040 040040
    000056  aa   040040 040040
    000057  aa   040040 040040
    000060  aa   040040 040040
    000061  aa   040040 040040
    000062  aa   040040 040040
    000063  aa   040040 040040
    000064  aa   000000 000001
    000065  aa   000000 000001
    000066  aa   000072 000043
    000067  aa   113331 137456
    000070  aa   000000 111335
    000071  aa   624711 200000
    000072  aa   076144 165155          >dumps>old>recomp>spool_static_.alm
    000073  aa   160163 076157
    000074  aa   154144 076162
    000075  aa   145143 157155
    000076  aa   160076 163160
    000077  aa   157157 154137
    000100  aa   163164 141164
    000101  aa   151143 137056
    000102  aa   141154 155040
               MULTICS ASSEMBLY CROSS REFERENCE LISTING

   Value        Symbol                   Source file   Line number

          13    debug                    spool_static_:       23,   29.
          10    file_attch               spool_static_:       20,   26.
          10    foo                      spool_static_:       17,   18.
          14    info_ptr                 spool_static_:       24,   30.
          11    norestart                spool_static_:       21,   27.
          12    tally_printed            spool_static_:       22,   28.


NO FATAL ERRORS


                                          -----------------------------------------------------------


Historical Background

This edition of the Multics software materials and documentation is provided and donated
to Massachusetts Institute of Technology by Group BULL including BULL HN Information Systems Inc.
as a contribution to computer science knowledge.
This donation is made also to give evidence of the common contributions of Massachusetts Institute of Technology,
Bell Laboratories, General Electric, Honeywell Information Systems Inc., Honeywell BULL Inc., Groupe BULL
and BULL HN Information Systems Inc. to the development of this operating system.
Multics development was initiated by Massachusetts Institute of Technology Project MAC (1963-1970),
renamed the MIT Laboratory for Computer Science and Artificial Intelligence in the mid 1970s, under the leadership
of Professor Fernando Jose Corbato. Users consider that Multics provided the best software architecture
for managing computer hardware properly and for executing programs. Many subsequent operating systems
incorporated Multics principles.
Multics was distributed in 1975 to 2000 by Group Bull in Europe , and in the U.S. by Bull HN Information Systems Inc.,
as successor in interest by change in name only to Honeywell Bull Inc. and Honeywell Information Systems Inc. .

                                          -----------------------------------------------------------

Permission to use, copy, modify, and distribute these programs and their documentation for any purpose and without
fee is hereby granted,provided that the below copyright notice and historical background appear in all copies
and that both the copyright notice and historical background and this permission notice appear in supporting
documentation, and that the names of MIT, HIS, BULL or BULL HN not be used in advertising or publicity pertaining
to distribution of the programs without specific prior written permission.
    Copyright 1972 by Massachusetts Institute of Technology and Honeywell Information Systems Inc.
    Copyright 2006 by BULL HN Information Systems Inc.
    Copyright 2006 by Bull SAS
    All Rights Reserved
