ASSEMBLY LISTING OF SEGMENT >dumps>old>recomp>status_data_.alm
ASSEMBLED ON:	11/15/82  1753.7 mst Mon
OPTIONS USED:	list
ASSEMBLED BY:	ALM Version  6.4  April 1981
ASSEMBLER CREATED:	11/03/82  1423.6 mst Wed

                                     1  " ***********************************************************
                                     2  " *                                                         *
                                     3  " * Copyright, (C) Honeywell Information Systems Inc., 1982 *
                                     4  " *                                                         *
                                     5  " * Copyright (c) 1972 by Massachusetts Institute of        *
                                     6  " * Technology and Honeywell Information Systems, Inc.      *
                                     7  " *                                                         *
                                     8  " ***********************************************************
                                     9
    000000                          10  	name	status_data_
                                    11  "
                                    12  "    dcl	status_data_$mode (0:7)	char(4) varying aligned ext static;
                                    13  "					/* character string interpretations of	*/
                                    14  "					/* segment modes.			*/
                                    15  "
                                    16
                        000000      17  	segdef	mode
                                    18
    000000  aa   000000 000004      19  mode:	dec	4				" null
    000001  aa  156 165 154 154     20  	aci	'null'
    000002  aa   000000 000003      21  	dec	3				" w
    000003  aa  040 040 167 040     22  	aci	'  w '
    000004  aa   000000 000002      23  	dec	2				" e
    000005  aa  040 145 040 040     24  	aci	' e  '
    000006  aa   000000 000003      25  	dec	3				" ew
    000007  aa  040 145 167 040     26  	aci	' ew '
    000010  aa   000000 000001      27  	dec	1				" r
    000011  aa  162 040 040 040     28  	aci	'r   '
    000012  aa   000000 000003      29  	dec	3				" rw
    000013  aa  162 040 167 040     30  	aci	'r w '
    000014  aa   000000 000002      31  	dec	2				" re
    000015  aa  162 145 040 040     32  	aci	're  '
    000016  aa   000000 000003      33  	dec	3				" rew
    000017  aa  162 145 167 040     34  	aci	'rew '
                                    35
                                    36
                                    37  "
                                    38  "    dcl	status_data_$dir_mode (0:7)	char (4) varying aligned ext static;
                                    39  "					/* character string interpretations of	*/
                                    40  "					/* directory modes.			*/
                                    41  "
                                    42
                        000020      43  	segdef	dir_mode
                                    44
    000020  aa   000000 000004      45  dir_mode:	dec	4				" null
    000021  aa  156 165 154 154     46  	aci	'null'
    000022  aa   000000 000003      47  	dec	3				" a
    000023  aa  040 040 141 040     48  	aci	'  a '
    000024  aa   000000 000002      49  	dec	2				" m
    000025  aa  040 155 040 040     50  	aci	' m  '
    000026  aa   000000 000003      51  	dec	3				" ma
    000027  aa  040 155 141 040     52  	aci	' ma '
    000030  aa   000000 000001      53  	dec	1				" s
    000031  aa  163 040 040 040     54  	aci	's   '
    000032  aa   000000 000003      55  	dec	3				" sa
    000033  aa  163 040 141 040     56  	aci	's a '
    000034  aa   000000 000002      57  	dec	2				" sm
    000035  aa  163 155 040 040     58  	aci	'sm  '
    000036  aa   000000 000003      59  	dec	3				" sma
    000037  aa  163 155 141 040     60  	aci	'sma '
                                    61
                                    62  	end

NO LITERALS

NAME DEFINITIONS FOR ENTRY POINTS AND SEGDEFS

    000040  5a   000003 000000
    000041  5a   000034 600000
    000042  aa   000000 000000
    000043  55   000012 000002
    000044  5a   000002 400003
    000045  55   000006 000012
    000046  aa  014 163 164 141
    000047  aa  164 165 163 137
    000050  aa  144 141 164 141
    000051  aa  137 000 000 000
    000052  55   000020 000003
    000053  0a   000020 400000
    000054  55   000015 000003
    000055  aa  010 144 151 162         dir_mode
    000056  aa  137 155 157 144
    000057  aa  145 000 000 000
    000060  55   000025 000012
    000061  0a   000000 400000
    000062  55   000023 000003
    000063  aa  004 155 157 144         mode
    000064  aa  145 000 000 000
    000065  55   000002 000020
    000066  6a   000000 400002
    000067  55   000030 000003
    000070  aa  014 163 171 155         symbol_table
    000071  aa  142 157 154 137
    000072  aa  164 141 142 154
    000073  aa  145 000 000 000

DEFINITIONS HASH TABLE

    000074  aa   000000 000015
    000075  aa   000000 000000
    000076  aa   000000 000000
    000077  aa   000000 000000
    000100  aa   000000 000000
    000101  aa   000000 000000
    000102  5a   000012 000000
    000103  5a   000020 000000
    000104  5a   000025 000000
    000105  aa   000000 000000
    000106  aa   000000 000000
    000107  aa   000000 000000
    000110  aa   000000 000000
    000111  aa   000000 000000

NO EXTERNAL NAMES

NO TRAP POINTER WORDS

TYPE PAIR BLOCKS

    000112  aa   000001 000000
    000113  aa   000000 000000

INTERNAL EXPRESSION WORDS

LINKAGE INFORMATION

    000000  aa   000000 000000
    000001  0a   000040 000000
    000002  aa   000000 000000
    000003  aa   000000 000000
    000004  aa   000000 000000
    000005  aa   000000 000000
    000006  22   000010 000010
    000007  a2   000000 000000
SYMBOL INFORMATION

SYMBOL TABLE HEADER

    000000  aa   000000 000001
    000001  aa   163171 155142
    000002  aa   164162 145145
    000003  aa   000000 000004
    000004  aa   000000 111316
    000005  aa   510113 575622
    000006  aa   000000 111335
    000007  aa   722650 127613
    000010  aa   141154 155040
    000011  aa   040040 040040
    000012  aa   000024 000040
    000013  aa   000034 000040
    000014  aa   000044 000100
    000015  aa   000002 000002
    000016  aa   000064 000000
    000017  aa   000000 000120
    000020  aa   000000 000103
    000021  aa   000000 000107
    000022  aa   000112 000103
    000023  aa   000064 000000
    000024  aa   101114 115040
    000025  aa   126145 162163
    000026  aa   151157 156040
    000027  aa   040066 056064
    000030  aa   040040 101160
    000031  aa   162151 154040
    000032  aa   061071 070061
    000033  aa   040040 040040
    000034  aa   110157 154155
    000035  aa   163164 145144
    000036  aa   164056 123171
    000037  aa   163115 141151
    000040  aa   156164 056155
    000041  aa   040040 040040
    000042  aa   040040 040040
    000043  aa   040040 040040
    000044  aa   154151 163164
    000045  aa   040040 040040
    000046  aa   040040 040040
    000047  aa   040040 040040
    000050  aa   040040 040040
    000051  aa   040040 040040
    000052  aa   040040 040040
    000053  aa   040040 040040
    000054  aa   040040 040040
    000055  aa   040040 040040
    000056  aa   040040 040040
    000057  aa   040040 040040
    000060  aa   040040 040040
    000061  aa   040040 040040
    000062  aa   040040 040040
    000063  aa   040040 040040
    000064  aa   000000 000001
    000065  aa   000000 000001
    000066  aa   000072 000042
    000067  aa   113331 137071
    000070  aa   000000 111335
    000071  aa   624232 000000
    000072  aa   076144 165155          >dumps>old>recomp>status_data_.alm
    000073  aa   160163 076157
    000074  aa   154144 076162
    000075  aa   145143 157155
    000076  aa   160076 163164
    000077  aa   141164 165163
    000100  aa   137144 141164
    000101  aa   141137 056141
    000102  aa   154155 040040
               MULTICS ASSEMBLY CROSS REFERENCE LISTING

   Value        Symbol                   Source file   Line number

          20    dir_mode                 status_data_:        43,   45.
           0    mode                     status_data_:        17,   19.


NO FATAL ERRORS


                                          -----------------------------------------------------------


Historical Background

This edition of the Multics software materials and documentation is provided and donated
to Massachusetts Institute of Technology by Group BULL including BULL HN Information Systems Inc.
as a contribution to computer science knowledge.
This donation is made also to give evidence of the common contributions of Massachusetts Institute of Technology,
Bell Laboratories, General Electric, Honeywell Information Systems Inc., Honeywell BULL Inc., Groupe BULL
and BULL HN Information Systems Inc. to the development of this operating system.
Multics development was initiated by Massachusetts Institute of Technology Project MAC (1963-1970),
renamed the MIT Laboratory for Computer Science and Artificial Intelligence in the mid 1970s, under the leadership
of Professor Fernando Jose Corbato. Users consider that Multics provided the best software architecture
for managing computer hardware properly and for executing programs. Many subsequent operating systems
incorporated Multics principles.
Multics was distributed in 1975 to 2000 by Group Bull in Europe , and in the U.S. by Bull HN Information Systems Inc.,
as successor in interest by change in name only to Honeywell Bull Inc. and Honeywell Information Systems Inc. .

                                          -----------------------------------------------------------

Permission to use, copy, modify, and distribute these programs and their documentation for any purpose and without
fee is hereby granted,provided that the below copyright notice and historical background appear in all copies
and that both the copyright notice and historical background and this permission notice appear in supporting
documentation, and that the names of MIT, HIS, BULL or BULL HN not be used in advertising or publicity pertaining
to distribution of the programs without specific prior written permission.
    Copyright 1972 by Massachusetts Institute of Technology and Honeywell Information Systems Inc.
    Copyright 2006 by BULL HN Information Systems Inc.
    Copyright 2006 by Bull SAS
    All Rights Reserved
