ASSEMBLY LISTING OF SEGMENT >special_ldd>on>09/12/83>tape_status_table_.alm
ASSEMBLED ON:	09/12/83  1113.0 mst Mon
OPTIONS USED:	list
ASSEMBLED BY:	ALM Version  6.4  April 1981
ASSEMBLER CREATED:	11/03/82  1423.6 mst Wed

                                     1  " ***********************************************************
                                     2  " *                                                         *
                                     3  " * Copyright, (C) Honeywell Information Systems Inc., 1982 *
                                     4  " *                                                         *
                                     5  " ***********************************************************
                                     6  " TAPE_STATUS_TABLE - Status Tables for Magnetic Tape.
                                     7  "	coded 12/2/74 by Noel I. Morris
                                     8  "	modified 4/79 by R.J.C. Kissel to add major status 0, and use alm macros.
                                     9  "	modified 10/80 by R.L. Coppola to define the TCA for TCA malfunction status.
                                    10
                                    11  "  ******************************************************
                                    12  "  *                                                    *
                                    13  "  *                                                    *
                                    14  "  * Copyright (c) 1972 by Massachusetts Institute of   *
                                    15  "  * Technology and Honeywell Information Systems, Inc. *
                                    16  "  *                                                    *
                                    17  "  *                                                    *
                                    18  "  ******************************************************
                                    19
                                    20
                                    21  	include	status_table
                                   1-1  " Macro definitions for peripheral status table generation.
                                   1-2  "	created 12/1/74 by Noel I. Morris
                                   1-3  "	last modified 6/10/75 by Noel I. Morris
                                   1-4  "	last modified 4/79 by R.J.C. Kissel to make alm macros instead of mexp.
                                   1-5  "	last modified 7/83 by E. N. Kittlitz to add eurc_nobk.
                                   1-6
                                   1-7  	macro	status_table
                              1    1-8
                              2    1-9  	name	&1_status_table_
                              3   1-10
                              4   1-11  	segdef	&1_status_table_
                              5   1-12
                              6   1-13
                              7   1-14  	bool	bk,400000		retry previous operation
                              8   1-15  	bool	in,200000		set backup flag if status.initiate
                              9   1-16  	bool	rp,100000		report this error online
                             10   1-17  	bool	hlt,040000	this error stops device
                             11   1-18  	bool	eurc_nobk,020000	ignore bk if eurc connection
                             12   1-19
                             13   1-20  &1_status_table_:
                             14   1-21
                             15   1-22  &(2&=&i,0&[	zero	0,0
                             16   1-23  &;	zero	m&x,lm&x
                             17   1-24  	set	lm&x,0
                             18   1-25  &]&)
                             19   1-26
                             20   1-27  &end
                                  1-28
                                  1-29
                                  1-30  	macro	status_entry
                              1   1-31
                              2   1-32  m&1:	aci	"&2",24
                              3   1-33
                              4   1-34  &end
                                  1-35
                                  1-36
                                  1-37  	macro	substat_entry
                              1   1-38  	set	lm&1,lm&1+1
                              2   1-39  	aci	"&2",6
                              3   1-40  	vfd	o18/&3
                              4   1-41  	aci	"&4",32
                              5   1-42
                              6   1-43  &end
                                  1-44
                                  1-45
                                    22
                                    23
                                    24  " 
                                    25  "  The 1's and 0's in the second argument to the status_table macro correspond
                                    26  "  to the major statuses which will be in the generated table.
                                    27
                                    28  	status_table	tape,(1,1,1,1,1,1,0,0,0,0,1,1,0,1,0,0)

    000000                              	name	tape_status_table_

                        000000          	segdef	tape_status_table_


                        400000          	bool	bk,400000		retry previous operation
                        200000          	bool	in,200000		set backup flag if status.initiate
                        100000          	bool	rp,100000		report this error online
                        040000          	bool	hlt,040000	this error stops device
                        020000          	bool	eurc_nobk,020000	ignore bk if eurc connection

    000000                              tape_status_table_:

    000000  0a   000020 000010          	zero	m1,lm1
                        000000          	set	lm1,0
    000001  0a   000156 000004          	zero	m2,lm2
                        000000          	set	lm2,0
    000002  0a   000240 000005          	zero	m3,lm3
                        000000          	set	lm3,0
    000003  0a   000335 000007          	zero	m4,lm4
                        000000          	set	lm4,0
    000004  0a   000460 000003          	zero	m5,lm5
                        000000          	set	lm5,0
    000005  0a   000527 000007          	zero	m6,lm6
                        000000          	set	lm6,0
    000006  aa   000000 000000          	zero	0,0
    000007  aa   000000 000000          	zero	0,0
    000010  aa   000000 000000          	zero	0,0
    000011  aa   000000 000000          	zero	0,0
    000012  0a   000652 000010          	zero	m11,lm11
                        000000          	set	lm11,0
    000013  0a   001010 000015          	zero	m12,lm12
                        000000          	set	lm12,0
    000014  aa   000000 000000          	zero	0,0
    000015  0a   001235 000004          	zero	m14,lm14
                        000000          	set	lm14,0
    000016  aa   000000 000000          	zero	0,0
    000017  aa   000000 000000          	zero	0,0


                                    29
                                    30  "
                                    31
                                    32  	status_entry	1,(Device Ready)

    000020  aa  104 145 166 151         m1:	aci	"Device Ready",24
    000021  aa  143 145 040 122
    000022  aa  145 141 144 171
    000023  aa  040 040 040 040
    000024  aa  040 040 040 040
    000025  aa  040 040 040 040

                                    33
                                    34  	substat_entry	1,000000,,(Ready)
                        000001          	set	lm1,lm1+1
    000026  aa  060 060 060 060         	aci	"000000",6
    000027  aa  060 060 000 000
    000030  aa   000000 000000          	vfd	o18/
    000031  aa  122 145 141 144         	aci	"Ready",32
    000032  aa  171 040 040 040
    000033  aa  040 040 040 040
    000034  aa  040 040 040 040
    000035  aa  040 040 040 040
    000036  aa  040 040 040 040
    000037  aa  040 040 040 040
    000040  aa  040 040 040 040

                                    35  	substat_entry	1,XX0XX1,,(Write protected)
                        000002          	set	lm1,lm1+1
    000041  aa  130 130 060 130         	aci	"XX0XX1",6
    000042  aa  130 061 000 000
    000043  aa   000000 000000          	vfd	o18/
    000044  aa  127 162 151 164         	aci	"Write protected",32
    000045  aa  145 040 160 162
    000046  aa  157 164 145 143
    000047  aa  164 145 144 040
    000050  aa  040 040 040 040
    000051  aa  040 040 040 040
    000052  aa  040 040 040 040
    000053  aa  040 040 040 040

                                    36  	substat_entry	1,000X1X,,(Positioned at BOT)
                        000003          	set	lm1,lm1+1
    000054  aa  060 060 060 130         	aci	"000X1X",6
    000055  aa  061 130 000 000
    000056  aa   000000 000000          	vfd	o18/
    000057  aa  120 157 163 151         	aci	"Positioned at BOT",32
    000060  aa  164 151 157 156
    000061  aa  145 144 040 141
    000062  aa  164 040 102 117
    000063  aa  124 040 040 040
    000064  aa  040 040 040 040
    000065  aa  040 040 040 040
    000066  aa  040 040 040 040

                                    37  	substat_entry	1,XXX1XX,,(Nine track handler)
                        000004          	set	lm1,lm1+1
    000067  aa  130 130 130 061         	aci	"XXX1XX",6
    000070  aa  130 130 000 000
    000071  aa   000000 000000          	vfd	o18/
    000072  aa  116 151 156 145         	aci	"Nine track handler",32
    000073  aa  040 164 162 141
    000074  aa  143 153 040 150
    000075  aa  141 156 144 154
    000076  aa  145 162 040 040
    000077  aa  040 040 040 040
    000100  aa  040 040 040 040
    000101  aa  040 040 040 040

                                    38  	substat_entry	1,010X0X,,(Two bit fill)
                        000005          	set	lm1,lm1+1
    000102  aa  060 061 060 130         	aci	"010X0X",6
    000103  aa  060 130 000 000
    000104  aa   000000 000000          	vfd	o18/
    000105  aa  124 167 157 040         	aci	"Two bit fill",32
    000106  aa  142 151 164 040
    000107  aa  146 151 154 154
    000110  aa  040 040 040 040
    000111  aa  040 040 040 040
    000112  aa  040 040 040 040
    000113  aa  040 040 040 040
    000114  aa  040 040 040 040

                                    39  	substat_entry	1,100X0X,,(Four bit fill)
                        000006          	set	lm1,lm1+1
    000115  aa  061 060 060 130         	aci	"100X0X",6
    000116  aa  060 130 000 000
    000117  aa   000000 000000          	vfd	o18/
    000120  aa  106 157 165 162         	aci	"Four bit fill",32
    000121  aa  040 142 151 164
    000122  aa  040 146 151 154
    000123  aa  154 040 040 040
    000124  aa  040 040 040 040
    000125  aa  040 040 040 040
    000126  aa  040 040 040 040
    000127  aa  040 040 040 040

                                    40  	substat_entry	1,110X0X,,(Six bit fill)
                        000007          	set	lm1,lm1+1
    000130  aa  061 061 060 130         	aci	"110X0X",6
    000131  aa  060 130 000 000
    000132  aa   000000 000000          	vfd	o18/
    000133  aa  123 151 170 040         	aci	"Six bit fill",32
    000134  aa  142 151 164 040
    000135  aa  146 151 154 154
    000136  aa  040 040 040 040
    000137  aa  040 040 040 040
    000140  aa  040 040 040 040
    000141  aa  040 040 040 040
    000142  aa  040 040 040 040

                                    41  	substat_entry	1,001100,,(ASCII alert)
                        000010          	set	lm1,lm1+1
    000143  aa  060 060 061 061         	aci	"001100",6
    000144  aa  060 060 000 000
    000145  aa   000000 000000          	vfd	o18/
    000146  aa  101 123 103 111         	aci	"ASCII alert",32
    000147  aa  111 040 141 154
    000150  aa  145 162 164 040
    000151  aa  040 040 040 040
    000152  aa  040 040 040 040
    000153  aa  040 040 040 040
    000154  aa  040 040 040 040
    000155  aa  040 040 040 040

                                    42
                                    43  " 
                                    44
                                    45  	status_entry	2,(Device Busy)

    000156  aa  104 145 166 151         m2:	aci	"Device Busy",24
    000157  aa  143 145 040 102
    000160  aa  165 163 171 040
    000161  aa  040 040 040 040
    000162  aa  040 040 040 040
    000163  aa  040 040 040 040

                                    46
                                    47  	substat_entry	2,000001,,(Tape rewinding)
                        000001          	set	lm2,lm2+1
    000164  aa  060 060 060 060         	aci	"000001",6
    000165  aa  060 061 000 000
    000166  aa   000000 000000          	vfd	o18/
    000167  aa  124 141 160 145         	aci	"Tape rewinding",32
    000170  aa  040 162 145 167
    000171  aa  151 156 144 151
    000172  aa  156 147 040 040
    000173  aa  040 040 040 040
    000174  aa  040 040 040 040
    000175  aa  040 040 040 040
    000176  aa  040 040 040 040

                                    48  	substat_entry	2,100000,,(Device reserved)
                        000002          	set	lm2,lm2+1
    000177  aa  061 060 060 060         	aci	"100000",6
    000200  aa  060 060 000 000
    000201  aa   000000 000000          	vfd	o18/
    000202  aa  104 145 166 151         	aci	"Device reserved",32
    000203  aa  143 145 040 162
    000204  aa  145 163 145 162
    000205  aa  166 145 144 040
    000206  aa  040 040 040 040
    000207  aa  040 040 040 040
    000210  aa  040 040 040 040
    000211  aa  040 040 040 040

                                    49  	substat_entry	2,000010,,(Alternate channel in control)
                        000003          	set	lm2,lm2+1
    000212  aa  060 060 060 060         	aci	"000010",6
    000213  aa  061 060 000 000
    000214  aa   000000 000000          	vfd	o18/
    000215  aa  101 154 164 145         	aci	"Alternate channel in control",32
    000216  aa  162 156 141 164
    000217  aa  145 040 143 150
    000220  aa  141 156 156 145
    000221  aa  154 040 151 156
    000222  aa  040 143 157 156
    000223  aa  164 162 157 154
    000224  aa  040 040 040 040

                                    50  	substat_entry	2,000100,,(Device loading)
                        000004          	set	lm2,lm2+1
    000225  aa  060 060 060 061         	aci	"000100",6
    000226  aa  060 060 000 000
    000227  aa   000000 000000          	vfd	o18/
    000230  aa  104 145 166 151         	aci	"Device loading",32
    000231  aa  143 145 040 154
    000232  aa  157 141 144 151
    000233  aa  156 147 040 040
    000234  aa  040 040 040 040
    000235  aa  040 040 040 040
    000236  aa  040 040 040 040
    000237  aa  040 040 040 040

                                    51
                                    52  " 
                                    53
                                    54  	status_entry	3,(Device Attention)

    000240  aa  104 145 166 151         m3:	aci	"Device Attention",24
    000241  aa  143 145 040 101
    000242  aa  164 164 145 156
    000243  aa  164 151 157 156
    000244  aa  040 040 040 040
    000245  aa  040 040 040 040

                                    55
                                    56  	substat_entry	3,00XX01,,(Write protected)
                        000001          	set	lm3,lm3+1
    000246  aa  060 060 130 130         	aci	"00XX01",6
    000247  aa  060 061 000 000
    000250  aa   000000 000000          	vfd	o18/
    000251  aa  127 162 151 164         	aci	"Write protected",32
    000252  aa  145 040 160 162
    000253  aa  157 164 145 143
    000254  aa  164 145 144 040
    000255  aa  040 040 040 040
    000256  aa  040 040 040 040
    000257  aa  040 040 040 040
    000260  aa  040 040 040 040

                                    57  	substat_entry	3,000010,,(No such tape handler)
                        000002          	set	lm3,lm3+1
    000261  aa  060 060 060 060         	aci	"000010",6
    000262  aa  061 060 000 000
    000263  aa   000000 000000          	vfd	o18/
    000264  aa  116 157 040 163         	aci	"No such tape handler",32
    000265  aa  165 143 150 040
    000266  aa  164 141 160 145
    000267  aa  040 150 141 156
    000270  aa  144 154 145 162
    000271  aa  040 040 040 040
    000272  aa  040 040 040 040
    000273  aa  040 040 040 040

                                    58  	substat_entry	3,0XX10X,,(Handler in standby)
                        000003          	set	lm3,lm3+1
    000274  aa  060 130 130 061         	aci	"0XX10X",6
    000275  aa  060 130 000 000
    000276  aa   000000 000000          	vfd	o18/
    000277  aa  110 141 156 144         	aci	"Handler in standby",32
    000300  aa  154 145 162 040
    000301  aa  151 156 040 163
    000302  aa  164 141 156 144
    000303  aa  142 171 040 040
    000304  aa  040 040 040 040
    000305  aa  040 040 040 040
    000306  aa  040 040 040 040

                                    59  	substat_entry	3,0X1X0X,,(Handler check)
                        000004          	set	lm3,lm3+1
    000307  aa  060 130 061 130         	aci	"0X1X0X",6
    000310  aa  060 130 000 000
    000311  aa   000000 000000          	vfd	o18/
    000312  aa  110 141 156 144         	aci	"Handler check",32
    000313  aa  154 145 162 040
    000314  aa  143 150 145 143
    000315  aa  153 040 040 040
    000316  aa  040 040 040 040
    000317  aa  040 040 040 040
    000320  aa  040 040 040 040
    000321  aa  040 040 040 040

                                    60  	substat_entry	3,01XX00,,(Blank tape on write)
                        000005          	set	lm3,lm3+1
    000322  aa  060 061 130 130         	aci	"01XX00",6
    000323  aa  060 060 000 000
    000324  aa   000000 000000          	vfd	o18/
    000325  aa  102 154 141 156         	aci	"Blank tape on write",32
    000326  aa  153 040 164 141
    000327  aa  160 145 040 157
    000330  aa  156 040 167 162
    000331  aa  151 164 145 040
    000332  aa  040 040 040 040
    000333  aa  040 040 040 040
    000334  aa  040 040 040 040

                                    61
                                    62  " 
                                    63
                                    64  	status_entry	4,(Device Data Alert)

    000335  aa  104 145 166 151         m4:	aci	"Device Data Alert",24
    000336  aa  143 145 040 104
    000337  aa  141 164 141 040
    000340  aa  101 154 145 162
    000341  aa  164 040 040 040
    000342  aa  040 040 040 040

                                    65
                                    66  	substat_entry	4,000001,,(Transfer timing alert)
                        000001          	set	lm4,lm4+1
    000343  aa  060 060 060 060         	aci	"000001",6
    000344  aa  060 061 000 000
    000345  aa   000000 000000          	vfd	o18/
    000346  aa  124 162 141 156         	aci	"Transfer timing alert",32
    000347  aa  163 146 145 162
    000350  aa  040 164 151 155
    000351  aa  151 156 147 040
    000352  aa  141 154 145 162
    000353  aa  164 040 040 040
    000354  aa  040 040 040 040
    000355  aa  040 040 040 040

                                    67  	substat_entry	4,000010,,(Blank tape on read)
                        000002          	set	lm4,lm4+1
    000356  aa  060 060 060 060         	aci	"000010",6
    000357  aa  061 060 000 000
    000360  aa   000000 000000          	vfd	o18/
    000361  aa  102 154 141 156         	aci	"Blank tape on read",32
    000362  aa  153 040 164 141
    000363  aa  160 145 040 157
    000364  aa  156 040 162 145
    000365  aa  141 144 040 040
    000366  aa  040 040 040 040
    000367  aa  040 040 040 040
    000370  aa  040 040 040 040

                                    68  	substat_entry	4,XXXX11,,(Bit detected during erase)
                        000003          	set	lm4,lm4+1
    000371  aa  130 130 130 130         	aci	"XXXX11",6
    000372  aa  061 061 000 000
    000373  aa   000000 000000          	vfd	o18/
    000374  aa  102 151 164 040         	aci	"Bit detected during erase",32
    000375  aa  144 145 164 145
    000376  aa  143 164 145 144
    000377  aa  040 144 165 162
    000400  aa  151 156 147 040
    000401  aa  145 162 141 163
    000402  aa  145 040 040 040
    000403  aa  040 040 040 040

                                    69  	substat_entry	4,XXX1XX,,(Transmission parity alert)
                        000004          	set	lm4,lm4+1
    000404  aa  130 130 130 061         	aci	"XXX1XX",6
    000405  aa  130 130 000 000
    000406  aa   000000 000000          	vfd	o18/
    000407  aa  124 162 141 156         	aci	"Transmission parity alert",32
    000410  aa  163 155 151 163
    000411  aa  163 151 157 156
    000412  aa  040 160 141 162
    000413  aa  151 164 171 040
    000414  aa  141 154 145 162
    000415  aa  164 040 040 040
    000416  aa  040 040 040 040

                                    70  	substat_entry	4,XX1XXX,,(Lateral parity alert)
                        000005          	set	lm4,lm4+1
    000417  aa  130 130 061 130         	aci	"XX1XXX",6
    000420  aa  130 130 000 000
    000421  aa   000000 000000          	vfd	o18/
    000422  aa  114 141 164 145         	aci	"Lateral parity alert",32
    000423  aa  162 141 154 040
    000424  aa  160 141 162 151
    000425  aa  164 171 040 141
    000426  aa  154 145 162 164
    000427  aa  040 040 040 040
    000430  aa  040 040 040 040
    000431  aa  040 040 040 040

                                    71  	substat_entry	4,X1XXXX,,(Longitudinal parity alert)
                        000006          	set	lm4,lm4+1
    000432  aa  130 061 130 130         	aci	"X1XXXX",6
    000433  aa  130 130 000 000
    000434  aa   000000 000000          	vfd	o18/
    000435  aa  114 157 156 147         	aci	"Longitudinal parity alert",32
    000436  aa  151 164 165 144
    000437  aa  151 156 141 154
    000440  aa  040 160 141 162
    000441  aa  151 164 171 040
    000442  aa  141 154 145 162
    000443  aa  164 040 040 040
    000444  aa  040 040 040 040

                                    72  	substat_entry	4,1XXXXX,,(End of tape mark detected)
                        000007          	set	lm4,lm4+1
    000445  aa  061 130 130 130         	aci	"1XXXXX",6
    000446  aa  130 130 000 000
    000447  aa   000000 000000          	vfd	o18/
    000450  aa  105 156 144 040         	aci	"End of tape mark detected",32
    000451  aa  157 146 040 164
    000452  aa  141 160 145 040
    000453  aa  155 141 162 153
    000454  aa  040 144 145 164
    000455  aa  145 143 164 145
    000456  aa  144 040 040 040
    000457  aa  040 040 040 040

                                    73
                                    74  " 
                                    75
                                    76  	status_entry	5,(End of File)

    000460  aa  105 156 144 040         m5:	aci	"End of File",24
    000461  aa  157 146 040 106
    000462  aa  151 154 145 040
    000463  aa  040 040 040 040
    000464  aa  040 040 040 040
    000465  aa  040 040 040 040

                                    77
                                    78  	substat_entry	5,001111,,(7 track EOF)
                        000001          	set	lm5,lm5+1
    000466  aa  060 060 061 061         	aci	"001111",6
    000467  aa  061 061 000 000
    000470  aa   000000 000000          	vfd	o18/
    000471  aa  067 040 164 162         	aci	"7 track EOF",32
    000472  aa  141 143 153 040
    000473  aa  105 117 106 040
    000474  aa  040 040 040 040
    000475  aa  040 040 040 040
    000476  aa  040 040 040 040
    000477  aa  040 040 040 040
    000500  aa  040 040 040 040

                                    79  	substat_entry	5,010011,,(9 track EOF)
                        000002          	set	lm5,lm5+1
    000501  aa  060 061 060 060         	aci	"010011",6
    000502  aa  061 061 000 000
    000503  aa   000000 000000          	vfd	o18/
    000504  aa  071 040 164 162         	aci	"9 track EOF",32
    000505  aa  141 143 153 040
    000506  aa  105 117 106 040
    000507  aa  040 040 040 040
    000510  aa  040 040 040 040
    000511  aa  040 040 040 040
    000512  aa  040 040 040 040
    000513  aa  040 040 040 040

                                    80  	substat_entry	5,111111,,(Data alert condition)
                        000003          	set	lm5,lm5+1
    000514  aa  061 061 061 061         	aci	"111111",6
    000515  aa  061 061 000 000
    000516  aa   000000 000000          	vfd	o18/
    000517  aa  104 141 164 141         	aci	"Data alert condition",32
    000520  aa  040 141 154 145
    000521  aa  162 164 040 143
    000522  aa  157 156 144 151
    000523  aa  164 151 157 156
    000524  aa  040 040 040 040
    000525  aa  040 040 040 040
    000526  aa  040 040 040 040

                                    81
                                    82  " 
                                    83
                                    84  	status_entry	6,(Command Reject)

    000527  aa  103 157 155 155         m6:	aci	"Command Reject",24
    000530  aa  141 156 144 040
    000531  aa  122 145 152 145
    000532  aa  143 164 040 040
    000533  aa  040 040 040 040
    000534  aa  040 040 040 040

                                    85
                                    86  	substat_entry	6,000000,,(Invalid density)
                        000001          	set	lm6,lm6+1
    000535  aa  060 060 060 060         	aci	"000000",6
    000536  aa  060 060 000 000
    000537  aa   000000 000000          	vfd	o18/
    000540  aa  111 156 166 141         	aci	"Invalid density",32
    000541  aa  154 151 144 040
    000542  aa  144 145 156 163
    000543  aa  151 164 171 040
    000544  aa  040 040 040 040
    000545  aa  040 040 040 040
    000546  aa  040 040 040 040
    000547  aa  040 040 040 040

                                    87  	substat_entry	6,000XX1,,(Invalid operation code)
                        000002          	set	lm6,lm6+1
    000550  aa  060 060 060 130         	aci	"000XX1",6
    000551  aa  130 061 000 000
    000552  aa   000000 000000          	vfd	o18/
    000553  aa  111 156 166 141         	aci	"Invalid operation code",32
    000554  aa  154 151 144 040
    000555  aa  157 160 145 162
    000556  aa  141 164 151 157
    000557  aa  156 040 143 157
    000560  aa  144 145 040 040
    000561  aa  040 040 040 040
    000562  aa  040 040 040 040

                                    88  	substat_entry	6,000X1X,,(Invalid device code)
                        000003          	set	lm6,lm6+1
    000563  aa  060 060 060 130         	aci	"000X1X",6
    000564  aa  061 130 000 000
    000565  aa   000000 000000          	vfd	o18/
    000566  aa  111 156 166 141         	aci	"Invalid device code",32
    000567  aa  154 151 144 040
    000570  aa  144 145 166 151
    000571  aa  143 145 040 143
    000572  aa  157 144 145 040
    000573  aa  040 040 040 040
    000574  aa  040 040 040 040
    000575  aa  040 040 040 040

                                    89  	substat_entry	6,0001XX,,(Invalid IDCW parity)
                        000004          	set	lm6,lm6+1
    000576  aa  060 060 060 061         	aci	"0001XX",6
    000577  aa  130 130 000 000
    000600  aa   000000 000000          	vfd	o18/
    000601  aa  111 156 166 141         	aci	"Invalid IDCW parity",32
    000602  aa  154 151 144 040
    000603  aa  111 104 103 127
    000604  aa  040 160 141 162
    000605  aa  151 164 171 040
    000606  aa  040 040 040 040
    000607  aa  040 040 040 040
    000610  aa  040 040 040 040

                                    90  	substat_entry	6,001000,,(Positioned at BOT)
                        000005          	set	lm6,lm6+1
    000611  aa  060 060 061 060         	aci	"001000",6
    000612  aa  060 060 000 000
    000613  aa   000000 000000          	vfd	o18/
    000614  aa  120 157 163 151         	aci	"Positioned at BOT",32
    000615  aa  164 151 157 156
    000616  aa  145 144 040 141
    000617  aa  164 040 102 117
    000620  aa  124 040 040 040
    000621  aa  040 040 040 040
    000622  aa  040 040 040 040
    000623  aa  040 040 040 040

                                    91  	substat_entry	6,010000,,(Forward read after write)
                        000006          	set	lm6,lm6+1
    000624  aa  060 061 060 060         	aci	"010000",6
    000625  aa  060 060 000 000
    000626  aa   000000 000000          	vfd	o18/
    000627  aa  106 157 162 167         	aci	"Forward read after write",32
    000630  aa  141 162 144 040
    000631  aa  162 145 141 144
    000632  aa  040 141 146 164
    000633  aa  145 162 040 167
    000634  aa  162 151 164 145
    000635  aa  040 040 040 040
    000636  aa  040 040 040 040

                                    92  	substat_entry	6,100000,,(Nine track error)
                        000007          	set	lm6,lm6+1
    000637  aa  061 060 060 060         	aci	"100000",6
    000640  aa  060 060 000 000
    000641  aa   000000 000000          	vfd	o18/
    000642  aa  116 151 156 145         	aci	"Nine track error",32
    000643  aa  040 164 162 141
    000644  aa  143 153 040 145
    000645  aa  162 162 157 162
    000646  aa  040 040 040 040
    000647  aa  040 040 040 040
    000650  aa  040 040 040 040
    000651  aa  040 040 040 040

                                    93
                                    94  " 
                                    95
                                    96  	status_entry	11,(MPC Attention)

    000652  aa  115 120 103 040         m11:	aci	"MPC Attention",24
    000653  aa  101 164 164 145
    000654  aa  156 164 151 157
    000655  aa  156 040 040 040
    000656  aa  040 040 040 040
    000657  aa  040 040 040 040

                                    97
                                    98  	substat_entry	11,000001,,(Configuration switch error)
                        000001          	set	lm11,lm11+1
    000660  aa  060 060 060 060         	aci	"000001",6
    000661  aa  060 061 000 000
    000662  aa   000000 000000          	vfd	o18/
    000663  aa  103 157 156 146         	aci	"Configuration switch error",32
    000664  aa  151 147 165 162
    000665  aa  141 164 151 157
    000666  aa  156 040 163 167
    000667  aa  151 164 143 150
    000670  aa  040 145 162 162
    000671  aa  157 162 040 040
    000672  aa  040 040 040 040

                                    99  	substat_entry	11,000010,,(Multiple devices)
                        000002          	set	lm11,lm11+1
    000673  aa  060 060 060 060         	aci	"000010",6
    000674  aa  061 060 000 000
    000675  aa   000000 000000          	vfd	o18/
    000676  aa  115 165 154 164         	aci	"Multiple devices",32
    000677  aa  151 160 154 145
    000700  aa  040 144 145 166
    000701  aa  151 143 145 163
    000702  aa  040 040 040 040
    000703  aa  040 040 040 040
    000704  aa  040 040 040 040
    000705  aa  040 040 040 040

                                   100  	substat_entry	11,000011,,(Illegal device number)
                        000003          	set	lm11,lm11+1
    000706  aa  060 060 060 060         	aci	"000011",6
    000707  aa  061 061 000 000
    000710  aa   000000 000000          	vfd	o18/
    000711  aa  111 154 154 145         	aci	"Illegal device number",32
    000712  aa  147 141 154 040
    000713  aa  144 145 166 151
    000714  aa  143 145 040 156
    000715  aa  165 155 142 145
    000716  aa  162 040 040 040
    000717  aa  040 040 040 040
    000720  aa  040 040 040 040

                                   101  	substat_entry	11,001000,,(Incompatible mode)
                        000004          	set	lm11,lm11+1
    000721  aa  060 060 061 060         	aci	"001000",6
    000722  aa  060 060 000 000
    000723  aa   000000 000000          	vfd	o18/
    000724  aa  111 156 143 157         	aci	"Incompatible mode",32
    000725  aa  155 160 141 164
    000726  aa  151 142 154 145
    000727  aa  040 155 157 144
    000730  aa  145 040 040 040
    000731  aa  040 040 040 040
    000732  aa  040 040 040 040
    000733  aa  040 040 040 040

                                   102  	substat_entry	11,001100,,(TCA malfunction (0))
                        000005          	set	lm11,lm11+1
    000734  aa  060 060 061 061         	aci	"001100",6
    000735  aa  060 060 000 000
    000736  aa   000000 000000          	vfd	o18/
    000737  aa  124 103 101 040         	aci	"TCA malfunction (0)",32
    000740  aa  155 141 154 146
    000741  aa  165 156 143 164
    000742  aa  151 157 156 040
    000743  aa  050 060 051 040
    000744  aa  040 040 040 040
    000745  aa  040 040 040 040
    000746  aa  040 040 040 040

                                   103  	substat_entry	11,001101,,(TCA malfunction (1))
                        000006          	set	lm11,lm11+1
    000747  aa  060 060 061 061         	aci	"001101",6
    000750  aa  060 061 000 000
    000751  aa   000000 000000          	vfd	o18/
    000752  aa  124 103 101 040         	aci	"TCA malfunction (1)",32
    000753  aa  155 141 154 146
    000754  aa  165 156 143 164
    000755  aa  151 157 156 040
    000756  aa  050 061 051 040
    000757  aa  040 040 040 040
    000760  aa  040 040 040 040
    000761  aa  040 040 040 040

                                   104  	substat_entry	11,010000,,(MTH malfunction)
                        000007          	set	lm11,lm11+1
    000762  aa  060 061 060 060         	aci	"010000",6
    000763  aa  060 060 000 000
    000764  aa   000000 000000          	vfd	o18/
    000765  aa  115 124 110 040         	aci	"MTH malfunction",32
    000766  aa  155 141 154 146
    000767  aa  165 156 143 164
    000770  aa  151 157 156 040
    000771  aa  040 040 040 040
    000772  aa  040 040 040 040
    000773  aa  040 040 040 040
    000774  aa  040 040 040 040

                                   105  	substat_entry	11,010001,,(Multiple BOT)
                        000010          	set	lm11,lm11+1
    000775  aa  060 061 060 060         	aci	"010001",6
    000776  aa  060 061 000 000
    000777  aa   000000 000000          	vfd	o18/
    001000  aa  115 165 154 164         	aci	"Multiple BOT",32
    001001  aa  151 160 154 145
    001002  aa  040 102 117 124
    001003  aa  040 040 040 040
    001004  aa  040 040 040 040
    001005  aa  040 040 040 040
    001006  aa  040 040 040 040
    001007  aa  040 040 040 040

                                   106
                                   107  " 
                                   108
                                   109  	status_entry	12,(MPC Data Alert)

    001010  aa  115 120 103 040         m12:	aci	"MPC Data Alert",24
    001011  aa  104 141 164 141
    001012  aa  040 101 154 145
    001013  aa  162 164 040 040
    001014  aa  040 040 040 040
    001015  aa  040 040 040 040

                                   110
                                   111  	substat_entry	12,000001,,(Transmission parity alert)
                        000001          	set	lm12,lm12+1
    001016  aa  060 060 060 060         	aci	"000001",6
    001017  aa  060 061 000 000
    001020  aa   000000 000000          	vfd	o18/
    001021  aa  124 162 141 156         	aci	"Transmission parity alert",32
    001022  aa  163 155 151 163
    001023  aa  163 151 157 156
    001024  aa  040 160 141 162
    001025  aa  151 164 171 040
    001026  aa  141 154 145 162
    001027  aa  164 040 040 040
    001030  aa  040 040 040 040

                                   112  	substat_entry	12,000010,,(Inconsistent command)
                        000002          	set	lm12,lm12+1
    001031  aa  060 060 060 060         	aci	"000010",6
    001032  aa  061 060 000 000
    001033  aa   000000 000000          	vfd	o18/
    001034  aa  111 156 143 157         	aci	"Inconsistent command",32
    001035  aa  156 163 151 163
    001036  aa  164 145 156 164
    001037  aa  040 143 157 155
    001040  aa  155 141 156 144
    001041  aa  040 040 040 040
    001042  aa  040 040 040 040
    001043  aa  040 040 040 040

                                   113  	substat_entry	12,000011,,(Sum check error)
                        000003          	set	lm12,lm12+1
    001044  aa  060 060 060 060         	aci	"000011",6
    001045  aa  061 061 000 000
    001046  aa   000000 000000          	vfd	o18/
    001047  aa  123 165 155 040         	aci	"Sum check error",32
    001050  aa  143 150 145 143
    001051  aa  153 040 145 162
    001052  aa  162 157 162 040
    001053  aa  040 040 040 040
    001054  aa  040 040 040 040
    001055  aa  040 040 040 040
    001056  aa  040 040 040 040

                                   114  	substat_entry	12,000100,,(Byte locked out)
                        000004          	set	lm12,lm12+1
    001057  aa  060 060 060 061         	aci	"000100",6
    001060  aa  060 060 000 000
    001061  aa   000000 000000          	vfd	o18/
    001062  aa  102 171 164 145         	aci	"Byte locked out",32
    001063  aa  040 154 157 143
    001064  aa  153 145 144 040
    001065  aa  157 165 164 040
    001066  aa  040 040 040 040
    001067  aa  040 040 040 040
    001070  aa  040 040 040 040
    001071  aa  040 040 040 040

                                   115  	substat_entry	12,001000,,(ID Burst write error)
                        000005          	set	lm12,lm12+1
    001072  aa  060 060 061 060         	aci	"001000",6
    001073  aa  060 060 000 000
    001074  aa   000000 000000          	vfd	o18/
    001075  aa  111 104 040 102         	aci	"ID Burst write error",32
    001076  aa  165 162 163 164
    001077  aa  040 167 162 151
    001100  aa  164 145 040 145
    001101  aa  162 162 157 162
    001102  aa  040 040 040 040
    001103  aa  040 040 040 040
    001104  aa  040 040 040 040

                                   116  	substat_entry	12,001001,,(Preamble error)
                        000006          	set	lm12,lm12+1
    001105  aa  060 060 061 060         	aci	"001001",6
    001106  aa  060 061 000 000
    001107  aa   000000 000000          	vfd	o18/
    001110  aa  120 162 145 141         	aci	"Preamble error",32
    001111  aa  155 142 154 145
    001112  aa  040 145 162 162
    001113  aa  157 162 040 040
    001114  aa  040 040 040 040
    001115  aa  040 040 040 040
    001116  aa  040 040 040 040
    001117  aa  040 040 040 040

                                   117  	substat_entry	12,001010,,(T&D error)
                        000007          	set	lm12,lm12+1
    001120  aa  060 060 061 060         	aci	"001010",6
    001121  aa  061 060 000 000
    001122  aa   000000 000000          	vfd	o18/
    001123  aa  124 046 104 040         	aci	"T&D error",32
    001124  aa  145 162 162 157
    001125  aa  162 040 040 040
    001126  aa  040 040 040 040
    001127  aa  040 040 040 040
    001130  aa  040 040 040 040
    001131  aa  040 040 040 040
    001132  aa  040 040 040 040

                                   118  	substat_entry	12,010000,,(Multi-track error)
                        000010          	set	lm12,lm12+1
    001133  aa  060 061 060 060         	aci	"010000",6
    001134  aa  060 060 000 000
    001135  aa   000000 000000          	vfd	o18/
    001136  aa  115 165 154 164         	aci	"Multi-track error",32
    001137  aa  151 055 164 162
    001140  aa  141 143 153 040
    001141  aa  145 162 162 157
    001142  aa  162 040 040 040
    001143  aa  040 040 040 040
    001144  aa  040 040 040 040
    001145  aa  040 040 040 040

                                   119  	substat_entry	12,010001,,(Skew error)
                        000011          	set	lm12,lm12+1
    001146  aa  060 061 060 060         	aci	"010001",6
    001147  aa  060 061 000 000
    001150  aa   000000 000000          	vfd	o18/
    001151  aa  123 153 145 167         	aci	"Skew error",32
    001152  aa  040 145 162 162
    001153  aa  157 162 040 040
    001154  aa  040 040 040 040
    001155  aa  040 040 040 040
    001156  aa  040 040 040 040
    001157  aa  040 040 040 040
    001160  aa  040 040 040 040

                                   120  	substat_entry	12,010010,,(Postamble error)
                        000012          	set	lm12,lm12+1
    001161  aa  060 061 060 060         	aci	"010010",6
    001162  aa  061 060 000 000
    001163  aa   000000 000000          	vfd	o18/
    001164  aa  120 157 163 164         	aci	"Postamble error",32
    001165  aa  141 155 142 154
    001166  aa  145 040 145 162
    001167  aa  162 157 162 040
    001170  aa  040 040 040 040
    001171  aa  040 040 040 040
    001172  aa  040 040 040 040
    001173  aa  040 040 040 040

                                   121  	substat_entry	12,010011,,(NRZI CCC error)
                        000013          	set	lm12,lm12+1
    001174  aa  060 061 060 060         	aci	"010011",6
    001175  aa  061 061 000 000
    001176  aa   000000 000000          	vfd	o18/
    001177  aa  116 122 132 111         	aci	"NRZI CCC error",32
    001200  aa  040 103 103 103
    001201  aa  040 145 162 162
    001202  aa  157 162 040 040
    001203  aa  040 040 040 040
    001204  aa  040 040 040 040
    001205  aa  040 040 040 040
    001206  aa  040 040 040 040

                                   122  	substat_entry	12,010100,,(Code alert)
                        000014          	set	lm12,lm12+1
    001207  aa  060 061 060 061         	aci	"010100",6
    001210  aa  060 060 000 000
    001211  aa   000000 000000          	vfd	o18/
    001212  aa  103 157 144 145         	aci	"Code alert",32
    001213  aa  040 141 154 145
    001214  aa  162 164 040 040
    001215  aa  040 040 040 040
    001216  aa  040 040 040 040
    001217  aa  040 040 040 040
    001220  aa  040 040 040 040
    001221  aa  040 040 040 040

                                   123  	substat_entry	12,100000,,(Marginal condition)
                        000015          	set	lm12,lm12+1
    001222  aa  061 060 060 060         	aci	"100000",6
    001223  aa  060 060 000 000
    001224  aa   000000 000000          	vfd	o18/
    001225  aa  115 141 162 147         	aci	"Marginal condition",32
    001226  aa  151 156 141 154
    001227  aa  040 143 157 156
    001230  aa  144 151 164 151
    001231  aa  157 156 040 040
    001232  aa  040 040 040 040
    001233  aa  040 040 040 040
    001234  aa  040 040 040 040

                                   124
                                   125  " 
                                   126
                                   127  	status_entry	14,(MPC Command Reject)

    001235  aa  115 120 103 040         m14:	aci	"MPC Command Reject",24
    001236  aa  103 157 155 155
    001237  aa  141 156 144 040
    001240  aa  122 145 152 145
    001241  aa  143 164 040 040
    001242  aa  040 040 040 040

                                   128
                                   129  	substat_entry	14,000001,,(Illegal procedure)
                        000001          	set	lm14,lm14+1
    001243  aa  060 060 060 060         	aci	"000001",6
    001244  aa  060 061 000 000
    001245  aa   000000 000000          	vfd	o18/
    001246  aa  111 154 154 145         	aci	"Illegal procedure",32
    001247  aa  147 141 154 040
    001250  aa  160 162 157 143
    001251  aa  145 144 165 162
    001252  aa  145 040 040 040
    001253  aa  040 040 040 040
    001254  aa  040 040 040 040
    001255  aa  040 040 040 040

                                   130  	substat_entry	14,000010,,(Illegal logical channel)
                        000002          	set	lm14,lm14+1
    001256  aa  060 060 060 060         	aci	"000010",6
    001257  aa  061 060 000 000
    001260  aa   000000 000000          	vfd	o18/
    001261  aa  111 154 154 145         	aci	"Illegal logical channel",32
    001262  aa  147 141 154 040
    001263  aa  154 157 147 151
    001264  aa  143 141 154 040
    001265  aa  143 150 141 156
    001266  aa  156 145 154 040
    001267  aa  040 040 040 040
    001270  aa  040 040 040 040

                                   131  	substat_entry	14,000011,,(Illegal suspended logical chnnl)
                        000003          	set	lm14,lm14+1
    001271  aa  060 060 060 060         	aci	"000011",6
    001272  aa  061 061 000 000
    001273  aa   000000 000000          	vfd	o18/
    001274  aa  111 154 154 145         	aci	"Illegal suspended logical chnnl",32
    001275  aa  147 141 154 040
    001276  aa  163 165 163 160
    001277  aa  145 156 144 145
    001300  aa  144 040 154 157
    001301  aa  147 151 143 141
    001302  aa  154 040 143 150
    001303  aa  156 156 154 040

                                   132  	substat_entry	14,000100,,(Continue bit not set)
                        000004          	set	lm14,lm14+1
    001304  aa  060 060 060 061         	aci	"000100",6
    001305  aa  060 060 000 000
    001306  aa   000000 000000          	vfd	o18/
    001307  aa  103 157 156 164         	aci	"Continue bit not set",32
    001310  aa  151 156 165 145
    001311  aa  040 142 151 164
    001312  aa  040 156 157 164
    001313  aa  040 163 145 164
    001314  aa  040 040 040 040
    001315  aa  040 040 040 040
    001316  aa  040 040 040 040

                                   133
                                   134
                                   135
                                   136  	end

NO LITERALS

NAME DEFINITIONS FOR ENTRY POINTS AND SEGDEFS

    001320  5a   000003 000000
    001321  5a   000032 600000
    001322  aa   000000 000000
    001323  55   000013 000002
    001324  5a   000002 400003
    001325  55   000006 000013
    001326  aa  022 164 141 160
    001327  aa  145 137 163 164
    001330  aa  141 164 165 163
    001331  aa  137 164 141 142
    001332  aa  154 145 137 000
    001333  55   000023 000003
    001334  0a   000000 400000
    001335  55   000016 000003
    001336  aa  022 164 141 160         tape_status_table_
    001337  aa  145 137 163 164
    001340  aa  141 164 165 163
    001341  aa  137 164 141 142
    001342  aa  154 145 137 000
    001343  55   000002 000013
    001344  6a   000000 400002
    001345  55   000026 000003
    001346  aa  014 163 171 155         symbol_table
    001347  aa  142 157 154 137
    001350  aa  164 141 142 154
    001351  aa  145 000 000 000

DEFINITIONS HASH TABLE

    001352  aa   000000 000015
    001353  aa   000000 000000
    001354  5a   000013 000000
    001355  aa   000000 000000
    001356  aa   000000 000000
    001357  aa   000000 000000
    001360  aa   000000 000000
    001361  5a   000023 000000
    001362  aa   000000 000000
    001363  aa   000000 000000
    001364  aa   000000 000000
    001365  aa   000000 000000
    001366  aa   000000 000000
    001367  aa   000000 000000

NO EXTERNAL NAMES

NO TRAP POINTER WORDS

TYPE PAIR BLOCKS

    001370  aa   000001 000000
    001371  aa   000000 000000

INTERNAL EXPRESSION WORDS

LINKAGE INFORMATION

    000000  aa   000000 000000
    000001  0a   001320 000000
    000002  aa   000000 000000
    000003  aa   000000 000000
    000004  aa   000000 000000
    000005  aa   000000 000000
    000006  22   000010 000010
    000007  a2   000000 000000
SYMBOL INFORMATION

SYMBOL TABLE HEADER

    000000  aa   000000 000001
    000001  aa   163171 155142
    000002  aa   164162 145145
    000003  aa   000000 000004
    000004  aa   000000 111316
    000005  aa   510113 575622
    000006  aa   000000 112130
    000007  aa   002405 235112
    000010  aa   141154 155040
    000011  aa   040040 040040
    000012  aa   000024 000040
    000013  aa   000034 000040
    000014  aa   000044 000100
    000015  aa   000002 000002
    000016  aa   000064 000000
    000017  aa   000000 000213
    000020  aa   000000 000126
    000021  aa   000000 000201
    000022  aa   000204 000126
    000023  aa   000064 000000
    000024  aa   101114 115040
    000025  aa   126145 162163
    000026  aa   151157 156040
    000027  aa   040066 056064
    000030  aa   040040 101160
    000031  aa   162151 154040
    000032  aa   061071 070061
    000033  aa   040040 040040
    000034  aa   107112 157150
    000035  aa   156163 157156
    000036  aa   056123 171163
    000037  aa   115141 151156
    000040  aa   164056 141040
    000041  aa   040040 040040
    000042  aa   040040 040040
    000043  aa   040040 040040
    000044  aa   154151 163164
    000045  aa   040040 040040
    000046  aa   040040 040040
    000047  aa   040040 040040
    000050  aa   040040 040040
    000051  aa   040040 040040
    000052  aa   040040 040040
    000053  aa   040040 040040
    000054  aa   040040 040040
    000055  aa   040040 040040
    000056  aa   040040 040040
    000057  aa   040040 040040
    000060  aa   040040 040040
    000061  aa   040040 040040
    000062  aa   040040 040040
    000063  aa   040040 040040
    000064  aa   000000 000001
    000065  aa   000000 000002
    000066  aa   000076 000057
    000067  aa   121247 675537
    000070  aa   000000 112127
    000071  aa   756134 000000
    000072  aa   000112 000056
    000073  aa   121247 673576
    000074  aa   000000 112127
    000075  aa   744274 000000
    000076  aa   076163 160145          >special_ldd>on>09/12/83>tape_status_table_.alm
    000077  aa   143151 141154
    000100  aa   137154 144144
    000101  aa   076157 156076
    000102  aa   060071 057061
    000103  aa   062057 070063
    000104  aa   076164 141160
    000105  aa   145137 163164
    000106  aa   141164 165163
    000107  aa   137164 141142
    000110  aa   154145 137056
    000111  aa   141154 155040
    000112  aa   076163 160145          >special_ldd>on>09/12/83>status_table.incl.alm
    000113  aa   143151 141154
    000114  aa   137154 144144
    000115  aa   076157 156076
    000116  aa   060071 057061
    000117  aa   062057 070063
    000120  aa   076163 164141
    000121  aa   164165 163137
    000122  aa   164141 142154
    000123  aa   145056 151156
    000124  aa   143154 056141
    000125  aa   154155 040040
               MULTICS ASSEMBLY CROSS REFERENCE LISTING

   Value        Symbol                   Source file   Line number

      400000    bk                       tape_status_table_:        28.
       20000    eurc_nobk                tape_status_table_:        28.
       40000    hlt                      tape_status_table_:        28.
      200000    in                       tape_status_table_:        28.
          10    lm1                      tape_status_table_:        28,   34,   35,   36,   37,   38,   39,   40,   41.
          10    lm11                     tape_status_table_:        28,   98,   99,  100,  101,  102,  103,  104,  105.
          15    lm12                     tape_status_table_:        28,  111,  112,  113,  114,  115,  116,  117,  118,  119,
                                                                   120,  121,  122,  123.
           4    lm14                     tape_status_table_:        28,  129,  130,  131,  132.
           4    lm2                      tape_status_table_:        28,   47,   48,   49,   50.
           5    lm3                      tape_status_table_:        28,   56,   57,   58,   59,   60.
           7    lm4                      tape_status_table_:        28,   66,   67,   68,   69,   70,   71,   72.
           3    lm5                      tape_status_table_:        28,   78,   79,   80.
           7    lm6                      tape_status_table_:        28,   86,   87,   88,   89,   90,   91,   92.
          20    m1                       tape_status_table_:        28,   32.
         652    m11                      tape_status_table_:        28,   96.
        1010    m12                      tape_status_table_:        28,  109.
        1235    m14                      tape_status_table_:        28,  127.
         156    m2                       tape_status_table_:        28,   45.
         240    m3                       tape_status_table_:        28,   54.
         335    m4                       tape_status_table_:        28,   64.
         460    m5                       tape_status_table_:        28,   76.
         527    m6                       tape_status_table_:        28,   84.
      100000    rp                       tape_status_table_:        28.
           0    tape_status_table_       tape_status_table_:        28.


NO FATAL ERRORS


                                          -----------------------------------------------------------


Historical Background

This edition of the Multics software materials and documentation is provided and donated
to Massachusetts Institute of Technology by Group BULL including BULL HN Information Systems Inc.
as a contribution to computer science knowledge.
This donation is made also to give evidence of the common contributions of Massachusetts Institute of Technology,
Bell Laboratories, General Electric, Honeywell Information Systems Inc., Honeywell BULL Inc., Groupe BULL
and BULL HN Information Systems Inc. to the development of this operating system.
Multics development was initiated by Massachusetts Institute of Technology Project MAC (1963-1970),
renamed the MIT Laboratory for Computer Science and Artificial Intelligence in the mid 1970s, under the leadership
of Professor Fernando Jose Corbato. Users consider that Multics provided the best software architecture
for managing computer hardware properly and for executing programs. Many subsequent operating systems
incorporated Multics principles.
Multics was distributed in 1975 to 2000 by Group Bull in Europe , and in the U.S. by Bull HN Information Systems Inc.,
as successor in interest by change in name only to Honeywell Bull Inc. and Honeywell Information Systems Inc. .

                                          -----------------------------------------------------------

Permission to use, copy, modify, and distribute these programs and their documentation for any purpose and without
fee is hereby granted,provided that the below copyright notice and historical background appear in all copies
and that both the copyright notice and historical background and this permission notice appear in supporting
documentation, and that the names of MIT, HIS, BULL or BULL HN not be used in advertising or publicity pertaining
to distribution of the programs without specific prior written permission.
    Copyright 1972 by Massachusetts Institute of Technology and Honeywell Information Systems Inc.
    Copyright 2006 by BULL HN Information Systems Inc.
    Copyright 2006 by Bull SAS
    All Rights Reserved
