ASSEMBLY LISTING OF SEGMENT >spec>on>6978-10/22/84>tct.alm
ASSEMBLED ON:	10/22/84  1114.8 mst Mon
OPTIONS USED:	list
ASSEMBLED BY:	ALM Version  6.6  November 1982
ASSEMBLER CREATED:	09/21/83  1227.3 mst Wed

                                     1  "  ******************************************************
                                     2  "  *                                                    *
                                     3  "  *                                                    *
                                     4  "  * Copyright (c) 1972 by Massachusetts Institute of   *
                                     5  "  * Technology and Honeywell Information Systems, Inc. *
                                     6  "  *                                                    *
                                     7  "  *                                                    *
                                     8  "  ******************************************************
                                     9
                                    10  "  ******************************************************
                                    11  "  *                                                    *
                                    12  "  *                                                    *
                                    13  "  *    Copyright, (C) Honeywell Information Systems    *
                                    14  "  *    Inc., 1980.                                     *
                                    15  "  *                                                    *
                                    16  "  *                                                    *
                                    17  "  ******************************************************
                                    18
    000000                          19  	name	tct
                        000000      20  	entry	tct
                                    21
                                    22
    000000  aa   000060 6270 00     23  tct:	push
    000001  aa  7 00040 2721 20
    000002  0a   000012 3514 00     24  	eppab	string
    000003  aa  0 00002 3521 20     25  	eppbp	ap|2,*
    000004  aa  2 00000 3521 20     26  	eppbp	bp|0,*
                                    27
    000005  aa  0 00000 1645 00     28  	tct	(pr),()
    000006  aa   100000 000250      29  	desc9a	ab|0,168
    000007  aa   003030 0000 04     30  	arg	table-*,ic
    000010  aa  2 04000 0001 00     31  	arg	bp|2048
                                    32
    000011  aa  7 00042 7101 20     33  	return
                                    34
    000012  aa  167 150 145 156     35  string:	aci	"when in the course of human events it becomes necessary"
    000013  aa  040 151 156 040
    000014  aa  164 150 145 040
    000015  aa  143 157 165 162
    000016  aa  163 145 040 157
    000017  aa  146 040 150 165
    000020  aa  155 141 156 040
    000021  aa  145 166 145 156
    000022  aa  164 163 040 151
    000023  aa  164 040 142 145
    000024  aa  143 157 155 145
    000025  aa  163 040 156 145
    000026  aa  143 145 163 163
    000027  aa  141 162 171 000
    000030  aa  167 150 145 156     36  	aci	"when in the course of human events it becomes necessary"
    000031  aa  040 151 156 040
    000032  aa  164 150 145 040
    000033  aa  143 157 165 162
    000034  aa  163 145 040 157
    000035  aa  146 040 150 165
    000036  aa  155 141 156 040
    000037  aa  145 166 145 156
    000040  aa  164 163 040 151
    000041  aa  164 040 142 145
    000042  aa  143 157 155 145
    000043  aa  163 040 156 145
    000044  aa  143 145 163 163
    000045  aa  141 162 171 000
    000046  aa  167 150 145 156     37  	aci	"when in the course of human events it becomes necessary"
    000047  aa  040 151 156 040
    000050  aa  164 150 145 040
    000051  aa  143 157 165 162
    000052  aa  163 145 040 157
    000053  aa  146 040 150 165
    000054  aa  155 141 156 040
    000055  aa  145 166 145 156
    000056  aa  164 163 040 151
    000057  aa  164 040 142 145
    000060  aa  143 157 155 145
    000061  aa  163 040 156 145
    000062  aa  143 145 163 163
    000063  aa  141 162 171 000
                                    38
    000064                          39  	bss	,1515	"was an org	1561+5
    003037  aa   000001 002003      40  table:	oct	000001002003
    003040  aa   000001 002003      41  	oct	000001002003
    003041                          42  	bss	,476
                                    43
                                    44  	end
ENTRY SEQUENCES

    003775  5a   000007 0000 00
    003776  aa  7 00046 2721 20
    003777  0a   000000 7100 00

NO LITERALS

NAME DEFINITIONS FOR ENTRY POINTS AND SEGDEFS

    004000  5a   000003 000000
    004001  5a   000022 600000
    004002  aa   000000 000000
    004003  55   000007 000002
    004004  5a   000002 400003
    004005  55   000006 000007
    004006  aa  003 164 143 164
    004007  55   000013 000003
    004010  0a   003776 500000
    004011  55   000012 000003
    004012  aa  003 164 143 164         tct
    004013  55   000002 000007
    004014  6a   000000 400002
    004015  55   000016 000003
    004016  aa  014 163 171 155         symbol_table
    004017  aa  142 157 154 137
    004020  aa  164 141 142 154
    004021  aa  145 000 000 000

DEFINITIONS HASH TABLE

    004022  aa   000000 000015
    004023  aa   000000 000000
    004024  aa   000000 000000
    004025  aa   000000 000000
    004026  aa   000000 000000
    004027  aa   000000 000000
    004030  aa   000000 000000
    004031  5a   000013 000000
    004032  aa   000000 000000
    004033  aa   000000 000000
    004034  aa   000000 000000
    004035  aa   000000 000000
    004036  aa   000000 000000
    004037  5a   000007 000000

NO EXTERNAL NAMES

NO TRAP POINTER WORDS

TYPE PAIR BLOCKS

    004040  aa   000001 000000
    004041  aa   000000 000000

INTERNAL EXPRESSION WORDS

LINKAGE INFORMATION

    000000  aa   000000 000000
    000001  0a   004000 000000
    000002  aa   000000 000000
    000003  aa   000000 000000
    000004  aa   000000 000000
    000005  aa   000000 000000
    000006  22   000010 000010
    000007  a2   000000 000000
SYMBOL INFORMATION

SYMBOL TABLE HEADER

    000000  aa   000000 000001
    000001  aa   163171 155142
    000002  aa   164162 145145
    000003  aa   000000 000004
    000004  aa   000000 112143
    000005  aa   305203 523135
    000006  aa   000000 113126
    000007  aa   355565 404445
    000010  aa   141154 155040
    000011  aa   040040 040040
    000012  aa   000024 000040
    000013  aa   000034 000040
    000014  aa   000044 000100
    000015  aa   000002 000002
    000016  aa   000064 000000
    000017  aa   000000 000300
    000020  aa   000000 000102
    000021  aa   000000 000267
    000022  aa   000272 000102
    000023  aa   000064 000000
    000024  aa   101114 115040
    000025  aa   126145 162163
    000026  aa   151157 156040
    000027  aa   040066 056066
    000030  aa   040040 116157
    000031  aa   166145 155142
    000032  aa   145162 040061
    000033  aa   071070 062040
    000034  aa   107112 157150
    000035  aa   156163 157156
    000036  aa   056123 171163
    000037  aa   115141 151156
    000040  aa   164056 155040
    000041  aa   040040 040040
    000042  aa   040040 040040
    000043  aa   040040 040040
    000044  aa   154151 163164
    000045  aa   040040 040040
    000046  aa   040040 040040
    000047  aa   040040 040040
    000050  aa   040040 040040
    000051  aa   040040 040040
    000052  aa   040040 040040
    000053  aa   040040 040040
    000054  aa   040040 040040
    000055  aa   040040 040040
    000056  aa   040040 040040
    000057  aa   040040 040040
    000060  aa   040040 040040
    000061  aa   040040 040040
    000062  aa   040040 040040
    000063  aa   040040 040040
    000064  aa   000000 000001
    000065  aa   000000 000001
    000066  aa   000072 000036
    000067  aa   131232 072523
    000070  aa   000000 113126
    000071  aa   347533 600000
    000072  aa   076163 160145          >spec>on>6978-10/22/84>tct.alm
    000073  aa   143076 157156
    000074  aa   076066 071067
    000075  aa   070055 061060
    000076  aa   057062 062057
    000077  aa   070064 076164
    000100  aa   143164 056141
    000101  aa   154155 040040
               MULTICS ASSEMBLY CROSS REFERENCE LISTING

   Value        Symbol                   Source file   Line number

          12    string                   tct:           24,   35.
        3037    table                    tct:           30,   40.
           0    tct                      tct:           20,   23.


NO FATAL ERRORS


                                          -----------------------------------------------------------


Historical Background

This edition of the Multics software materials and documentation is provided and donated
to Massachusetts Institute of Technology by Group BULL including BULL HN Information Systems Inc.
as a contribution to computer science knowledge.
This donation is made also to give evidence of the common contributions of Massachusetts Institute of Technology,
Bell Laboratories, General Electric, Honeywell Information Systems Inc., Honeywell BULL Inc., Groupe BULL
and BULL HN Information Systems Inc. to the development of this operating system.
Multics development was initiated by Massachusetts Institute of Technology Project MAC (1963-1970),
renamed the MIT Laboratory for Computer Science and Artificial Intelligence in the mid 1970s, under the leadership
of Professor Fernando Jose Corbato. Users consider that Multics provided the best software architecture
for managing computer hardware properly and for executing programs. Many subsequent operating systems
incorporated Multics principles.
Multics was distributed in 1975 to 2000 by Group Bull in Europe , and in the U.S. by Bull HN Information Systems Inc.,
as successor in interest by change in name only to Honeywell Bull Inc. and Honeywell Information Systems Inc. .

                                          -----------------------------------------------------------

Permission to use, copy, modify, and distribute these programs and their documentation for any purpose and without
fee is hereby granted,provided that the below copyright notice and historical background appear in all copies
and that both the copyright notice and historical background and this permission notice appear in supporting
documentation, and that the names of MIT, HIS, BULL or BULL HN not be used in advertising or publicity pertaining
to distribution of the programs without specific prior written permission.
    Copyright 1972 by Massachusetts Institute of Technology and Honeywell Information Systems Inc.
    Copyright 2006 by BULL HN Information Systems Inc.
    Copyright 2006 by Bull SAS
    All Rights Reserved
