ASSEMBLY LISTING OF SEGMENT >spec>on>6978-10/22/84>test_cmpc_fill.alm
ASSEMBLED ON:	10/22/84  1114.9 mst Mon
OPTIONS USED:	list
ASSEMBLED BY:	ALM Version  6.6  November 1982
ASSEMBLER CREATED:	09/21/83  1227.3 mst Wed

                                     1  "  ******************************************************
                                     2  "  *                                                    *
                                     3  "  *                                                    *
                                     4  "  * Copyright (c) 1972 by Massachusetts Institute of   *
                                     5  "  * Technology and Honeywell Information Systems, Inc. *
                                     6  "  *                                                    *
                                     7  "  *                                                    *
                                     8  "  ******************************************************
                                     9
                                    10  "  ******************************************************
                                    11  "  *                                                    *
                                    12  "  *                                                    *
                                    13  "  *    Copyright, (C) Honeywell Information Systems    *
                                    14  "  *    Inc., 1980.                                     *
                                    15  "  *                                                    *
                                    16  "  *                                                    *
                                    17  "  ******************************************************
                                    18
    000000                          19  	name	test_cmpc_fill
                        000000      20  	entry	test_cmpc_fill
                                    21
    000000  aa   000060 6270 00     22  test_cmpc_fill: push
    000001  aa  7 00040 2721 20
    000002  0a   002001 3520 00     23  	eppbp	data1-1
    000003  0a   003770 3534 00     24  	eppbb	data2-1
    000004  aa   000037 2260 03     25  	ldx6	31,du
    000005  aa   000037 2270 03     26  	ldx7	31,du
    000006  aa  0 40140 1065 40     27  	cmpc	(pr,rl),(pr,rl),fill(040)
    000007  aa   200001 000016      28  	desc9a	bp|1,x6
    000010  aa   300001 000017      29  	desc9a	bb|1,x7
    000011  0a   000013 6010 00     30  	tnz	error
    000012  aa  7 00042 7101 20     31  	return
                                    32
    000013  aa   000000 000000      33  error:	oct	0		"ZOP
                                    34
                        002002      35  	org	1026
    002002  aa  167 150 145 156     36  data1:	aci	"when in the course of human eve                         "
    002003  aa  040 151 156 040
    002004  aa  164 150 145 040
    002005  aa  143 157 165 162
    002006  aa  163 145 040 157
    002007  aa  146 040 150 165
    002010  aa  155 141 156 040
    002011  aa  145 166 145 040
    002012  aa  040 040 040 040
    002013  aa  040 040 040 040
    002014  aa  040 040 040 040
    002015  aa  040 040 040 040
    002016  aa  040 040 040 040
    002017  aa  040 040 040 040
                                    37
                        003771      38  	org	2048-7
    003771  aa  167 150 145 156     39  data2:	aci	"when in the course of human eve........................."
    003772  aa  040 151 156 040
    003773  aa  164 150 145 040
    003774  aa  143 157 165 162
    003775  aa  163 145 040 157
    003776  aa  146 040 150 165
    003777  aa  155 141 156 040
    004000  aa  145 166 145 056
    004001  aa  056 056 056 056
    004002  aa  056 056 056 056
    004003  aa  056 056 056 056
    004004  aa  056 056 056 056
    004005  aa  056 056 056 056
    004006  aa  056 056 056 056
                                    40
                                    41  "force fill to page bound for next test case
    004007                          42  	bss	,1014
                                    43
                                    44  	end
ENTRY SEQUENCES

    005775  5a   000012 0000 00
    005776  aa  7 00046 2721 20
    005777  0a   000000 7100 00

NO LITERALS

NAME DEFINITIONS FOR ENTRY POINTS AND SEGDEFS

    006000  5a   000003 000000
    006001  5a   000030 600000
    006002  aa   000000 000000
    006003  55   000012 000002
    006004  5a   000002 400003
    006005  55   000006 000012
    006006  aa  016 164 145 163
    006007  aa  164 137 143 155
    006010  aa  160 143 137 146
    006011  aa  151 154 154 000
    006012  55   000021 000003
    006013  0a   005776 500000
    006014  55   000015 000003
    006015  aa  016 164 145 163         test_cmpc_fill
    006016  aa  164 137 143 155
    006017  aa  160 143 137 146
    006020  aa  151 154 154 000
    006021  55   000002 000012
    006022  6a   000000 400002
    006023  55   000024 000003
    006024  aa  014 163 171 155         symbol_table
    006025  aa  142 157 154 137
    006026  aa  164 141 142 154
    006027  aa  145 000 000 000

DEFINITIONS HASH TABLE

    006030  aa   000000 000015
    006031  aa   000000 000000
    006032  aa   000000 000000
    006033  aa   000000 000000
    006034  aa   000000 000000
    006035  aa   000000 000000
    006036  5a   000012 000000
    006037  5a   000021 000000
    006040  aa   000000 000000
    006041  aa   000000 000000
    006042  aa   000000 000000
    006043  aa   000000 000000
    006044  aa   000000 000000
    006045  aa   000000 000000

NO EXTERNAL NAMES

NO TRAP POINTER WORDS

TYPE PAIR BLOCKS

    006046  aa   000001 000000
    006047  aa   000000 000000

INTERNAL EXPRESSION WORDS

LINKAGE INFORMATION

    000000  aa   000000 000000
    000001  0a   006000 000000
    000002  aa   000000 000000
    000003  aa   000000 000000
    000004  aa   000000 000000
    000005  aa   000000 000000
    000006  22   000010 000010
    000007  a2   000000 000000
SYMBOL INFORMATION

SYMBOL TABLE HEADER

    000000  aa   000000 000001
    000001  aa   163171 155142
    000002  aa   164162 145145
    000003  aa   000000 000004
    000004  aa   000000 112143
    000005  aa   305203 523135
    000006  aa   000000 113126
    000007  aa   355610 504530
    000010  aa   141154 155040
    000011  aa   040040 040040
    000012  aa   000024 000040
    000013  aa   000034 000040
    000014  aa   000044 000100
    000015  aa   000002 000002
    000016  aa   000064 000000
    000017  aa   000000 000374
    000020  aa   000000 000105
    000021  aa   000000 000363
    000022  aa   000366 000105
    000023  aa   000064 000000
    000024  aa   101114 115040
    000025  aa   126145 162163
    000026  aa   151157 156040
    000027  aa   040066 056066
    000030  aa   040040 116157
    000031  aa   166145 155142
    000032  aa   145162 040061
    000033  aa   071070 062040
    000034  aa   107112 157150
    000035  aa   156163 157156
    000036  aa   056123 171163
    000037  aa   115141 151156
    000040  aa   164056 155040
    000041  aa   040040 040040
    000042  aa   040040 040040
    000043  aa   040040 040040
    000044  aa   154151 163164
    000045  aa   040040 040040
    000046  aa   040040 040040
    000047  aa   040040 040040
    000050  aa   040040 040040
    000051  aa   040040 040040
    000052  aa   040040 040040
    000053  aa   040040 040040
    000054  aa   040040 040040
    000055  aa   040040 040040
    000056  aa   040040 040040
    000057  aa   040040 040040
    000060  aa   040040 040040
    000061  aa   040040 040040
    000062  aa   040040 040040
    000063  aa   040040 040040
    000064  aa   000000 000001
    000065  aa   000000 000001
    000066  aa   000072 000051
    000067  aa   131232 072526
    000070  aa   000000 113126
    000071  aa   347536 400000
    000072  aa   076163 160145          >spec>on>6978-10/22/84>test_cmpc_fill.alm
    000073  aa   143076 157156
    000074  aa   076066 071067
    000075  aa   070055 061060
    000076  aa   057062 062057
    000077  aa   070064 076164
    000100  aa   145163 164137
    000101  aa   143155 160143
    000102  aa   137146 151154
    000103  aa   154056 141154
    000104  aa   155040 040040
               MULTICS ASSEMBLY CROSS REFERENCE LISTING

   Value        Symbol                   Source file   Line number

        2002    data1                    test_cmpc_fill:      23,   36.
        3771    data2                    test_cmpc_fill:      24,   39.
          13    error                    test_cmpc_fill:      30,   33.
           0    test_cmpc_fill           test_cmpc_fill:      20,   22.


NO FATAL ERRORS


                                          -----------------------------------------------------------


Historical Background

This edition of the Multics software materials and documentation is provided and donated
to Massachusetts Institute of Technology by Group BULL including BULL HN Information Systems Inc.
as a contribution to computer science knowledge.
This donation is made also to give evidence of the common contributions of Massachusetts Institute of Technology,
Bell Laboratories, General Electric, Honeywell Information Systems Inc., Honeywell BULL Inc., Groupe BULL
and BULL HN Information Systems Inc. to the development of this operating system.
Multics development was initiated by Massachusetts Institute of Technology Project MAC (1963-1970),
renamed the MIT Laboratory for Computer Science and Artificial Intelligence in the mid 1970s, under the leadership
of Professor Fernando Jose Corbato. Users consider that Multics provided the best software architecture
for managing computer hardware properly and for executing programs. Many subsequent operating systems
incorporated Multics principles.
Multics was distributed in 1975 to 2000 by Group Bull in Europe , and in the U.S. by Bull HN Information Systems Inc.,
as successor in interest by change in name only to Honeywell Bull Inc. and Honeywell Information Systems Inc. .

                                          -----------------------------------------------------------

Permission to use, copy, modify, and distribute these programs and their documentation for any purpose and without
fee is hereby granted,provided that the below copyright notice and historical background appear in all copies
and that both the copyright notice and historical background and this permission notice appear in supporting
documentation, and that the names of MIT, HIS, BULL or BULL HN not be used in advertising or publicity pertaining
to distribution of the programs without specific prior written permission.
    Copyright 1972 by Massachusetts Institute of Technology and Honeywell Information Systems Inc.
    Copyright 2006 by BULL HN Information Systems Inc.
    Copyright 2006 by Bull SAS
    All Rights Reserved
