ASSEMBLY LISTING OF SEGMENT >spec>on>6978-10/22/84>test_sc2.alm
ASSEMBLED ON:	10/22/84  1114.9 mst Mon
OPTIONS USED:	list
ASSEMBLED BY:	ALM Version  6.6  November 1982
ASSEMBLER CREATED:	09/21/83  1227.3 mst Wed

                                     1  "  ******************************************************
                                     2  "  *                                                    *
                                     3  "  *                                                    *
                                     4  "  * Copyright (c) 1972 by Massachusetts Institute of   *
                                     5  "  * Technology and Honeywell Information Systems, Inc. *
                                     6  "  *                                                    *
                                     7  "  *                                                    *
                                     8  "  ******************************************************
                                     9
                                    10  "  ******************************************************
                                    11  "  *                                                    *
                                    12  "  *                                                    *
                                    13  "  *    Copyright, (C) Honeywell Information Systems    *
                                    14  "  *    Inc., 1980.                                     *
                                    15  "  *                                                    *
                                    16  "  *                                                    *
                                    17  "  ******************************************************
                                    18
                                    19  "
                                    20  "	This version of sc test does a rpd before going into sc mode. It
                                    21  "	Takes page faults on the data and on the indirect word
                                    22  "
                                    23  "
    000000                          24  	name	test_sc2
                        000000      25  	entry	test_sc2
    000000                          26  test_sc2:
    000000  aa   000060 6270 00     27  	push
    000001  aa  7 00040 2721 20
    000002  aa  0 00002 3521 20     28  	eppbp	ap|2,*
    000003  aa  2 00000 3521 20     29  	eppbp	bp|0,*
    000004  0a   000011 6210 00     30  	eax1	FILED
                                    31  	odd
    000005  aa   011740 5602 01     32  	rpd	4,1,tnz,tze
    000006  aa   000000 2350 11     33  	lda	0,1
    000007  aa   000000 2360 12     34  	ldq	0,2
    000010  0a   000015 7100 00     35  	tra	skip_FILED
    000011  aa   000000 000001      36  FILED:	oct	1,0,1,1
    000012  aa   000000 000000
    000013  aa   000000 000001
    000014  aa   000000 000001
    000015                          37  skip_FILED:
    000015  0a   000045 2350 00     38  	lda	tally_word_model
    000016  aa  2 23723 7551 00     39  	sta	bp|10195
    000017  aa  2 00000 4501 00     40  	stz	bp|0
    000020  aa  2 00000 2351 00     41  loop:	lda	bp|0
    000021  aa   000077 3750 07     42  	ana	=o77,dl
    000022  aa  2 00000 0541 00     43  	aos	bp|0
    000023  aa  2 23723 7551 52     44  	sta	bp|10195,sc
    000024  aa   000000 0110 00     45  	nop
    000025  aa   000000 0110 00     46  	nop
    000026  0a   000020 6070 00     47  	ttf 	loop
    000027  0a   000045 2350 00     48  	lda	tally_word_model
    000030  aa  2 23723 7551 00     49  	sta	bp|10195
    000031  aa  2 00000 4501 00     50  	stz	bp|0
    000032                          51  loop1:
    000032  aa  2 23723 2351 52     52  	lda	bp|10195,sc
    000033  0a   000035 6070 00     53  	ttf	test
    000034  aa  7 00042 7101 20     54  	return
    000035                          55  test:
    000035  aa  2 00000 1151 00     56  	cmpa	bp|0
    000036  0a   000040 6000 00     57  	tze	*+2
    000037  aa   000000 000000      58  	oct	0		"ZOP
    000040  aa  2 00000 0541 00     59  	aos	bp|0
    000041  aa  2 00000 2351 00     60  	lda	bp|0
    000042  aa   000077 3750 07     61  	ana	=o77,dl
    000043  aa  2 00000 7551 00     62  	sta	bp|0
    000044  0a   000032 7100 00     63  	tra	loop1
    000045                          64  tally_word_model:
    000045  0a   003720 777700      65  	vfd	18/field,o12/7777,6/0
                                    66  	even
                        003720      67  	org	2000
    003720  aa   000000 000000      68  field:	oct
    003721                          69  	bss	x,4096
    013721  aa   525252 525252      70  	oct	525252525252
    013722                          71  	bss	y,4096
    023722  aa   252525 252525      72  	oct	252525252525
                                    73
                                    74  "force fill to page bound for next test
    023723                          75  	bss	,42
                                    76
                                    77  	end
ENTRY SEQUENCES

    023775  5a   000011 0000 00
    023776  aa  7 00046 2721 20
    023777  0a   000000 7100 00

NO LITERALS

NAME DEFINITIONS FOR ENTRY POINTS AND SEGDEFS

    024000  5a   000003 000000
    024001  5a   000026 600000
    024002  aa   000000 000000
    024003  55   000011 000002
    024004  5a   000002 400003
    024005  55   000006 000011
    024006  aa  010 164 145 163
    024007  aa  164 137 163 143
    024010  aa  062 000 000 000
    024011  55   000017 000003
    024012  0a   023776 500000
    024013  55   000014 000003
    024014  aa  010 164 145 163         test_sc2
    024015  aa  164 137 163 143
    024016  aa  062 000 000 000
    024017  55   000002 000011
    024020  6a   000000 400002
    024021  55   000022 000003
    024022  aa  014 163 171 155         symbol_table
    024023  aa  142 157 154 137
    024024  aa  164 141 142 154
    024025  aa  145 000 000 000

DEFINITIONS HASH TABLE

    024026  aa   000000 000015
    024027  aa   000000 000000
    024030  aa   000000 000000
    024031  aa   000000 000000
    024032  aa   000000 000000
    024033  aa   000000 000000
    024034  aa   000000 000000
    024035  5a   000017 000000
    024036  aa   000000 000000
    024037  aa   000000 000000
    024040  5a   000011 000000
    024041  aa   000000 000000
    024042  aa   000000 000000
    024043  aa   000000 000000

NO EXTERNAL NAMES

NO TRAP POINTER WORDS

TYPE PAIR BLOCKS

    024044  aa   000001 000000
    024045  aa   000000 000000

INTERNAL EXPRESSION WORDS

LINKAGE INFORMATION

    000000  aa   000000 000000
    000001  0a   024000 000000
    000002  aa   000000 000000
    000003  aa   000000 000000
    000004  aa   000000 000000
    000005  aa   000000 000000
    000006  22   000010 000010
    000007  a2   000000 000000
SYMBOL INFORMATION

SYMBOL TABLE HEADER

    000000  aa   000000 000001
    000001  aa   163171 155142
    000002  aa   164162 145145
    000003  aa   000000 000004
    000004  aa   000000 112143
    000005  aa   305203 523135
    000006  aa   000000 113126
    000007  aa   355621 533412
    000010  aa   141154 155040
    000011  aa   040040 040040
    000012  aa   000024 000040
    000013  aa   000034 000040
    000014  aa   000044 000100
    000015  aa   000002 000002
    000016  aa   000064 000000
    000017  aa   000000 001211
    000020  aa   000000 000103
    000021  aa   000000 001200
    000022  aa   001203 000103
    000023  aa   000064 000000
    000024  aa   101114 115040
    000025  aa   126145 162163
    000026  aa   151157 156040
    000027  aa   040066 056066
    000030  aa   040040 116157
    000031  aa   166145 155142
    000032  aa   145162 040061
    000033  aa   071070 062040
    000034  aa   107112 157150
    000035  aa   156163 157156
    000036  aa   056123 171163
    000037  aa   115141 151156
    000040  aa   164056 155040
    000041  aa   040040 040040
    000042  aa   040040 040040
    000043  aa   040040 040040
    000044  aa   154151 163164
    000045  aa   040040 040040
    000046  aa   040040 040040
    000047  aa   040040 040040
    000050  aa   040040 040040
    000051  aa   040040 040040
    000052  aa   040040 040040
    000053  aa   040040 040040
    000054  aa   040040 040040
    000055  aa   040040 040040
    000056  aa   040040 040040
    000057  aa   040040 040040
    000060  aa   040040 040040
    000061  aa   040040 040040
    000062  aa   040040 040040
    000063  aa   040040 040040
    000064  aa   000000 000001
    000065  aa   000000 000001
    000066  aa   000072 000043
    000067  aa   131232 072531
    000070  aa   000000 113126
    000071  aa   347536 600000
    000072  aa   076163 160145          >spec>on>6978-10/22/84>test_sc2.alm
    000073  aa   143076 157156
    000074  aa   076066 071067
    000075  aa   070055 061060
    000076  aa   057062 062057
    000077  aa   070064 076164
    000100  aa   145163 164137
    000101  aa   163143 062056
    000102  aa   141154 155040
               MULTICS ASSEMBLY CROSS REFERENCE LISTING

   Value        Symbol                   Source file   Line number

        3720    field                    test_sc2:      65,   68.
          11    FILED                    test_sc2:      30,   36.
          20    loop                     test_sc2:      41,   47.
          32    loop1                    test_sc2:      51,   63.
          15    skip_FILED               test_sc2:      35,   37.
          45    tally_word_model         test_sc2:      38,   48,   64.
          35    test                     test_sc2:      53,   55.
           0    test_sc2                 test_sc2:      25,   26.
        3721    x                        test_sc2:      69.
       13722    y                        test_sc2:      71.


NO FATAL ERRORS


                                          -----------------------------------------------------------


Historical Background

This edition of the Multics software materials and documentation is provided and donated
to Massachusetts Institute of Technology by Group BULL including BULL HN Information Systems Inc.
as a contribution to computer science knowledge.
This donation is made also to give evidence of the common contributions of Massachusetts Institute of Technology,
Bell Laboratories, General Electric, Honeywell Information Systems Inc., Honeywell BULL Inc., Groupe BULL
and BULL HN Information Systems Inc. to the development of this operating system.
Multics development was initiated by Massachusetts Institute of Technology Project MAC (1963-1970),
renamed the MIT Laboratory for Computer Science and Artificial Intelligence in the mid 1970s, under the leadership
of Professor Fernando Jose Corbato. Users consider that Multics provided the best software architecture
for managing computer hardware properly and for executing programs. Many subsequent operating systems
incorporated Multics principles.
Multics was distributed in 1975 to 2000 by Group Bull in Europe , and in the U.S. by Bull HN Information Systems Inc.,
as successor in interest by change in name only to Honeywell Bull Inc. and Honeywell Information Systems Inc. .

                                          -----------------------------------------------------------

Permission to use, copy, modify, and distribute these programs and their documentation for any purpose and without
fee is hereby granted,provided that the below copyright notice and historical background appear in all copies
and that both the copyright notice and historical background and this permission notice appear in supporting
documentation, and that the names of MIT, HIS, BULL or BULL HN not be used in advertising or publicity pertaining
to distribution of the programs without specific prior written permission.
    Copyright 1972 by Massachusetts Institute of Technology and Honeywell Information Systems Inc.
    Copyright 2006 by BULL HN Information Systems Inc.
    Copyright 2006 by Bull SAS
    All Rights Reserved
