ASSEMBLY LISTING OF SEGMENT >spec>on>6978-10/22/84>tmlr.alm
ASSEMBLED ON:	10/22/84  1115.1 mst Mon
OPTIONS USED:	list
ASSEMBLED BY:	ALM Version  6.6  November 1982
ASSEMBLER CREATED:	09/21/83  1227.3 mst Wed

                                     1  "  ******************************************************
                                     2  "  *                                                    *
                                     3  "  *                                                    *
                                     4  "  * Copyright (c) 1972 by Massachusetts Institute of   *
                                     5  "  * Technology and Honeywell Information Systems, Inc. *
                                     6  "  *                                                    *
                                     7  "  *                                                    *
                                     8  "  ******************************************************
                                     9
                                    10  "  ******************************************************
                                    11  "  *                                                    *
                                    12  "  *                                                    *
                                    13  "  *    Copyright, (C) Honeywell Information Systems    *
                                    14  "  *    Inc., 1980.                                     *
                                    15  "  *                                                    *
                                    16  "  *                                                    *
                                    17  "  ******************************************************
                                    18
    000000                          19  	name	tmlr
                        000000      20  	entry	tmlr
                        000017      21  	segdef	tmlr_data
                                    22
    000000  aa   000060 6270 00     23  tmlr:	push
    000001  aa  7 00040 2721 20
                                    24
    000002  0a   000017 3520 00     25  	eppbp	tmlr_data
    000003  aa  0 00006 2351 20     26  	lda	ap|6,*
    000004  aa  0 00006 2361 20     27  	ldq	ap|6,*
    000005  aa  0 00010 3515 20     28  	eppab	ap|8,*
    000006  aa  1 00000 3515 20     29  	eppab	ab|0,*
    000007  aa   011765 0510 03     30  	adwpab	4096+1024-11,du
    000010  aa  0 00002 7201 20     31  	lxl0	ap|2,*
    000011  aa  1 00000 5005 10     32  	a9bd	ab|0,x0
    000012  aa  0 00004 2515 20     33  	spriab	ap|4,*
    000013  aa  0 40140 1005 40     34  	mlr	(pr,rl),(pr,rl),fill(040)
    000014  aa   200000 000005      35  	desc9a	bp|0,al
    000015  aa   100000 000006      36  	desc9a	ab|0,ql
                                    37
    000016  aa  7 00042 7101 20     38  	return
                                    39
                                    40
    000017                          41  tmlr_data:
    000017  aa  060 056 060 061     42  	aci	"0.01.012.0123.01234.012345.0123456.01234567.012345678.0123456789.0123456789|||"
    000020  aa  056 060 061 062
    000021  aa  056 060 061 062
    000022  aa  063 056 060 061
    000023  aa  062 063 064 056
    000024  aa  060 061 062 063
    000025  aa  064 065 056 060
    000026  aa  061 062 063 064
    000027  aa  065 066 056 060
    000030  aa  061 062 063 064
    000031  aa  065 066 067 056
    000032  aa  060 061 062 063
    000033  aa  064 065 066 067
    000034  aa  070 056 060 061
    000035  aa  062 063 064 065
    000036  aa  066 067 070 071
    000037  aa  056 060 061 062
    000040  aa  063 064 065 066
    000041  aa  067 070 071 174
    000042  aa  174 174 000 000
                                    43
                                    44  	end
ENTRY SEQUENCES

    000043  5a   000016 0000 00
    000044  aa  7 00046 2721 20
    000045  0a   000000 7100 00

NO LITERALS

NAME DEFINITIONS FOR ENTRY POINTS AND SEGDEFS

    000046  5a   000003 000000
    000047  5a   000032 600000
    000050  aa   000000 000000
    000051  55   000010 000002
    000052  5a   000002 400003
    000053  55   000006 000010
    000054  aa  004 164 155 154
    000055  aa  162 000 000 000
    000056  55   000016 000003
    000057  0a   000017 400000
    000060  55   000013 000003
    000061  aa  011 164 155 154         tmlr_data
    000062  aa  162 137 144 141
    000063  aa  164 141 000 000
    000064  55   000023 000010
    000065  0a   000044 500000
    000066  55   000021 000003
    000067  aa  004 164 155 154         tmlr
    000070  aa  162 000 000 000
    000071  55   000002 000016
    000072  6a   000000 400002
    000073  55   000026 000003
    000074  aa  014 163 171 155         symbol_table
    000075  aa  142 157 154 137
    000076  aa  164 141 142 154
    000077  aa  145 000 000 000

DEFINITIONS HASH TABLE

    000100  aa   000000 000015
    000101  aa   000000 000000
    000102  aa   000000 000000
    000103  aa   000000 000000
    000104  aa   000000 000000
    000105  aa   000000 000000
    000106  aa   000000 000000
    000107  5a   000023 000000
    000110  aa   000000 000000
    000111  aa   000000 000000
    000112  aa   000000 000000
    000113  5a   000016 000000
    000114  5a   000010 000000
    000115  aa   000000 000000

NO EXTERNAL NAMES

NO TRAP POINTER WORDS

TYPE PAIR BLOCKS

    000116  aa   000001 000000
    000117  aa   000000 000000

INTERNAL EXPRESSION WORDS

LINKAGE INFORMATION

    000000  aa   000000 000000
    000001  0a   000046 000000
    000002  aa   000000 000000
    000003  aa   000000 000000
    000004  aa   000000 000000
    000005  aa   000000 000000
    000006  22   000010 000010
    000007  a2   000000 000000
SYMBOL INFORMATION

SYMBOL TABLE HEADER

    000000  aa   000000 000001
    000001  aa   163171 155142
    000002  aa   164162 145145
    000003  aa   000000 000004
    000004  aa   000000 112143
    000005  aa   305203 523135
    000006  aa   000000 113126
    000007  aa   355702 036125
    000010  aa   141154 155040
    000011  aa   040040 040040
    000012  aa   000024 000040
    000013  aa   000034 000040
    000014  aa   000044 000100
    000015  aa   000002 000002
    000016  aa   000064 000000
    000017  aa   000000 000120
    000020  aa   000000 000102
    000021  aa   000000 000107
    000022  aa   000112 000102
    000023  aa   000064 000000
    000024  aa   101114 115040
    000025  aa   126145 162163
    000026  aa   151157 156040
    000027  aa   040066 056066
    000030  aa   040040 116157
    000031  aa   166145 155142
    000032  aa   145162 040061
    000033  aa   071070 062040
    000034  aa   107112 157150
    000035  aa   156163 157156
    000036  aa   056123 171163
    000037  aa   115141 151156
    000040  aa   164056 155040
    000041  aa   040040 040040
    000042  aa   040040 040040
    000043  aa   040040 040040
    000044  aa   154151 163164
    000045  aa   040040 040040
    000046  aa   040040 040040
    000047  aa   040040 040040
    000050  aa   040040 040040
    000051  aa   040040 040040
    000052  aa   040040 040040
    000053  aa   040040 040040
    000054  aa   040040 040040
    000055  aa   040040 040040
    000056  aa   040040 040040
    000057  aa   040040 040040
    000060  aa   040040 040040
    000061  aa   040040 040040
    000062  aa   040040 040040
    000063  aa   040040 040040
    000064  aa   000000 000001
    000065  aa   000000 000001
    000066  aa   000072 000037
    000067  aa   131232 072535
    000070  aa   000000 113126
    000071  aa   347546 200000
    000072  aa   076163 160145          >spec>on>6978-10/22/84>tmlr.alm
    000073  aa   143076 157156
    000074  aa   076066 071067
    000075  aa   070055 061060
    000076  aa   057062 062057
    000077  aa   070064 076164
    000100  aa   155154 162056
    000101  aa   141154 155040
               MULTICS ASSEMBLY CROSS REFERENCE LISTING

   Value        Symbol                   Source file   Line number

           0    tmlr                     tmlr:          20,   23.
          17    tmlr_data                tmlr:          21,   25,   41.


NO FATAL ERRORS


                                          -----------------------------------------------------------


Historical Background

This edition of the Multics software materials and documentation is provided and donated
to Massachusetts Institute of Technology by Group BULL including BULL HN Information Systems Inc.
as a contribution to computer science knowledge.
This donation is made also to give evidence of the common contributions of Massachusetts Institute of Technology,
Bell Laboratories, General Electric, Honeywell Information Systems Inc., Honeywell BULL Inc., Groupe BULL
and BULL HN Information Systems Inc. to the development of this operating system.
Multics development was initiated by Massachusetts Institute of Technology Project MAC (1963-1970),
renamed the MIT Laboratory for Computer Science and Artificial Intelligence in the mid 1970s, under the leadership
of Professor Fernando Jose Corbato. Users consider that Multics provided the best software architecture
for managing computer hardware properly and for executing programs. Many subsequent operating systems
incorporated Multics principles.
Multics was distributed in 1975 to 2000 by Group Bull in Europe , and in the U.S. by Bull HN Information Systems Inc.,
as successor in interest by change in name only to Honeywell Bull Inc. and Honeywell Information Systems Inc. .

                                          -----------------------------------------------------------

Permission to use, copy, modify, and distribute these programs and their documentation for any purpose and without
fee is hereby granted,provided that the below copyright notice and historical background appear in all copies
and that both the copyright notice and historical background and this permission notice appear in supporting
documentation, and that the names of MIT, HIS, BULL or BULL HN not be used in advertising or publicity pertaining
to distribution of the programs without specific prior written permission.
    Copyright 1972 by Massachusetts Institute of Technology and Honeywell Information Systems Inc.
    Copyright 2006 by BULL HN Information Systems Inc.
    Copyright 2006 by Bull SAS
    All Rights Reserved
