ASSEMBLY LISTING OF SEGMENT >spec>on>6978-10/22/84>tnz.alm
ASSEMBLED ON:	10/22/84  1115.8 mst Mon
OPTIONS USED:	list
ASSEMBLED BY:	ALM Version  6.6  November 1982
ASSEMBLER CREATED:	09/21/83  1227.3 mst Wed

    000000                           1  	name	tnz
                        000000       2  	entry	tnz
                                     3
    000000  aa   000060 6270 00      4  tnz:	push
    000001  aa  7 00040 2721 20
                                     5
    000002  aa  6 00100 2541 00      6  	spri	pr6|64
    000003  aa  0 00002 3521 20      7  	epp2	ap|2,*
    000004  aa  2 00000 3521 20      8  	epp2	bp|0,*
    000005  aa  2 02002 3535 00      9  	epp3	pr2|1026
    000006  aa  2 00044 2535 00     10  	spri3	pr2|36
    000007  0a   006152 2350 00     11  	lda	PATTERN
    000010  aa  2 00100 7551 00     12  	sta	pr2|64
    000011  aa   000000 2350 07     13  	lda	0,dl
    000012  aa  2 00010 4501 00     14  	stz	pr2|8
                                    15
    000013                          16  tnz_loop:
    000013  0a   001772 7100 00     17  	tra	start
                                    18
                        001772      19  	org	1018
    001772                          20  start:
    001772  aa  2 00100 2361 00     21  	ldq	pr2|64
    001773  aa  2 00044 3535 20     22  	epp3	pr2|36,*
    001774  aa  3 01034 1161 20     23  	cmpq	pr3|540,*
    001775  aa   004201 6000 04     24  	tze	2177,ic		= 3198 (=6176o)
    001776  aa  2 00100 2361 00     25  	ldq	pr2|64
    001777  aa   004136 6010 04     26  	tnz	2142,ic		= 3165 (=6135o)
    002000  0a   006153 7100 00     27  	tra	ZOP
                                    28
                        006135      29  	org	3165
    006135  aa   000001 0350 07     30  	adla	1,dl
    006136  aa   000400 1150 07     31  	cmpa	=o400,dl
    006137  0a   006142 6010 00     32  	tnz	CHECK
    006140  aa  6 00100 1731 00     33  	lpri	pr6|64
    006141  aa  7 00042 7101 20     34  	return
                                    35
    006142  aa  2 00010 1151 00     36  CHECK:	cmpa	pr2|8
    006143  0a   006150 6040 00     37  	tmi	BAD1
    006144  aa  2 00010 0541 00     38  	aos	pr2|8
    006145  aa  2 00010 1151 00     39  	cmpa	pr2|8
    006146  0a   006151 6010 00     40  	tnz	BAD2
    006147  0a   000013 7100 00     41  	tra	tnz_loop
                                    42
    006150  aa   010101 000000      43  BAD1:	oct	010101000000
    006151  aa   020202 000000      44  BAD2:	oct	020202000000
                                    45
    006152  aa   077777 013521      46  PATTERN:	oct	077777013521
    006153  aa   252525 000000      47  ZOP:	oct	252525000000
                        007775      48  	org	4096-3   " force next test to be bound at a mod 1024.
                                    49  	end
ENTRY SEQUENCES

    007775  5a   000007 0000 00
    007776  aa  7 00046 2721 20
    007777  0a   000000 7100 00

NO LITERALS

NAME DEFINITIONS FOR ENTRY POINTS AND SEGDEFS

    010000  5a   000003 000000
    010001  5a   000022 600000
    010002  aa   000000 000000
    010003  55   000007 000002
    010004  5a   000002 400003
    010005  55   000006 000007
    010006  aa  003 164 156 172
    010007  55   000013 000003
    010010  0a   007776 500000
    010011  55   000012 000003
    010012  aa  003 164 156 172         tnz
    010013  55   000002 000007
    010014  6a   000000 400002
    010015  55   000016 000003
    010016  aa  014 163 171 155         symbol_table
    010017  aa  142 157 154 137
    010020  aa  164 141 142 154
    010021  aa  145 000 000 000

DEFINITIONS HASH TABLE

    010022  aa   000000 000015
    010023  aa   000000 000000
    010024  aa   000000 000000
    010025  aa   000000 000000
    010026  aa   000000 000000
    010027  aa   000000 000000
    010030  aa   000000 000000
    010031  5a   000013 000000
    010032  aa   000000 000000
    010033  5a   000007 000000
    010034  aa   000000 000000
    010035  aa   000000 000000
    010036  aa   000000 000000
    010037  aa   000000 000000

NO EXTERNAL NAMES

NO TRAP POINTER WORDS

TYPE PAIR BLOCKS

    010040  aa   000001 000000
    010041  aa   000000 000000

INTERNAL EXPRESSION WORDS

LINKAGE INFORMATION

    000000  aa   000000 000000
    000001  0a   010000 000000
    000002  aa   000000 000000
    000003  aa   000000 000000
    000004  aa   000000 000000
    000005  aa   000000 000000
    000006  22   000010 000010
    000007  a2   000000 000000
SYMBOL INFORMATION

SYMBOL TABLE HEADER

    000000  aa   000000 000001
    000001  aa   163171 155142
    000002  aa   164162 145145
    000003  aa   000000 000004
    000004  aa   000000 112143
    000005  aa   305203 523135
    000006  aa   000000 113126
    000007  aa   356154 142111
    000010  aa   141154 155040
    000011  aa   040040 040040
    000012  aa   000024 000040
    000013  aa   000034 000040
    000014  aa   000044 000100
    000015  aa   000002 000002
    000016  aa   000064 000000
    000017  aa   000000 000462
    000020  aa   000000 000102
    000021  aa   000000 000451
    000022  aa   000454 000102
    000023  aa   000064 000000
    000024  aa   101114 115040
    000025  aa   126145 162163
    000026  aa   151157 156040
    000027  aa   040066 056066
    000030  aa   040040 116157
    000031  aa   166145 155142
    000032  aa   145162 040061
    000033  aa   071070 062040
    000034  aa   107112 157150
    000035  aa   156163 157156
    000036  aa   056123 171163
    000037  aa   115141 151156
    000040  aa   164056 155040
    000041  aa   040040 040040
    000042  aa   040040 040040
    000043  aa   040040 040040
    000044  aa   154151 163164
    000045  aa   040040 040040
    000046  aa   040040 040040
    000047  aa   040040 040040
    000050  aa   040040 040040
    000051  aa   040040 040040
    000052  aa   040040 040040
    000053  aa   040040 040040
    000054  aa   040040 040040
    000055  aa   040040 040040
    000056  aa   040040 040040
    000057  aa   040040 040040
    000060  aa   040040 040040
    000061  aa   040040 040040
    000062  aa   040040 040040
    000063  aa   040040 040040
    000064  aa   000000 000001
    000065  aa   000000 000001
    000066  aa   000072 000036
    000067  aa   131232 072557
    000070  aa   000000 113126
    000071  aa   347612 200000
    000072  aa   076163 160145          >spec>on>6978-10/22/84>tnz.alm
    000073  aa   143076 157156
    000074  aa   076066 071067
    000075  aa   070055 061060
    000076  aa   057062 062057
    000077  aa   070064 076164
    000100  aa   156172 056141
    000101  aa   154155 040040
               MULTICS ASSEMBLY CROSS REFERENCE LISTING

   Value        Symbol                   Source file   Line number

        6150    BAD1                     tnz:           37,   43.
        6151    BAD2                     tnz:           40,   44.
        6142    CHECK                    tnz:           32,   36.
        6152    PATTERN                  tnz:           11,   46.
        1772    start                    tnz:           17,   20.
           0    tnz                      tnz:            2,    4.
          13    tnz_loop                 tnz:           16,   41.
        6153    ZOP                      tnz:           27,   47.


NO FATAL ERRORS


                                          -----------------------------------------------------------


Historical Background

This edition of the Multics software materials and documentation is provided and donated
to Massachusetts Institute of Technology by Group BULL including BULL HN Information Systems Inc.
as a contribution to computer science knowledge.
This donation is made also to give evidence of the common contributions of Massachusetts Institute of Technology,
Bell Laboratories, General Electric, Honeywell Information Systems Inc., Honeywell BULL Inc., Groupe BULL
and BULL HN Information Systems Inc. to the development of this operating system.
Multics development was initiated by Massachusetts Institute of Technology Project MAC (1963-1970),
renamed the MIT Laboratory for Computer Science and Artificial Intelligence in the mid 1970s, under the leadership
of Professor Fernando Jose Corbato. Users consider that Multics provided the best software architecture
for managing computer hardware properly and for executing programs. Many subsequent operating systems
incorporated Multics principles.
Multics was distributed in 1975 to 2000 by Group Bull in Europe , and in the U.S. by Bull HN Information Systems Inc.,
as successor in interest by change in name only to Honeywell Bull Inc. and Honeywell Information Systems Inc. .

                                          -----------------------------------------------------------

Permission to use, copy, modify, and distribute these programs and their documentation for any purpose and without
fee is hereby granted,provided that the below copyright notice and historical background appear in all copies
and that both the copyright notice and historical background and this permission notice appear in supporting
documentation, and that the names of MIT, HIS, BULL or BULL HN not be used in advertising or publicity pertaining
to distribution of the programs without specific prior written permission.
    Copyright 1972 by Massachusetts Institute of Technology and Honeywell Information Systems Inc.
    Copyright 2006 by BULL HN Information Systems Inc.
    Copyright 2006 by Bull SAS
    All Rights Reserved
