ASSEMBLY LISTING OF SEGMENT >udd>sm>ds>w>ml>viipunch_.alm
ASSEMBLED ON:	04/17/00  1931.8 mdt Mon
OPTIONS USED:	list symbols
ASSEMBLED BY:	ALM Version 8.14 March 1989
ASSEMBLER CREATED:	06/09/89  1102.3 mdt Fri

                                     1  " ***********************************************************
                                     2  " *                                                         *
                                     3  " * Copyright, (C) Honeywell Information Systems Inc., 1982 *
                                     4  " *                                                         *
                                     5  " * Copyright (c) 1972 by Massachusetts Institute of        *
                                     6  " * Technology and Honeywell Information Systems, Inc.      *
                                     7  " *                                                         *
                                     8  " ***********************************************************
                                     9
                                    10  "	"	"	"	"	"	"	"	"
                                    11  "
                                    12  "	This is the I/O switch transfer vector for the viipunch outer module.
                                    13  "
                                    14  "	"	"	"	"	"	"	"	"
                                    15
    000000                          16  	name	viipunch_
                        000000      17  	entry	viipunch_module,viipunchmodule
                                    18
    000000                          19  	segref	card_dim,card_attach,card_detach
    000000                          20  	segref	card_dim,card_changemode,card_order
    000000                          21  	segref	viipunch_dim,viipunch_read,viipunch_write
    000000                          22  	segref	viipunch_dim,viipunch_getsize
    000000                          23  	segref	ios_,no_entry
                                    24
    000000                          25  viipunch_module: viipunchmodule:
    000000  0a   000001 7100 16     26  	tra	*+1,6
                                    27
    000001  4a  4 00010 7101 20     28  	tra	card_attach
    000002  4a  4 00012 7101 20     29  	tra	card_detach
    000003  4a  4 00014 7101 20     30  	tra	viipunch_read
    000004  4a  4 00016 7101 20     31  	tra	viipunch_write
    000005  4a  4 00020 7101 20     32  	tra	no_entry
    000006  4a  4 00022 7101 20     33  	tra	card_order
    000007  4a  4 00020 7101 20     34  	tra	no_entry
    000010  4a  4 00020 7101 20     35  	tra	no_entry
    000011  4a  4 00020 7101 20     36  	tra	no_entry
    000012  4a  4 00024 7101 20     37  	tra	viipunch_getsize
    000013  4a  4 00020 7101 20     38  	tra	no_entry
    000014  4a  4 00020 7101 20     39  	tra	no_entry
    000015  4a  4 00020 7101 20     40  	tra	no_entry
    000016  4a  4 00020 7101 20     41  	tra	no_entry
    000017  4a  4 00026 7101 20     42  	tra	card_changemode
    000020  4a  4 00020 7101 20     43  	tra	no_entry
    000021  4a  4 00020 7101 20     44  	tra	no_entry
    000022  4a  4 00020 7101 20     45  	tra	no_entry
    000023  4a  4 00020 7101 20     46  	tra	no_entry
    000024  4a  4 00020 7101 20     47  	tra	no_entry
    000025  4a  4 00020 7101 20     48  	tra	no_entry
                                    49
                                    50  	end	viipunch_
ENTRY SEQUENCES

    000026  5a   000020 0000 00
    000027  aa  7 00046 2721 20
    000030  0a   000000 7100 00
    000031  5a   000011 0000 00
    000032  aa  7 00046 2721 20
    000033  0a   000000 7100 00

NO LITERALS

NAME DEFINITIONS FOR ENTRY POINTS AND SEGDEFS

    000034  5a   000003 000000
    000035  5a   000036 600000
    000036  aa   000000 000000
    000037  55   000011 000002
    000040  5a   000002 400003
    000041  55   000006 000011
    000042  aa  011 166 151 151
    000043  aa  160 165 156 143
    000044  aa  150 137 000 000
    000045  55   000020 000003
    000046  0a   000032 500000
    000047  55   000014 000003
    000050  aa  016 166 151 151         viipunchmodule
    000051  aa  160 165 156 143
    000052  aa  150 155 157 144
    000053  aa  165 154 145 000
    000054  55   000027 000011
    000055  0a   000027 500000
    000056  55   000023 000003
    000057  aa  017 166 151 151         viipunch_module
    000060  aa  160 165 156 143
    000061  aa  150 137 155 157
    000062  aa  144 165 154 145
    000063  55   000002 000020
    000064  6a   000000 400002
    000065  55   000032 000003
    000066  aa  014 163 171 155         symbol_table
    000067  aa  142 157 154 137
    000070  aa  164 141 142 154
    000071  aa  145 000 000 000

DEFINITIONS HASH TABLE

    000072  aa   000000 000015
    000073  5a   000011 000000
    000074  aa   000000 000000
    000075  aa   000000 000000
    000076  aa   000000 000000
    000077  aa   000000 000000
    000100  aa   000000 000000
    000101  5a   000027 000000
    000102  aa   000000 000000
    000103  5a   000020 000000
    000104  aa   000000 000000
    000105  aa   000000 000000
    000106  aa   000000 000000
    000107  aa   000000 000000

EXTERNAL NAMES

    000110  aa  010 156 157 137         no_entry
    000111  aa  145 156 164 162
    000112  aa  171 000 000 000
    000113  aa  004 151 157 163         ios_
    000114  aa  137 000 000 000
    000115  aa  020 166 151 151         viipunch_getsize
    000116  aa  160 165 156 143
    000117  aa  150 137 147 145
    000120  aa  164 163 151 172
    000121  aa  145 000 000 000
    000122  aa  016 166 151 151         viipunch_write
    000123  aa  160 165 156 143
    000124  aa  150 137 167 162
    000125  aa  151 164 145 000
    000126  aa  015 166 151 151         viipunch_read
    000127  aa  160 165 156 143
    000130  aa  150 137 162 145
    000131  aa  141 144 000 000
    000132  aa  014 166 151 151         viipunch_dim
    000133  aa  160 165 156 143
    000134  aa  150 137 144 151
    000135  aa  155 000 000 000
    000136  aa  012 143 141 162         card_order
    000137  aa  144 137 157 162
    000140  aa  144 145 162 000
    000141  aa  017 143 141 162         card_changemode
    000142  aa  144 137 143 150
    000143  aa  141 156 147 145
    000144  aa  155 157 144 145
    000145  aa  013 143 141 162         card_detach
    000146  aa  144 137 144 145
    000147  aa  164 141 143 150
    000150  aa  013 143 141 162         card_attach
    000151  aa  144 137 141 164
    000152  aa  164 141 143 150
    000153  aa  010 143 141 162         card_dim
    000154  aa  144 137 144 151
    000155  aa  155 000 000 000

NO TRAP POINTER WORDS

TYPE PAIR BLOCKS

    000156  aa   000004 000000
    000157  55   000057 000054
    000160  aa   000004 000000
    000161  55   000076 000061
    000162  aa   000004 000000
    000163  55   000076 000066
    000164  aa   000004 000000
    000165  55   000076 000072
    000166  aa   000004 000000
    000167  55   000117 000102
    000170  aa   000004 000000
    000171  55   000117 000105
    000172  aa   000004 000000
    000173  55   000117 000111
    000174  aa   000004 000000
    000175  55   000117 000114
    000176  aa   000001 000000
    000177  aa   000000 000000

INTERNAL EXPRESSION WORDS

    000200  5a   000134 000000
    000201  5a   000124 000000
    000202  5a   000132 000000
    000203  5a   000122 000000
    000204  5a   000126 000000
    000205  5a   000130 000000
    000206  5a   000136 000000
    000207  5a   000140 000000
LINKAGE INFORMATION

    000000  aa   000000 000000
    000001  0a   000034 000000
    000002  aa   000000 000000
    000003  aa   000000 000000
    000004  aa   000000 000000
    000005  aa   000000 000000
    000006  22   000010 000030
    000007  a2   000000 000000
    000010  9a   777770 0000 46         card_dim|card_attach
    000011  5a   000153 0000 00
    000012  9a   777766 0000 46         card_dim|card_detach
    000013  5a   000152 0000 00
    000014  9a   777764 0000 46         viipunch_dim|viipunch_read
    000015  5a   000151 0000 00
    000016  9a   777762 0000 46         viipunch_dim|viipunch_write
    000017  5a   000150 0000 00
    000020  9a   777760 0000 46         ios_|no_entry
    000021  5a   000147 0000 00
    000022  9a   777756 0000 46         card_dim|card_order
    000023  5a   000146 0000 00
    000024  9a   777754 0000 46         viipunch_dim|viipunch_getsize
    000025  5a   000145 0000 00
    000026  9a   777752 0000 46         card_dim|card_changemode
    000027  5a   000144 0000 00
SYMBOL INFORMATION

SYMBOL TABLE HEADER

    000000  aa   000000 000001
    000001  aa   163171 155142
    000002  aa   164162 145145
    000003  aa   000000 000010
    000004  aa   000000 117244
    000005  aa   361023 525721
    000006  aa   000000 131036
    000007  aa   032730 441762
    000010  aa   141154 155040
    000011  aa   040040 040040
    000012  aa   000024 000040
    000013  aa   000034 000040
    000014  aa   000044 000100
    000015  aa   000002 000002
    000016  aa   000064 000000
    000017  aa   000000 000143
    000020  aa   000000 000102
    000021  aa   000117 000111
    000022  aa   000135 000102
    000023  aa   000064 000000
    000024  aa   101114 115040
    000025  aa   126145 162163
    000026  aa   151157 156040
    000027  aa   070056 061064
    000030  aa   040115 141162
    000031  aa   143150 040061
    000032  aa   071070 071040
    000033  aa   040040 040040
    000034  aa   123143 150162
    000035  aa   157164 150056
    000036  aa   123171 163115
    000037  aa   141151 156164
    000040  aa   056155 040040
    000041  aa   040040 040040
    000042  aa   040040 040040
    000043  aa   040040 040040
    000044  aa   154151 163164
    000045  aa   040163 171155
    000046  aa   142157 154163
    000047  aa   040040 040040
    000050  aa   040040 040040
    000051  aa   040040 040040
    000052  aa   040040 040040
    000053  aa   040040 040040
    000054  aa   040040 040040
    000055  aa   040040 040040
    000056  aa   040040 040040
    000057  aa   040040 040040
    000060  aa   040040 040040
    000061  aa   040040 040040
    000062  aa   040040 040040
    000063  aa   040040 040040
    000064  aa   000000 000001
    000065  aa   000000 000001
    000066  aa   000072 000035
    000067  aa   310157 122667
    000070  aa   000000 131036
    000071  aa   032731 600000
    000072  aa   076165 144144          >udd>sm>ds>w>ml>viipunch_.alm
    000073  aa   076163 155076
    000074  aa   144163 076167
    000075  aa   076155 154076
    000076  aa   166151 151160
    000077  aa   165156 143150
    000100  aa   137056 141154
    000101  aa   155040 040040
               MULTICS ASSEMBLY CROSS REFERENCE LISTING

   Value        Symbol                   Source file   Line number

                card_attach              viipunch_:     19,   28.
                card_changemode          viipunch_:     20,   42.
                card_detach              viipunch_:     19,   29.
                card_dim                 viipunch_:     19,   20.
                card_order               viipunch_:     20,   33.
                ios_                     viipunch_:     23.
                no_entry                 viipunch_:     23,   32,   34,   35,   36,   38,   39,   40,   41,   43,   44,   45,
                                                        46,   47,   48.
           0    viipunchmodule           viipunch_:     17,   25.
                viipunch_dim             viipunch_:     21,   22.
                viipunch_getsize         viipunch_:     22,   37.
           0    viipunch_module          viipunch_:     17,   25.
                viipunch_read            viipunch_:     21,   30.
                viipunch_write           viipunch_:     21,   31.


NO FATAL ERRORS


                                          -----------------------------------------------------------


Historical Background

This edition of the Multics software materials and documentation is provided and donated
to Massachusetts Institute of Technology by Group BULL including BULL HN Information Systems Inc.
as a contribution to computer science knowledge.
This donation is made also to give evidence of the common contributions of Massachusetts Institute of Technology,
Bell Laboratories, General Electric, Honeywell Information Systems Inc., Honeywell BULL Inc., Groupe BULL
and BULL HN Information Systems Inc. to the development of this operating system.
Multics development was initiated by Massachusetts Institute of Technology Project MAC (1963-1970),
renamed the MIT Laboratory for Computer Science and Artificial Intelligence in the mid 1970s, under the leadership
of Professor Fernando Jose Corbato. Users consider that Multics provided the best software architecture
for managing computer hardware properly and for executing programs. Many subsequent operating systems
incorporated Multics principles.
Multics was distributed in 1975 to 2000 by Group Bull in Europe , and in the U.S. by Bull HN Information Systems Inc.,
as successor in interest by change in name only to Honeywell Bull Inc. and Honeywell Information Systems Inc. .

                                          -----------------------------------------------------------

Permission to use, copy, modify, and distribute these programs and their documentation for any purpose and without
fee is hereby granted,provided that the below copyright notice and historical background appear in all copies
and that both the copyright notice and historical background and this permission notice appear in supporting
documentation, and that the names of MIT, HIS, BULL or BULL HN not be used in advertising or publicity pertaining
to distribution of the programs without specific prior written permission.
    Copyright 1972 by Massachusetts Institute of Technology and Honeywell Information Systems Inc.
    Copyright 2006 by BULL HN Information Systems Inc.
    Copyright 2006 by Bull SAS
    All Rights Reserved
