ASSEMBLY LISTING OF SEGMENT >spec>on>6978-10/22/84>xed_dirflt_even.alm
ASSEMBLED ON:	10/22/84  1115.5 mst Mon
OPTIONS USED:	list
ASSEMBLED BY:	ALM Version  6.6  November 1982
ASSEMBLER CREATED:	09/21/83  1227.3 mst Wed

                                     1  " ************************************************************
                                     2  " *                                                          *
                                     3  " * Copyright, (C) Honeywell Information Systems Inc., 1982  *
                                     4  " *                                                          *
                                     5  " * Copyright, (C) Honeywell Information Systems Inc., 1980. *
                                     6  " *                                                          *
                                     7  " ************************************************************
                                     8
    000000                           9  	name	xed_dirflt_even
                        000000      10  	entry	xed_dirflt_even
    000000                          11  xed_dirflt_even:
    000000  aa   000060 6270 00     12  	push
    000001  aa  7 00040 2721 20
    000002  aa   212121 2350 07     13  	lda	=o212121,dl
    000003  aa   505050 2360 07     14  	ldq	=o505050,dl
    000004  aa  0 00002 3501 20     15  	eppap	ap|2,*
    000005  aa  0 00000 3501 20     16  	eppap	ap|0,*	"get ptr to test_cpu tempseg
    000006  aa   000000 0110 00     17  	nop
    000007  aa   000000 0110 03     18  	even		" align xed instruction
    000010  0a   000026 7170 00     19  	xed	eeven_
    000011  aa  0 00000 2351 00     20  	lda	ap|0
    000012  aa   212121 1150 07     21  	cmpa	=o212121,dl
    000013  0a   000015 6000 00     22  	tze	*+2
    000014  aa   000000 000000      23  	oct	0		"test failed
    000015  aa  0 07640 2361 00     24  	ldq	ap|4000
    000016  aa   505050 1160 07     25  	cmpq	=o505050,dl
    000017  0a   000021 6000 00     26  	tze	*+2
    000020  aa   000000 000000      27  	oct	0
    000021  aa   000000 2350 07     28  	lda	0,dl
    000022  aa   000000 2360 07     29  	ldq	0,dl
    000023  aa  0 00000 7551 00     30  	sta	ap|0
    000024  aa  0 07640 7561 00     31  	stq	ap|4000
    000025  aa  7 00042 7101 20     32  	return
                                    33  	even
    000026  aa  0 00000 0551 00     34  eeven_:	asa	ap|0
    000027  aa  0 07640 0561 00     35  	asq	ap|4000
                                    36
                                    37  	end
ENTRY SEQUENCES

    000030  5a   000012 0000 00
    000031  aa  7 00046 2721 20
    000032  0a   000000 7100 00

NO LITERALS

NAME DEFINITIONS FOR ENTRY POINTS AND SEGDEFS

    000034  5a   000003 000000
    000035  5a   000030 600000
    000036  aa   000000 000000
    000037  55   000012 000002
    000040  5a   000002 400003
    000041  55   000006 000012
    000042  aa  017 170 145 144
    000043  aa  137 144 151 162
    000044  aa  146 154 164 137
    000045  aa  145 166 145 156
    000046  55   000021 000003
    000047  0a   000031 500000
    000050  55   000015 000003
    000051  aa  017 170 145 144         xed_dirflt_even
    000052  aa  137 144 151 162
    000053  aa  146 154 164 137
    000054  aa  145 166 145 156
    000055  55   000002 000012
    000056  6a   000000 400002
    000057  55   000024 000003
    000060  aa  014 163 171 155         symbol_table
    000061  aa  142 157 154 137
    000062  aa  164 141 142 154
    000063  aa  145 000 000 000

DEFINITIONS HASH TABLE

    000064  aa   000000 000015
    000065  aa   000000 000000
    000066  aa   000000 000000
    000067  aa   000000 000000
    000070  aa   000000 000000
    000071  aa   000000 000000
    000072  aa   000000 000000
    000073  5a   000021 000000
    000074  5a   000012 000000
    000075  aa   000000 000000
    000076  aa   000000 000000
    000077  aa   000000 000000
    000100  aa   000000 000000
    000101  aa   000000 000000

NO EXTERNAL NAMES

NO TRAP POINTER WORDS

TYPE PAIR BLOCKS

    000102  aa   000001 000000
    000103  aa   000000 000000

INTERNAL EXPRESSION WORDS

LINKAGE INFORMATION

    000000  aa   000000 000000
    000001  0a   000034 000000
    000002  aa   000000 000000
    000003  aa   000000 000000
    000004  aa   000000 000000
    000005  aa   000000 000000
    000006  22   000010 000010
    000007  a2   000000 000000
SYMBOL INFORMATION

SYMBOL TABLE HEADER

    000000  aa   000000 000001
    000001  aa   163171 155142
    000002  aa   164162 145145
    000003  aa   000000 000004
    000004  aa   000000 112143
    000005  aa   305203 523135
    000006  aa   000000 113126
    000007  aa   356040 712572
    000010  aa   141154 155040
    000011  aa   040040 040040
    000012  aa   000024 000040
    000013  aa   000034 000040
    000014  aa   000044 000100
    000015  aa   000002 000002
    000016  aa   000064 000000
    000017  aa   000000 000123
    000020  aa   000000 000105
    000021  aa   000000 000112
    000022  aa   000115 000105
    000023  aa   000064 000000
    000024  aa   101114 115040
    000025  aa   126145 162163
    000026  aa   151157 156040
    000027  aa   040066 056066
    000030  aa   040040 116157
    000031  aa   166145 155142
    000032  aa   145162 040061
    000033  aa   071070 062040
    000034  aa   107112 157150
    000035  aa   156163 157156
    000036  aa   056123 171163
    000037  aa   115141 151156
    000040  aa   164056 155040
    000041  aa   040040 040040
    000042  aa   040040 040040
    000043  aa   040040 040040
    000044  aa   154151 163164
    000045  aa   040040 040040
    000046  aa   040040 040040
    000047  aa   040040 040040
    000050  aa   040040 040040
    000051  aa   040040 040040
    000052  aa   040040 040040
    000053  aa   040040 040040
    000054  aa   040040 040040
    000055  aa   040040 040040
    000056  aa   040040 040040
    000057  aa   040040 040040
    000060  aa   040040 040040
    000061  aa   040040 040040
    000062  aa   040040 040040
    000063  aa   040040 040040
    000064  aa   000000 000001
    000065  aa   000000 000001
    000066  aa   000072 000052
    000067  aa   131232 072550
    000070  aa   000000 113126
    000071  aa   347603 200000
    000072  aa   076163 160145          >spec>on>6978-10/22/84>xed_dirflt_even.alm
    000073  aa   143076 157156
    000074  aa   076066 071067
    000075  aa   070055 061060
    000076  aa   057062 062057
    000077  aa   070064 076170
    000100  aa   145144 137144
    000101  aa   151162 146154
    000102  aa   164137 145166
    000103  aa   145156 056141
    000104  aa   154155 040040
               MULTICS ASSEMBLY CROSS REFERENCE LISTING

   Value        Symbol                   Source file   Line number

          26    eeven_                   xed_dirflt_even:     19,   34.
           0    xed_dirflt_even          xed_dirflt_even:     10,   11.


NO FATAL ERRORS


                                          -----------------------------------------------------------


Historical Background

This edition of the Multics software materials and documentation is provided and donated
to Massachusetts Institute of Technology by Group BULL including BULL HN Information Systems Inc.
as a contribution to computer science knowledge.
This donation is made also to give evidence of the common contributions of Massachusetts Institute of Technology,
Bell Laboratories, General Electric, Honeywell Information Systems Inc., Honeywell BULL Inc., Groupe BULL
and BULL HN Information Systems Inc. to the development of this operating system.
Multics development was initiated by Massachusetts Institute of Technology Project MAC (1963-1970),
renamed the MIT Laboratory for Computer Science and Artificial Intelligence in the mid 1970s, under the leadership
of Professor Fernando Jose Corbato. Users consider that Multics provided the best software architecture
for managing computer hardware properly and for executing programs. Many subsequent operating systems
incorporated Multics principles.
Multics was distributed in 1975 to 2000 by Group Bull in Europe , and in the U.S. by Bull HN Information Systems Inc.,
as successor in interest by change in name only to Honeywell Bull Inc. and Honeywell Information Systems Inc. .

                                          -----------------------------------------------------------

Permission to use, copy, modify, and distribute these programs and their documentation for any purpose and without
fee is hereby granted,provided that the below copyright notice and historical background appear in all copies
and that both the copyright notice and historical background and this permission notice appear in supporting
documentation, and that the names of MIT, HIS, BULL or BULL HN not be used in advertising or publicity pertaining
to distribution of the programs without specific prior written permission.
    Copyright 1972 by Massachusetts Institute of Technology and Honeywell Information Systems Inc.
    Copyright 2006 by BULL HN Information Systems Inc.
    Copyright 2006 by Bull SAS
    All Rights Reserved
