                         005304 i                           print_hash_bucket_meters
                         005306 p                           print_hash_bucket_meters
free_operator            000100 o                           free_operator
                         000102 t                           free_operator
                         000104 pr                          free_operator
                         000106 temp                        free_operator
literal_value            000100 descriptor_type             literal_value
                         000101 dp_picture                  literal_value
                         000110 idx_of_e                    literal_value
                         000111 int_value                   literal_value
                         000112 real_picture                literal_value
                         000116 result                      literal_value
release_primary          000100 p                           release_primary
                         000102 o                           release_primary
replace_inputs           000100 new_out                     replace_inputs
                         000102 inp                         replace_inputs
unthread                 000100 nextp                       unthread
                         000102 backp                       unthread

THE FOLLOWING EXTERNAL OPERATORS ARE USED BY THIS PROGRAM.
fx1_to_fl2          r_e_as              r_ne_as             alloc_char_temp     alloc_bit_temp      unpk_to_pk
enter_begin_block   leave_begin_block   call_ent_var_desc   call_ent_var        call_ext_out_desc   call_ext_out
call_int_this       call_int_other      return_mac          fl2_to_fx1          tra_ext_1           alloc_auto_adj
mdfx1               signal_op           enable_op           shorten_stack       ext_entry           int_entry
size_check_fx1      stop

THE FOLLOWING EXTERNAL ENTRIES ARE CALLED BY THIS PROGRAM.
assign_                       cpu_time_and_paging_          ioa_

THE FOLLOWING EXTERNAL VARIABLES ARE USED BY THIS PROGRAM.
fort_node_templates_$flow_unit_template                     sys_info$max_seg_size


   LINE    LOC      LINE    LOC      LINE    LOC      LINE    LOC      LINE    LOC      LINE    LOC      LINE    LOC
     20 001345       481 001355       483 001363       484 001415       487 001416       489 001422       490 001424
    491 001426       492 001430       494 001432       495 001434       496 001436       497 001440       499 001442
    501 001453       503 001454       505 001455       506 001467       508 001501       510 001504       512 001517
    515 001534       517 001535       518 001536       520 001541       522 001542       523 001543       525 001560
    526 001562       527 001577       529 001602       533 001604       534 001615       536 001617       538 001623
    540 001631       542 001633       544 001637       546 001643       548 001644       550 001650       552 001651
    554 001655       556 001656       558 001662       560 001663       562 001667       564 001670       565 001675
    566 001702       568 001707       570 001715       572 001720       574 001722       575 001744       577 001764
    579 002000       580 002005       581 002012       582 002062       584 002064       585 002113       590 002141
    591 002150       593 002152       595 002153       606 002155       609 002160       611 002162       612 002175
    613 002207       614 002221       617 002222       618 002235       619 002237       620 002245       621 002250
    622 002252       625 002254       627 002257       629 002260       643 002261       644 002265       652 002270
    653 002276       655 002300       656 002306       658 002310       660 002316       662 002320       663 002322
    664 002324       667 002331       668 002334       671 002347       673 002353       675 002357       676 002366
    678 002370       681 002402       684 002412       685 002415       687 002421       688 002423       689 002425
    691 002430       696 002435       698 002442       699 002475       702 002476       703 002477       704 002506
    706 002510       708 002517       711 002530       714 002542       720 002564       721 002570       722 002572
    723 002601       725 002602       727 002605       728 002606       729 002615       730 002616       732 002627
    737 002633       741 002645       742 002652       744 002657       746 002665       747 002674       749 002702
    750 002707       751 002723       753 002725       754 002734       756 002736       758 002745       760 002746
    763 002755       766 002773       768 002776       769 003015       773 003022       775 003026       777 003027
    792 003030       793 003032       795 003035       797 003040       798 003041       799 003042       800 003046
    801 003053       802 003056       803 003062       807 003064       808 003077       809 003101       811 003104
    817 003123       823 003131       824 003141       825 003143       826 003146       828 003150       834 003151
    836 003153       837 003154       838 003164       840 003165       842 003166       844 003167       850 003171
    851 003174       853 003175       855 003203       856 003205       858 003206       863 003215       864 003217
    867 003223       869 003224       871 003225       872 003233       873 003242       874 003244       875 003246
    876 003247       878 003250       880 003251       881 003263       882 003272       883 003274       884 003276
    886 003277       888 003300       889 003301       890 003303       891 003304       893 003305       895 003306
    896 003315       897 003317       899 003320       901 003321       902 003323       903 003325       904 003326
    906 003327       908 003335       909 003336       910 003343       911 003345       913 003346       916 003351
    917 003352       918 003362       920 003363       922 003372       924 003400       925 003401       927 003402
    929 003403       931 003406       932 003407       934 003410       937 003413       938 003421       939 003431
    940 003441       941 003443       943 003444       946 003447       947 003455       948 003465       949 003473
    950 003475       952 003476       955 003477       958 003502       959 003503       961 003513       963 003514
    966 003517       967 003525       968 003527       970 003531       971 003543       976 003556       977 003565
    979 003570       981 003571       984 003613       987 003620       988 003623       989 003626       997 003632
   1002 003643      1006 003647      1008 003653      1009 003662      1010 003673      1014 003676      1018 003706
   1019 003717      1020 003730      1022 003741      1024 003742      1030 003743      1034 003744      1035 003753
   1036 003756      1038 004012      1042 004014      1043 004022      1047 004101      1051 004104      1052 004117
   1053 004121      1054 004124      1058 004126      1059 004135      1060 004137      1061 004142      1063 004144
   1069 004145      1070 004155      1072 004156      1075 004157      1076 004163      1079 004172      1080 004174
   1081 004204      1083 004205      1085 004206      1087 004207      1093 004210      1095 004211      1097 004220
   1099 004221      1101 004227      1102 004237      1103 004247      1104 004251      1106 004252      1108 004260
   1109 004267      1110 004275      1111 004277      1113 004300      1115 004301      1117 004311      1119 004312
   1121 004317      1122 004321      1124 004323      1125 004335      1130 004350      1131 004357      1133 004362
   1135 004363      1138 004405      1145 004412      1149 004416      1151 004417      1153 004420      1161 004421
   1162 004433      1163 004435      1165 004437      1167 004440      1177 004442      1178 004444      1180 004447
   1182 004450      1184 004452      1186 004457      1191 004462      1193 004501      1198 004506      1200 004515
   1202 004516      1204 004526      1206 004527      1209 004536      1211 004540      1215 004544      1218 004550
   1220 004552      1223 004554      1228 004562      1229 004566      1233 004570      1235 004571      1241 004573
   1243 004603      1245 004604      1246 004611      1249 004626      1251 004631      1253 004635      1255 004640
   1256 004651      1259 004671      1261 004673      1266 004676      1267 004702      1268 004707      1276 004710
   1279 004716      1282 004723      1284 004724      1286 004726      1287 004731      1293 004736      1295 004737
   1310 004741      1312 004743      1314 004746      1316 004751      1318 004755      1320 004760      1321 004761
   1323 004770      1327 004774      1329 005000      1330 005006      1332 005007      1334 005024      1336 005027
   1338 005032      1340 005036      1342 005041      1345 005065      1347 005072      1349 005073      1351 005074
   1354 005112      1360 005116      1366 005117      1369 005125      1372 005132      1374 005133      1377 005147
   1381 005152      1387 005162      1389 005163      1394 005164      1398 005165      1399 005177      1400 005206
   1404 005210      1405 005220      1408 005242      1410 005263      1414 005270      1416 005300      1418 005303
   1420 005304      1427 005305      1429 005306      1431 005315      1433 005317      1434 005327      1436 005333
   1437 005334      1439 005335      1441 005337      1442 005341      1443 005343      1444 005344      1446 005345
   1447 005347      1449 005352      1451 005353      1461 005355      1463 005367      1465 005373      1466 005375
   1467 005400      1468 005401      1470 005403      1472 005406      1474 005410      1477 005416      1479 005417
   1492 005421      1493 005423      1495 005425      1496 005430      1497 005436      1499 005440      1501 005453
   1503 005460      1505 005465      1509 005471      1510 005475      1511 005476      1513 005477      1514 005500
   1516 005501      1518 005502      1525 005503      1527 005511      1530 005517      1531 005521      1534 005524
   1535 005527      1537 005532      1539 005534      1541 005535      1546 005536      1548 005540      1549 005543
   1550 005545      1552 005546      1554 005547      1559 005550      1560 005556      1562 005560      1564 005563
   1566 005571      1568 005573      1569 005576      1570 005600      1573 005601      1575 005603      1576 005606
   1577 005614      1579 005624      1581 005625      1586 005626      1588 005630      1590 005636      1592 005641
   1593 005644      1594 005647      1595 005652      1597 005655      1598 005670      1599 005675      1601 005700
   1602 005702      1604 005705      1606 005711      1607 005713      1608 005715      1611 005717      1613 005721
   1615 005730      1616 005732      1618 005734      1619 005747      1621 005752      1622 005754      1623 005764
   1624 005773      1626 005776      1628 006002      1629 006004      1630 006006      1633 006010      1637 006011
   1646 006013      1648 006017      1649 006022      1651 006023      1652 006027      1654 006032      1655 006036
   1656 006037      1659 006044      1660 006047      1661 006050      1664 006055      1666 006056      1672 006060
   1673 006063      1674 006067      1675 006072      1676 006105      1678 006107      1680 006110      1692 006111
   1693 006115      1694 006117      1695 006120      1697 006122      1698 006127      1699 006132      1701 006135
   1702 006144      1703 006147      1705 006151      1706 006153      1707 006154      1708 006157      1712 006165
   1713 006171      1715 006173      1717 006176      1718 006177      1724 006201      1726 006204      1727 006211
   1732 006220      1733 006227      1735 006233      1743 006241      1744 006243      1745 006246      1747 006250
   1748 006256      1749 006260      1751 006263      1752 006264      1754 006265      1756 006271      1757 006302
   1762 006307      1763 006311      1764 006313      1765 006315      1767 006317      1768 006323      1770 006326
   1773 006336      1774 006344      1775 006350      1776 006354      1778 006356      1781 006362      1782 006373
   1783 006400      1806 006402      1785 006404      1790 006406      1792 006417      1794 006422      1795 006423
   1797 006424      1799 006425      1800 006430      1801 006431      1804 006434      1810 006435      1814 006437
   1815 006445      1816 006450      1817 006453      1821 006454      1822 006464      1823 006466      1825 006502
   1827 006506      1830 006510      1835 006516      1836 006522      1837 006524      1838 006526      1839 006530
   1842 006532      1846 006535      1847 006541      1848 006547      1850 006551      1851 006560      1852 006563
   1856 006566      1857 006572      1858 006575      1859 006576      1865 006600      1866 006607      1867 006611
   1868 006615      1870 006616      1871 006623      1872 006634      1874 006636      1878 006665      1879 006666
   1880 006671      1881 006674      1883 006676      1884 006702      1886 006704      1887 006706      1889 006711
   1894 006715      1895 006717      1896 006721      1901 006723      1902 006727      1903 006737      1905 006741
   1907 006744      1908 006745      1909 006755      1911 006762      1912 006767      1914 006772      1915 007000
   1917 007002      1919 007006      1920 007010      1921 007021      1922 007030      1923 007034      1925 007037
   1931 007042      1932 007052      1933 007056      1937 007061      1938 007070      1939 007074      1943 007077
   1944 007107      1946 007112      1947 007120      1950 007133      1952 007146      1954 007152      1964 007154
   1965 007163      1966 007166      1967 007170      1969 007172      1973 007206      1974 007211      1975 007213
   1980 007216      1981 007224      1982 007230      1983 007232      1984 007237      1985 007241      1989 007242
   1991 007252      1995 007256      1997 007270      1998 007272      1999 007275      2000 007300      2001 007301
   2002 007306      2003 007311      2004 007315      2008 007321      2009 007331      2010 007334      2012 007342
   2013 007350      2014 007354      2015 007362      2016 007366      2017 007373      2018 007376      2022 007400
   2026 007406      2028 007407      2030 007410      2043 007412      2044 007415      2045 007420      2047 007423
   2049 007425      2050 007431      2051 007433      2052 007441      2053 007442      2055 007445      2056 007461
   2057 007464      2059 007477      2061 007502      2063 007506      2065 007510      2067 007516      2069 007526
   2074 007535      2075 007544      2076 007547      2078 007551      2085 007563      2090 007571      2094 007573
   2096 007575      2097 007602      2098 007605      2100 007610      2103 007621      2105 007625      2108 007632
   2110 007640      2112 007641      2114 007651      2116 007660      2118 007663      2120 007665      2121 007675
   2123 007704      2125 007706      2127 007714      2129 007715      2132 007721      2133 007723      2134 007732
   2138 007734      2142 007737      2144 007741      2146 007745      2156 007747      2158 007752      2160 007754
   2162 007757      2163 007765      2164 007777      2167 010000      2168 010001      2169 010005      2170 010010
   2171 010012      2172 010013      2173 010014      2175 010016      2176 010024      2177 010026      2179 010031
   2180 010040      2181 010044      2183 010046      2184 010050      2186 010051      2187 010053      2189 010056
   2190 010061      2191 010063      2195 010065      2203 010067      2204 010073      2206 010075      2208 010102
   2209 010104      2212 010112      2213 010115      2214 010120      2215 010122      2216 010123      2219 010130
   2221 010131      2229 010133      2230 010150      2231 010154      2233 010161      2235 010162      2246 010164
   2248 010171      2249 010177      2250 010202      2251 010210      2252 010214      2254 010217      2255 010234
   2256 010236      2258 010241      2260 010245      2264 010252      2266 010254      2268 010265      2272 010266
   2280 010267      2281 010276      2283 010300      2285 010303      2286 010307      2290 010311      2291 010314
   2292 010316      2293 010321      2294 010323      2295 010326      2296 010330      2297 010333      2301 010335
   2305 010375      2306 010401      2307 010405      2308 010411      2312 010413      2314 010415      2316 010420
   2320 010421      2328 010423      2332 010426      2333 010432      2334 010436      2336 010437      2337 010444
   2338 010450      2342 010451      2344 010453      2346 010454      2355 010456      2356 010461      2358 010464
   2360 010473      2361 010475      2364 010503      2366 010512      2367 010515      2370 010523      2372 010524
   2377 010525      2379 010526      2381 010527      2383 010530      2385 010531      2395 010532      2400 010542
   2402 010547      2403 010552      2405 010554      2406 010555      2407 010556      2409 010560      2410 010563
   2411 010564      2414 010571      2415 010574      2417 010576      2418 010604      2419 010606      2422 010615
   2426 010636      2428 010645      2429 010650      2431 010657      2432 010660      2434 010665      2435 010667
   2438 010671      2439 010675      2440 010676      2447 010701      2451 010725      2453 010734      2454 010737
   2458 010740      2460 010741      2469 010742      2470 010751      2472 010754      2473 010762      2476 011011
   2477 011017      2478 011026      2479 011032      2481 011035      2482 011044      2485 011073      2486 011101
   2487 011110      2488 011113      2489 011116      2491 011120      2493 011121      2501 011122      2502 011131
   2504 011134      2505 011142      2508 011154      2509 011157      2511 011161      2513 011162      2523 011164
   2524 011200      2526 011203      2527 011210      2528 011214      2529 011220      2530 011224      2531 011233
   2533 011236      2537 011240      2542 011242      2543 011247      2545 011252      2546 011254      2548 011255
   2550 011257      2552 011260      2566 011262      2567 011266      2571 011271      2572 011274      2573 011276
   2574 011300      2575 011302      2579 011304      2580 011310      2581 011313      2585 011315      2586 011316
   2587 011317      2588 011322      2592 011324      2593 011331      2594 011337      2595 011345      2596 011353
   2597 011356      2598 011360      2599 011363      2603 011366      2604 011372      2606 011374      2610 011377
   2622 011401      2623 011403      2624 011407      2628 011412      2629 011416      2630 011423      2631 011425
   2632 011427      2636 011431      2638 011435      2640 011436      2643 011443      2644 011456      2650 011457
   2651 011462      2652 011466      2653 011470      2654 011472      2655 011475      2657 011477      2661 011501
   2670 011503      2673 011514      2674 011516      2677 011520      2679 011526      2680 011530      2681 011541
   2682 011552      2683 011563      2684 011574      2685 011605      2686 011616      2689 011630      2693 011633
   2700 011635      2702 011641      2707 011646      2708 011652      2709 011655      2710 011656      2712 011664
   2713 011665      2714 011670      2715 011701      2716 011712      2717 011723      2718 011734      2719 011745
   2720 011756      2726 011757      2729 011771      2732 011772      2734 011776      2736 012000      2741 012021
   2742 012032      2743 012043      2744 012054      2746 012065      2748 012066      2752 012071      2785 012072
   2787 012075      2789 012077      2791 012104      2792 012115      2793 012120      2794 012122      2796 012124
   2797 012125      2799 012126      2803 012127      2805 012133      2809 012134      2811 012140      2812 012144
   2815 012145      2819 012151      2820 012161      2821 012164      2823 012170      2824 012175      2826 012201
   2827 012206      2829 012207      2830 012216      2832 012220      2833 012225      2834 012227      2836 012232
   2837 012234      2838 012240      2839 012242      2840 012244      2842 012247      2843 012251      2845 012254
   2847 012257      2848 012261      2850 012263      2854 012265      2855 012274      2857 012303      2858 012307
   2860 012315      2861 012317      2862 012321      2863 012323      2865 012325      7638 012327      2867 012330
   2878 012332      2880 012335      2881 012337      2882 012341      2883 012343      2885 012344      2891 012346
   2895 012356      2897 012361      2898 012370      2903 012375      2905 012405      2910 012415      2913 012424
   2915 012426      2920 012432      2923 012440      2925 012443      2928 012452      2929 012457      2934 012461
   2935 012463      2937 012466      2939 012467      2941 012473      2943 012474      2950 012475      2952 012501
   2956 012503      2957 012512      2958 012516      2960 012521      2965 012524      2966 012526      2967 012534
   2968 012537      2969 012542      2972 012545      2973 012555      2976 012560      2977 012563      2981 012566
   2982 012574      2983 012577      2985 012606      2986 012610      2988 012612      2989 012614      2991 012617
   2994 012622      2996 012626      2998 012627      3000 012630      3009 012631      3011 012645      3013 012647
   3014 012651      3018 012652      3020 012656      3021 012662      3022 012664      3024 012667      3029 012672
   3031 012702      3036 012711      3038 012713      3043 012717      3044 012720      3045 012721      3048 012722
   3053 012725      3056 012733      3058 012737      3061 012750      3062 012756      3067 012760      3069 012763
   3073 012764      3076 012767      3080 012773      3082 012774      3085 012775      3087 012776      3092 012777
   3093 013001      3094 013004      3095 013006      3096 013013      3097 013020      3098 013024      3100 013027
   3102 013030      3113 013031      3114 013040      3115 013050      3119 013054      3124 013063      3126 013067
   3128 013071      3132 013075      3142 013100      3144 013105      3145 013114      3147 013116      3148 013121
   3149 013124      3155 013151      3156 013157      3158 013162      3162 013164      3168 013177      3170 013203
   3171 013216      3174 013217      3175 013223      3177 013224      3178 013236      3180 013245      3182 013250
   3186 013254      3188 013255      3198 013256      3200 013260      3201 013265      3202 013274      3203 013277
   3204 013305      3205 013310      3207 013312      3209 013315      3211 013317      3212 013323      3213 013332
   3214 013335      3215 013343      3216 013346      3218 013350      3222 013353      3223 013355      3224 013357
   3225 013361      3229 013363      3230 013370      3234 013372      3235 013377      3237 013401      3238 013410
   3239 013413      3240 013416      3242 013430      3243 013432      3245 013435      3247 013441      3248 013444
   3250 013452      3251 013454      3252 013457      3253 013461      3254 013462      3258 013464      3262 013470
   3264 013472      3268 013474      3270 013502      3274 013507      3276 013511      3278 013517      3284 013521
   3286 013531      3288 013532      3298 013533      3302 013536      3303 013540      3304 013542      3306 013545
   3311 013552      3312 013554      3314 013556      3315 013564      3316 013566      3318 013571      3320 013574
   3321 013577      3324 013611      3325 013613      3326 013624      3327 013632      3328 013634      3331 013637
   3332 013642      3334 013645      3335 013650      3337 013653      3338 013660      3339 013662      3341 013665
   3343 013670      3344 013672      3345 013703      3346 013711      3347 013713      3351 013722      3352 013725
   3354 013730      3358 013731      3359 013734      3360 013737      3361 013742      3365 013745      3366 013750
   3367 013752      3372 013757      3373 013763      3374 013767      3375 013772      3376 013776      3377 014000
   3378 014004      3379 014006      3380 014012      3382 014014      3384 014016      3385 014024      3386 014031
   3387 014037      3391 014042      3393 014046      3395 014050      3396 014052      3397 014062      3398 014067
   3399 014071      3401 014074      3402 014076      3403 014101      3406 014104      3408 014105      3417 014107
   3419 014113      3420 014115      3421 014122      3423 014127      3425 014131      3429 014133      3452 014135
   3453 014140      3454 014144      3456 014146      3459 014153      3463 014156      3466 014164      3468 014166
   3469 014172      3472 014176      3474 014205      3478 014212      3479 014222      3481 014225      3485 014227
   3486 014233      3487 014235      3488 014242      3490 014247      3491 014251      3492 014257      3493 014261
   3494 014262      3495 014264      3496 014265      3498 014267      3502 014275      3504 014277      3505 014303
   3508 014307      3511 014315      3517 014316      3518 014321      3519 014330      3520 014332      3522 014342
   3526 014343      3528 014351      3530 014364      3531 014366      3532 014367      3536 014370      3538 014402
   3539 014404      3541 014407      3542 014415      3543 014417      3544 014422      3545 014425      3547 014427
   3548 014431      3549 014434      3551 014435      3552 014437      3557 014440      3558 014444      3559 014446
   3560 014447      3562 014451      3563 014463      3565 014466      3567 014467      3569 014471      3571 014476
   3573 014507      3575 014514      3577 014515      3579 014517      3580 014523      3582 014527      3583 014533
   3584 014536      3585 014537      3586 014544      3589 014555      3590 014557      3592 014561      3594 014562
   3596 014564      3599 014607      3603 014623      3605 014634      3607 014641      3610 014642      3612 014643
   3614 014647      3615 014654      3618 014665      3621 014667      3623 014670      3625 014672      3629 014700
   3630 014701      3631 014705      3633 014711      3637 014715      3639 014717      3641 014722      3643 014726
   3644 014732      3646 014733      3651 014747      3653 014750      3656 014757      3661 014765      3666 014777
   3668 015001      3670 015004      3671 015014      3672 015017      3674 015024      3675 015026      3678 015031
   3682 015034      3684 015046      3685 015051      3687 015056      3688 015060      3690 015061      3695 015064
   3701 015105      3703 015115      3707 015117      3709 015122      3711 015127      3712 015133      3716 015141
   3718 015145      3719 015153      3725 015170      3730 015172      3734 015174      3735 015205      3736 015210
   3737 015212      3739 015213      3741 015216      3742 015220      3745 015224      3752 015225      3753 015236
   3754 015241      3755 015243      3756 015244      3758 015250      3760 015256      3762 015260      3765 015264
   3767 015267      3768 015271      3772 015303      3779 015307      3782 015332      3785 015335      3787 015346
   3793 015347      3796 015355      3801 015366      3803 015371      3806 015404      3808 015405      3810 015417
   3811 015425      3813 015427      3814 015430      3816 015431      3818 015435      3819 015436      3821 015437
   3823 015444      3824 015446      3826 015447      3828 015455      3829 015462      3830 015464      3831 015466
   3833 015467      3835 015501      3836 015506      3837 015510      3839 015511      3842 015513      3844 015514
   3846 015521      3848 015522      3850 015531      3851 015541      3852 015547      3853 015551      3855 015552
   3872 015562      3875 015565      3877 015571      4326 015574      3879 015575      3887 015577      3888 015602
   3894 015605      3897 015610      3900 015617      3903 015630      3904 015637      3906 015645      3908 015647
   3910 015654      3911 015656      3912 015661      3914 015670      3919 015676      3921 015702      3926 015705
   3938 015707      3939 015712      3943 015715      3944 015717      3945 015721      3946 015723      3950 015726
   3952 015731      3955 015742      3957 015746      3958 015750      3964 015751      3967 015762      3968 015763
   3971 015764      3974 015765      3978 015767      3980 016000      3982 016004      3983 016013      3984 016015
   3986 016020      3988 016030      3989 016034      3991 016037      3994 016040      3996 016043      4001 016047
   4003 016053      4004 016061      4013 016106      4015 016110      4017 016116      4019 016117      4033 016121
   4036 016145      4037 016151      4038 016153      4040 016157      4042 016167      4044 016176      4045 016211
   4046 016214      4047 016216      4049 016220      4051 016227      4054 016233      4058 016235      4068 016237
   4070 016242      4071 016247      4076 016265      4078 016267      4079 016275      4081 016301      4084 016311
   4087 016317      4090 016330      4092 016334      4094 016353      4098 016372      4102 016374      4105 016402
   4107 016407      4111 016411      4113 016413      4117 016417      4127 016420      4128 016423      4130 016425
   4132 016432      4141 016446      4144 016502      4145 016506      4146 016510      4147 016511      4152 016530
   4157 016531      4158 016534      4160 016537      4163 016544      4165 016546      4166 016557      4168 016561
   4173 016565      4174 016573      4176 016605      4179 016614      4180 016617      4181 016623      4183 016624
   4184 016627      4185 016634      4188 016635      4189 016642      4191 016650      4196 016652      4198 016657
   4201 016670      4202 016676      4205 016677      4206 016707      4212 016717      4217 016725      4222 016736
   4225 016742      4230 016762      4233 016770      4236 017011      4238 017012      4243 017033      4244 017034
   4248 017035      4250 017043      4252 017045      4254 017046      4265 017050      4269 017053      4273 017056
   4275 017061      4277 017066      4278 017067      4281 017070      4286 017120      4288 017121      4289 017123
   4291 017124      4294 017125      4298 017132      4300 017136      4306 017144      4308 017147      4309 017151
   4310 017162      4311 017165      4312 017167      4324 017170      4316 017171      4319 017172      4320 017211
   4322 017217      4328 017220      4336 017222      4338 017225      4339 017237      4340 017242      4342 017243
   4343 017245      4346 017261      4348 017263      4350 017264      4361 017266      4364 017277      4365 017301
   4368 017303      4369 017310      4370 017312      4371 017315      4373 017317      4375 017325      4377 017326
   4379 017327      4381 017330      4390 017332      4393 017343      4394 017345      4397 017347      4398 017354
   4399 017357      4400 017361      4401 017364      4403 017365      4405 017366      4413 017374      4415 017377
   4416 017406      4418 017416      4420 017423      4421 017426      4423 017431      4425 017432      4433 017434
   4434 017437      4437 017446      4439 017452      4441 017456      4442 017465      4444 017471      4445 017473
   4447 017477      4450 017500      4452 017503      4454 017507      4455 017511      4456 017516      4457 017521
   4459 017534      4460 017536      4462 017537      4465 017540      4470 017543      4472 017547      4473 017551
   4474 017556      4475 017561      4477 017600      4478 017602      4480 017603      4485 017604      4487 017610
   4492 017612      4495 017620      4498 017624      4501 017625      4503 017626      4508 017627      4509 017631
   4510 017636      4511 017641      4513 017647      4514 017651      4516 017652      4518 017653      4528 017655
   4529 017660      4530 017662      4531 017665      4533 017667      4535 017676      4536 017700      4537 017704
   4538 017707      4543 017756      4544 017760      4546 017761      4548 017762      4553 017764      4554 017767
   4555 017771      4556 017773      4558 017777      4560 020000      4565 020002      4566 020005      4567 020007
   4568 020014      4569 020017      4571 020034      4572 020036      4574 020037      4576 020040      4585 020042
   4586 020044      4588 020047      4589 020056      4590 020061      4592 020064      4593 020066      4594 020070
   4595 020071      4596 020072      4597 020074      4601 020102      4602 020105      4603 020106      4606 020113
   4607 020115      4609 020120      4613 020142      4615 020145      4619 020153      4620 020155      4622 020157
   4623 020160      4625 020165      4627 020171      4630 020223      4632 020231      4633 020234      4635 020235
   4636 020237      4638 020242      4640 020246      4641 020250      4644 020253      4646 020254      4658 020256
   4659 020261      4660 020266      4662 020270      4664 020303      4666 020314      4668 020316      4671 020322
   4672 020325      4675 020333      4713 020335      4678 020336      4685 020340      4687 020342      4689 020344
   4692 020353      4695 020365      4697 020374      4698 020400      4699 020403      4700 020405      4701 020415
   4702 020416      4704 020420      4705 020422      4706 020426      4707 020431      4711 020432      4715 020433
   4723 020435      4724 020442      4726 020443      4731 020445      4733 020451      4736 020454      4743 020474
   4745 020510      4747 020513      4749 020515      4750 020521      4751 020530      4752 020533      4753 020541
   4754 020547      4755 020552      4759 020554      4761 020563      4762 020567      4763 020576      4764 020601
   4765 020607      4767 020615      4768 020620      4773 020622      4774 020625      4775 020627      4777 020632
   4778 020642      4779 020644      4780 020647      4781 020652      4782 020653      4783 020655      4784 020657
   4787 020662      4789 020671      4792 020674      4794 020675      4806 020677      4807 020702      4809 020704
   4811 020711      4812 020715      4815 020716      4818 020722      4820 020724      4822 020727      4824 020731
   4825 020735      4826 020744      4828 020746      4831 020764      4832 020767      4834 020771      4837 020772
   4839 020773      4840 021000      4845 021002      4850 021007      4852 021012      4854 021017      4855 021022
   4857 021023      4860 021026      4862 021031      4863 021033      4864 021044      4865 021052      4866 021054
   4869 021057      4872 021061      4874 021062      4877 021070      4879 021071      4892 021073      4893 021100
   4896 021104      4898 021122      4900 021127      4902 021133      4903 021135      4904 021141      4905 021150
   4906 021153      4907 021161      4908 021167      4909 021172      4910 021174      4911 021177      4914 021200
   4916 021202      4917 021207      4918 021216      4920 021227      4921 021232      4922 021235      4924 021243
   4925 021246      4927 021250      4930 021253      4932 021255      4934 021256      4945 021260      4947 021265
   4948 021270      4950 021272      4951 021300      4952 021302      4954 021313      4956 021316      4959 021323
   4961 021324      4970 021326      4971 021333      4972 021342      4973 021344      4974 021352      4975 021355
   4977 021357      4980 021366      4982 021372      4984 021373      4993 021375      4995 021400      4996 021406
   4998 021410      5000 021417      5001 021421      5002 021430      5003 021432      5005 021435      5007 021441
   5008 021443      5011 021446      5013 021452      5018 021455      5020 021461      5021 021463      5022 021465
   5025 021470      5027 021471      5036 021473      5038 021476      5040 021504      5042 021512      5044 021515
   5046 021520      5047 021530      5050 021533      5051 021535      5053 021536      5055 021540      5057 021541
   5063 021543      5066 021554      5067 021556      5070 021560      5071 021563      5072 021567      5074 021574
   5075 021575      5079 021577      5088 021605      5090 021611      5092 021617      5094 021622      5097 021630
   5098 021632      5099 021634      5102 021643      5103 021645      5104 021647      5106 021650      5108 021651
   5110 021652      5118 021654      5121 021665      5122 021667      5125 021671      5126 021675      5127 021677
   5129 021704      5131 021705      5135 021707      5149 021711      5151 021714      5152 021717      5153 021731
   5154 021734      5156 021736      5158 021742      5159 021750      5161 021753      5165 021760      5176 021762
   5177 021765      5178 021770      5179 021773      5181 021776      5185 022013      5189 022021      5190 022026
   5191 022031      5192 022033      5193 022035      5194 022040      5195 022042      5196 022044      5200 022045
   5201 022050      5202 022055      5204 022060      5208 022071      5210 022075      5211 022103      5213 022116
   5214 022123      5215 022130      5216 022135      5220 022157      5221 022171      5222 022174      5224 022175
   5226 022177      5229 022222      5230 022223      5231 022230      5233 022231      5235 022234      5236 022237
   5237 022244      5240 022251      5244 022253      5246 022261      5247 022263      5250 022265      5252 022266
   5263 022270      5264 022277      5266 022302      5268 022314      5269 022316      5270 022320      5271 022321
   5273 022325      5275 022335      5277 022344      5278 022347      5279 022352      5280 022353      5281 022357
   5282 022361      5283 022363      5284 022365      5286 022370      5287 022371      5288 022377      5289 022402
   5290 022410      5291 022412      5292 022416      5293 022420      5296 022422      5297 022425      5299 022427
   5301 022430      5312 022436      5316 022442      5318 022445      5319 022447      5326 022456      5327 022461
   5329 022462      5331 022465      5333 022476      5334 022503      5335 022505      5337 022506      5343 022522
   5344 022524      5348 022526      5350 022535      5352 022536      5367 022540      5368 022543      5370 022546
   5371 022550      5373 022551      5374 022553      5379 022567      5380 022601      5381 022604      5383 022605
   5385 022607      5388 022621      5391 022622      5393 022624      5395 022631      5398 022635      5401 022651
   5402 022656      5404 022657      5405 022664      5410 022673      5446 022675      5412 022676      5418 022700
   5424 022703      5426 022711      5428 022712      5430 022725      5432 022733      5433 022734      5435 022736
   5439 022742      5442 022752      5444 022754      5448 022755      5488 022763      5492 022767      5495 022777
   5499 023003      5500 023011      5501 023014      5503 023015      5505 023023      5507 023030      5508 023035
   5509 023042      5511 023043      5513 023046      5517 023050      5518 023067      5519 023106      5520 023125
   5521 023144      5522 023163      5524 023202      5528 023205      5530 023206      5624 023211      5630 023216
   5632 023244      5634 023271      5635 023326      5637 023327      5639 023362      5641 023363      5648 023417
   5650 023420      5655 023446      5657 023447      5667 023460      5669 023465      5670 023472      5671 023475
   5673 023500      5675 023507      5676 023514      5678 023537      5679 023540      5680 023541      5681 023544
   5682 023545      5683 023550      5685 023553      5687 023554      5690 023573      5692 023600      5694 023611
   5696 023617      5700 023621      5702 023632      5711 023636      5714 023643      5715 023670      5717 023674
   5718 023700      5719 023712      5720 023721      5721 023722      5722 023727      5724 023752      5725 023761
   5726 024006      5728 024012      5729 024021      5730 024033      5731 024042      5732 024043      5733 024055
   5734 024056      5736 024061      5737 024065      5738 024112      5740 024116      5741 024125      5742 024137
   5743 024146      5744 024147      5745 024161      5746 024162      5748 024164      5749 024170      5751 024217
   5752 024226      5753 024227      5755 024231      5756 024236      5758 024265      5759 024274      5760 024275
   5762 024277      5763 024304      5765 024333      5766 024342      5767 024343      5769 024345      5770 024352
   5772 024401      5773 024410      5774 024411      5776 024413      5777 024441      5778 024450      5779 024476
   5780 024477      5781 024503      5782 024544      5784 024550      5786 024553      5788 024554      5790 024557
   5792 024560      5794 024563      5796 024564      5798 024567      5800 024570      5802 024573      5804 024574
   5806 024577      5808 024600      5846 024606      5848 024620      5849 024624      5850 024660      5851 024667
   5852 024725      5853 024734      5854 024735      5856 024737      5858 024750      5859 024752      5861 025007
   5862 025020      5863 025067      5864 025076      5865 025106      5866 025137      5867 025147      5868 025150
   5870 025152      5871 025154      5872 025204      5873 025205      5875 025207      5877 025220      5878 025222
   5880 025257      5881 025270      5882 025337      5883 025346      5884 025356      5885 025407      5886 025417
   5887 025420      5888 025424      5893 025434      5915 025436      5916 025440      5918 025444      5919 025447
